:03000000020003F8
:1000620002006512007E80FE438E0C758920758D1C
:10007200FA759850D28ED29990000022900A0A7492
:10008200C4F0A37409F09000021204127444C0E098
:100092007415C0E07480C0E0120A1715811581152D
:1000A20081120273AA82AB83ACF0C002C003C00407
:1000B2001202F6D004D003D0029009F8E4F0A3F0C3
:1000C2007D007E00ED2AFFEE3BF88C018F82888353
:1000D20089F01212B6FF605EC002C003C00490092C
:1000E200F8E0F8A3E0F9900A17740AF0E4A3F088A4
:1000F200828983C002C003C004C005C006C00712C3
:1001020005E8A882A983D007D006D005D004D00381
:10011200D002EF3395E0FAEF24D0FFEA34FFFA90F1
:1001220009F8EF28F0EA39A3F00DBD00010ED00462
:10013200D003D002808E9009F8E0FAA3E0FBC0025F
:10014200C003C002C0037485C0E07415C0E07480AF
:10015200C0E0120A17E58124FBF581D003D00274B6
:10016200075AFC7D00BC0005BD0002800302008E20
:10017200C3EA9420EB9400500302008EC374609A89
:1001820074099B500302008E8A828B83120493AA05
:1001920082AB83EA4B7034C002C0037497C0E07430
:1001A20015C0E07480C0E012060815811581158122
:1001B200D003D0028A048B057E008C828D838EF060
:1001C200C002C0031203BFD003D0029009F8E0FCC2
:1001D200A3E0FD8C828D83C002C003120493AC8223
:1001E200AD83D003D002EC4D7063C002C003C004E3
:1001F200C00574CCC0E07415C0E07480C0E0120A7F
:1002020017158115811581D005D004D003D0028C39
:10021200068D0778008E828F8388F0C002C003C0EB
:1002220004C0051203BFD005D004D003D0028A0651
:100232008B0778008E828F8388F0C002C003C004CF
:10024200C0051203BFD005D004D003D002EA4B7020
:100252000302008EEC4D700302008E7401C0E07444
:1002620016C0E07480C0E0120A171581158115814D
:10027200221202ECE5829009FAF07A007B009009E2
:10028200FAE0FCBC0D028029BC00028024EA24C6EC
:10029200F582EB3409F583ECF00ABA00010BC002D7
:1002A200C0031202ECE582D003D0029009FAF0807A
:1002B200CDEA24C6F582EB3409F583E4F0EA24C6DC
:1002C200FAEB3409FB7C008A828B838CF0E4120502
:1002D200CF9009C675F00022E5829009FBF03099B3
:1002E200FD9009FBE0F599C2992210980280FBAAC1
:1002F200998A8222AAF0AB83E5829009FCF0A3EBF3
:10030200F0A3EAF09009FCE0FAA3E0FBA3E0FC7D95
:10031200007E00ED2AFFEE3BF88C018F82888389F4
:10032200F01212B6FF60208F82C002C003C004C068
:1003320005C0061202DAD006D005D004D003D002DE
:080342000DBD00CF0E80CC229E
:10154400456E74657220746865206275666665729E
:101554002073697A65206265747765656E2033321D
:1015640020616E64203234303020627974657320D7
:10157400646976697369626C6520627920380D0A42
:10158400006E756D2076616C756520697320256425
:101594000D0A006D616C6C6F63206275666665721E
:1015A40030206661696C65642C20506C65617365DC
:1015B40020656E746572206120736D616C6C657258
:1015C4002073697A650A0D006D616C6C6F6320622B
:1015D400756666657231206661696C65642C20509D
:1015E4006C6561736520656E746572206120736D2E
:1015F400616C6C65722073697A650A0D006D616CAB
:0D1604006C6F63207061737365640A0D00E4
:10034A00AA83E582900A01F0A3EAF0900A01E0FA92
:10035A00A3E0FB4A700490000022EA24FCFAEB3482
:10036A00FFFB900A08E0FCA3E0FD900A03ECF0A36F
:10037A00EDF09009FFE4F0A3F0900A03E0FCA3E09B
:10038A00FD4C6025EAB50406EBB50502801B900911
:10039A00FFECF0A3EDF08C828D83E0FCA3E0FD90EE
:1003AA000A03ECF0A3EDF080D0900A03E0FAA3E090
:1003BA008A82F58322AAF0AB83E582900A05F0A32C
:1003CA00EBF0A3EAF0900A05E0FAA3E0FBA3E0FC55
:1003DA008A828B8312034AAA82AB83EA4B602890F3
:1003EA0009FFE0FCA3E0FD4C700B8A828B83A3A378
:1003FA00E4F0A3F0228A828B83E0FAA3E0FB8C82EA
:08040A008D83EAF0A3EBF02260
:06003200E478FFF6D8FDA2
:100010007900E94400601B7A0090161C788C75A06A
:100020000AE493F2A308B8000205A0D9F4DAF27545
:02003000A0FF2F
:10041200AA83E582900A0CF0A3EAF0900A0CE0FAB3
:10042200A3E0FB900A0EEAF0A3EBF0EA4B702090F7
:100432000A0E74012AF0E43BA3F0900A0AE0FAA340
:10044200E0FB1ABAFF011B900A0AEAF0A3EBF09054
:100452000A0EE0FAA3E0FB900A08EAF0A3EBF090A0
:100462000A0AE0FCA3E0FDEC2AFCED3BFDEC24FED5
:10047200FCED34FFFD8A828B83ECF0A3EDF08C82DD
:100482008D83E4F0A3F08A828B83A3A3E4F0A3F02C
:1004920022AA83E582900A10F0A3EAF0900A10E003
:1004A200FAA3E0FBC374FB9A74FF9B500490000014
:1004B20022900A1074042AF0E43BA3F0900A08E0A8
:1004C200FAA3E0FB900A12EAF0A3EBF0900A10E024
:1004D200F51EA3E0F51F900A12E0FCA3E0FD8C825A
:1004E2008D83E0FEA3E0FF8E008F018C028D03E876
:1004F200C39AF8E99BF98C828D83A3A3E0FAA3E067
:10050200FBE8C39AF8E99BF9C3E8951EE9951F40F9
:100512000D900A1474042CF0E43DA3F08023900A99
:1005220012EEF0A3EFF0900A12E0FAA3E0FB8A8247
:100532008B83E0FAA3E0FB4A709C900A14E4F0A3D8
:10054200F0900A14E0FAA3E0FB4A70030205C3909C
:100552000A12E0FAA3E0FB74022AFCE43BFD8C825F
:100562008D83E0FEA3E0FF4E7013900A10E0F8A323
:10057200E0F98C828D83E8F0A3E9F08044EE2AFE54
:10058200EF3BFF8A828B83E0FCA3E0FD8E828F83A8
:10059200ECF0A3EDF08A828B83EEF0A3EFF074020D
:1005A2002EFAE43FFB900A10E0FCA3E0FD8A828B66
:1005B20083ECF0A3EDF0900A1474042EF0E43FA350
:1005C200F0900A14E0FAA3E08A82F5832220F71061
:1005D20030F6118883A88220F507F6A88375830078
:1005E20022F280F7F022AA83AB828BF0900A17E006
:1005F200A4F8A9F08AF0E0A429F98BF0A3E0A429D9
:06060200F583888222222C
:100038007800E84400600A790075A000E4F309D864
:10004800FC788CE8440A600C790B900000E4F0A37B
:0A005800D8FCD9FAC200C201C202AE
:10060800C01D85811DE51D24FBFAE51D24FBF88628
:10061800030886040886058B828C838DF01212B637
:10062800FE70030207F1BE250280030207D8C2024A
:10063800C201C200E51D24FBF874012BF6E43C0856
:10064800F608A605E51D24FBF88603088604088637
:10065800058B828C838DF01212B6FFBF680280175B
:10066800BF6C26D200E51D24FBF874012BF6E43C90
:1006780008F608A6058012D202E51D24FBF87401CD
:100688002BF6E43C08F608A605E51D24FBF88603CE
:100698000886040886058B828C838DF01212B6FBBF
:1006A800BB63028022BB64028013BB6F02801DBB48
:1006B80073028005BB78188009D201801275080A78
:1006C800800D7508108008750800800375080830CB
:1006D8000147EA24FDF88802860908860A08860B7D
:1006E8001818AB09AC0AAD0B8B828C838DF01212F3
:1006F800B670030207E1AB09AC0AAD0B8B828C83A1
:100708008DF01212B6FB0509E4B50902050A8B82C1
:10071800C0021202DAD00280C9300016EA24FCF8BE
:100728008802860C08860D08860E08860F18181889
:100738008030300215EA14F888028603EBF50C3392
:1007480095E0F50DF50EF50F8018EA24FEF88802FD
:100758008603088604188B0CECF50D3395E0F50E2E
:10076800F50FE508605DAB0CAC0DAD0EAF0F900A50
:10077800417410F0A3E4F0A37440F0900A44E50833
:10078800F08B828C838DF0EFC00212092ED0027597
:100798000910750A00750B40AB09AC0AAD0B8B82CA
:1007A8008C838DF01212B6FB0509E4B50902050A1F
:1007B8008B1CBB00028022851C82C0021202DAD088
:1007C8000280D5AB0C8B82C0021202DAD0028009FB
:1007D8008E82C0021202DAD002E51D24FBF87401F1
:1007E80026F6E40836F6020612D01D22AA82AB834A
:1007F800ACF0FD900A1DEAF0A3EBF0A3ECF0A3ED3A
:10080800F0900A1CE0FA7B201BEB2421FCE4340A5C
:10081800FD900A1DE0FEA3E0FFA3E0F8A3E0F98A3B
:1008280022752300752400752500900A76E522F0CC
:10083800A3E523F0A3E524F0A3E525F08E828F83BA
:1008480088F0E9C002C003C004C0051212D2AE820B
:10085800AF83A8F0F9D005D004D003D00274302EAD
:10086800FE8C828D83F08C828D83E0FEC374B98EFA
:10087800F063F08095F0500F8C828D83E0FE740752
:100888002EFE8C828D83F0900A1DE0FCA3E0FDA370
:10089800E0FEA3E0FF900A7FE522F0A3E523F0A3A2
:1008A800E524F0A3E525F08C828D838EF0EFC0025D
:1008B800C00312141BAC82AD83AEF0FFD003D0028C
:1008C800900A1DECF0A3EDF0A3EEF0A3EFF0900A70
:1008D8001DE0FCA3E0FDA3E0FEA3E0FFBC000BBD10
:1008E8000008BE0005BF000280030208108B0290BA
:1008F8000A19E0FBA3E0FCA3E0FD8A060AEE242126
:10090800F582E4340AF583E0FE8B828C838DF01245
:1009180005CFA3AB82AC83BA200040DE8B828C83E8
:100928008DF0E40205CFAA82AB83ACF0FD900A45B6
:10093800EAF0A3EBF0A3ECF0A3EDF0900A45E0FA9F
:10094800A3E0FBA3E0FCA3E0FD30E73F900A44E00E
:10095800FEBE0A37900A41E0FEA3E0FFA3E0F88E4E
:10096800828F8388F0742D1205CF900A4174012E6E
:10097800F0E43FA3F0A3E8F0900A45C3E49AF0E45A
:100988009BA3F0E49CA3F0E49DA3F0900A45E0FA51
:10099800A3E0FBA3E0FCA3E0FD900A41E0FEA3E096
:1009A800FFA3E0F8900A44E0F9900A19EEF0A3EFEB
:1009B800F0A3E8F0900A1CE9F08A828B838CF0EDB2
:1009C8000207F4C01D85811DAA821202DAD01D22F9
:1009D800AAF0AB83E582900A4AF0A3EBF0A3EAF011
:1009E800900A4AE0FAA3E0FBA3E0FC900A49E0FD84
:1009F800900A5DE4F0A3F0A3F0900A60EAF0A3EB9C
:100A0800F0A3ECF0900A63EDF09009CB020B30C034
:100A18001D85811DE51D24FBFA900A5DE4F0A3F015
:100A2800A3F0E51D24FBF8900A60E6F008A3E6F0C1
:100A380008A3E6F0900A63EAF09009CB120B30AAFB
:100A480082AB83D01D22E582900A59F0900A59E0C2
:100A5800FA900A4FE0C0E0A3E0C0E0A3E0C0E07471
:100A68007CC0E0740AC0E0900A4DE0C0E0A3E0C09A
:100A7800E08A8222158115811581900A57E0FAA330
:100A8800E0FB900A5774012AF0E43BA3F022E582C8
:100A9800900A5AF0900A5AE0FA74302AFA24C6509A
:100AA8000A74072AFA3003034302208A82020A4E94
:100AB800E582900A5BF0900A5BE0FAC4540FFBF5FC
:100AC80082C002120A96D00253020F8A82020A9644
:100AD800E582900A5CF0900A52E0FAA3E0FBA3E0FA
:100AE800FCA3E0FD900A56E0FE900A5CE0FF782047
:100AF800EE2EFEED235401F94206EA2AFAEB33FB07
:100B0800EC33FCED33FDC3EE9F4007EEC39FFE437D
:100B18000201D8DC900A52EAF0A3EBF0A3ECF0A3B0
:100B2800EDF0900A56EEF022AA83E582900A64F06E
:100B3800A3EAF0900A64E0FAA3E0FB900A4DEAF019
:100B4800A3EBF0900A5DE0FAA3E0FBA3E0FC900AB7
:100B58004FEAF0A3EBF0A3ECF0900A57E4F0A3F00F
:100B6800900A60E0FAA3E0FBA3E0FC8A828B838C06
:100B7800F01212B6FD900A6074012AF0E43BA3F06B
:100B8800A3ECF0ED7003021257BD25028003021298
:100B98004FC204C205C206C207C208C209C20AC2BD
:100BA8000B900A66E4F0900A67F0900A6874FFF008
:100BB800900A60E0FAA3E0FBA3E0FC8A828B838CB6
:100BC800F01212B6FEA3AA82AB83900A60EAF0A3E1
:100BD800EBF0A3ECF0900A6AEEF0BE25088E8212C4
:100BE8000A4E020B688E07BF300040498E07EF247B
:100BF800C64042900A68E0FFBFFF29C002C003C098
:100C080004900A67E0FA75F00AA4FAEE24D0900A74
:100C1800672AF0900A67E0FAD004D003D002709BEC
:100C2800D2058097EF75F00AA4FFEE24D0900A68E9
:100C38002FF0020BC3900A6AE0FEBE2E08900A68E5
:100C4800E4F0020BC38E82C002C003C004C00612C7
:100C58001527E58224FF9203D006D004D003D002E2
:100C6800300307900A6A74DF5EF0900A6AE0FEBEFD
:100C780020028055BE2B02804BBE2D028041BE4211
:100C880002804BBE43028050BE4403020EC4BE46DF
:100C980003020EE6BE4903020EC4BE4C028034BEF7
:100CA8004F03020ECEBE5003020E26BE53028042F0
:100CB800BE5503020ED6BE5803020EDE020EEAD25D
:100CC80004020BC3D206020BC3D207020BC3D2091C
:100CD800020BC3D20A020BC3900A63E0FA24FEF89F
:100CE800900A63F08602088603188A82120A4E0266
:100CF8000EF6900A63E0FA24FDF8900A63F0860283
:100D08000886030886041818900A52EAF0A3EBF044
:100D1800A3ECF0900A52E0FAA3E0FBA3E0FC8A827D
:100D28008B838CF0121263AA82AB83900A68E0FB73
:100D3800BBFF05900A68EAF0200438900A67E0FBD8
:100D4800C3EA9B502E900A67EBC39AF0900A67E0BB
:100D5800FB8B041B900A67EBF0BC000280107582C5
:100D680020C002C003120A4ED003D00280E3900ACA
:100D780067EBF0900A68E0FDC002900A52E0FCA31D
:100D8800E0FFA3E0FA8C828F838AF01212B6D002B9
:100D980060538D041DC374808CF063F08095F0500F
:100DA80044C002900A52E0F526A3E0F527A3E0F537
:100DB8002874012526FBE43527FAAC28900A52EB63
:100DC800F0A3EAF0A3ECF08526828527838528F036
:100DD8001212B6FAF582C002C005120A4ED005D02A
:100DE80002D0028093200403020EF6900A67E0FB0B
:100DF800C3EA9B4003020EF6900A67EBC39AF09091
:100E08000A67E0FA8A031A900A67EAF0BB0003024D
:100E18000EF1758220C002120A4ED00280E6900AB6
:100E280063E0FB24FDF8900A63F086030886040853
:100E380086071818900A52EBF0A3ECF0A3EFF09095
:100E48000A54E0FB247F5008900A6A7443F080201B
:100E5800EB249F5008900A6A7450F08013EB24BF6B
:100E68005008900A6A7449F08006900A6A7458F02B
:100E7800900A6AE0FBF582C003120A4ED00375821D
:100E88003AC003120A4ED003758230C003120A4ECC
:100E9800D003758278C003120A4ED003BB49028082
:100EA8000FBB5002800A900A53E0FBF582120AB881
:100EB800900A52E0FBF582120AB88032D208900AF2
:100EC80066740AF08028900A667408F08020900AF8
:100ED80066740AF08018900A667410F08010D20BBD
:100EE800800C8E82120A4E8005900A67EAF0300B59
:100EF8006B900A63E0FA24FCF8900A63F086020813
:100F08008603088604088606181818900A52EAF01C
:100F1800A3EBF0A3ECF0A3EEF0900A527411F0A347
:100F28007416F0A37480F0900A52E0FBA3E0FCA3CF
:100F3800E0FD74012BFEE43CFF8D02900A52EEF0B6
:100F4800A3EFF0A3EAF08B828C838DF01212B6FA2D
:100F58007003020B688A82120A4E80CB900A66E000
:100F6800FABA0003020B68900A717470F0A3740A4D
:100F7800F030094C900A63E0FA14F8900A63F0869E
:100F880002EA3395E0FBFCFE900A52EAF0A3EBF08C
:100F9800A3ECF0A3EEF030080302103E900A52E0F2
:100FA800FAA3E0FBA3E0FCA3E0FE7B007C007E004C
:100FB800900A52EAF0A3EBF0A3ECF0A3EEF08076EF
:100FC800300A2A900A63E0FA24FCF8900A63F08653
:100FD80002088603088604088606181818900A521C
:100FE800EAF0A3EBF0A3ECF0A3EEF08049900A63DB
:100FF800E0FA24FEF8900A63F0860208860318EBEC
:101008003395E0FCFE900A52EAF0A3EBF0A3ECF073
:10101800A3EEF0200820900A52E0FAA3E0FBA3E038
:10102800FCA3E0FE7C007E00900A52EAF0A3EBF0FD
:10103800A3ECF0A3EEF030083E900A52E0FAA3E0E9
:10104800FBA3E0FCA3E0FE30E72B900A52E0FAA3F2
:10105800E0FBA3E0FCA3E0FEC3E49AFAE49BFBE414
:101068009CFCE49EFE900A52EAF0A3EBF0A3ECF09D
:10107800A3EEF08002C208D20C900A66E0FC752943
:1010880070752A0A7D00900A56E4F08C82C004C06C
:1010980005120AD8D005D004200C32C004900A5694
:1010A800E0FFC4FF852982852A83E0FA4207852963
:1010B80082852A83EFF0152974FFB52902152A9035
:1010C8000A71E529F0A3E52AF0D004800C900A56AD
:1010D800E0FF852982852A83F00D900A69EDF0B238
:1010E8000C900A52E0FFA3E0FAA3E0FEA3E0FBEFB6
:1010F8004A4E4B7091900A71E529F0A3E52AF090C9
:101108000A69EDF0900A67E0FA7006900A677401C0
:10111800F020052720042474012DFA900A67E0FBCB
:10112800C3EA9B5011758220C002C003120A4ED038
:1011380003D0021B80EA900A67EBF0300812758230
:101148002D120A4E900A67E0FA14900A67F0802F71
:10115800900A69E0FA602830061275822B120A4E4E
:10116800900A67E0FA14900A67F080133007107548
:101178008220120A4E900A67E0FA14900A67F0205B
:10118800042F900A69E0FA900A67E0FB8B041B9031
:101198000A67EBF0C3EA9C50363005047C308002C5
:1011A8007C208C82C002C003120A4ED003D0028079
:1011B800DB900A67E0FA900A69E0FCC39A5009904C
:1011C8000A67EAC39CF0800C900A67E4F0800590F7
:1011D8000A67EBF0900A71E0FAA3E0FB900A69E075
:1011E800FC8C061CEE6040B20C200C150ABA0001FB
:1011F8000B8A828B83E0FEC4540FFE900A56F0805F
:101208000E8A828B83E0FE53060F900A56EEF0900A
:101218000A56E0FEF582C002C003C004120A96D046
:1012280004D003D00280BA200403020B68900A6736
:10123800E0FA8A031AEB7003020B68758220C00279
:10124800120A4ED00280EB8D82120A4E020B689071
:0B1258000A57E0FAA3E08A82F5832227
:0B1611003C4E4F20464C4F41543E0021
:10126300AAF0AB83E582900A73F0A3EBF0A3EAF054
:101273007A007B00900A73E0FCA3E0FDA3E0FE8C00
:10128300828D838EF01212B6FFA3AC82AD83900AD7
:1012930073ECF0A3EDF0A3EEF0EF60070ABA00DF02
:1012A3000B80DC900A73ECF0A3EDF0A3EEF08A82DE
:0312B3008B832208
:0D00030075812E12006AE58260030200651F
:1012B60020F71430F6148883A88220F507E6A88361
:1012C60075830022E280F7E49322E022AA82AB83B0
:1012D600ACF0FD900A7AEAF0A3EBF0A3ECF0A3EDF4
:1012E600F0900A7EE4F0900A7AE0FAA3E0FBA3E02D
:1012F600FCA3E0FD7E00900A76E0F52BA3E0F52C3A
:10130600A3E0F52DA3E0F52EE52E235401FF70781A
:10131600C006E52B25E0FFE52C33F8E52D33F9E58E
:101326002E33FE900A76EFF0A3E8F0A3E9F0A3EEE1
:10133600F0900A76E0F52BA3E0F52CA3E0F52DA3BB
:10134600E0F52EC3EA952BEB952CEC952DED952E1D
:10135600E433D0066029E52EC313F52EE52D13F5EB
:101366002DE52C13F52CE52B13F52B900A76E52BA2
:10137600F0A3E52CF0A3E52DF0A3E52EF080090EF1
:10138600900A7EEEF00212FC900A7EE0FA900A7A4B
:10139600E0FBA3E0FCA3E0FDA3E0FE900A76E0F507
:1013A6002BA3E0F52CA3E0F52DA3E0F52EC3EB95DA
:1013B6002BEC952CED952DEE952E4017900A7AEB99
:1013C600C3952BF0EC952CA3F0ED952DA3F0EE959F
:1013D6002EA3F0900A76E0FBA3E0FCA3E0FDA3E0D9
:1013E600FEC313FEED13FDEC13FCEB13FB900A7624
:1013F600F0A3ECF0A3EDF0A3EEF08A031AEB708DE8
:10140600900A7AE0FAA3E0FBA3E0FCA3E0FD8A825F
:101416008B838CF022AA82AB83ACF0FD900A83EA20
:10142600F0A3EBF0A3ECF0A3EDF0900A87E4F0A3B1
:10143600F0A3F0A3F0900A7FE0FAA3E0FBA3E0FCA0
:10144600A3E0FD752B20900A83E0FFA3E0F8A3E05C
:10145600F9A3E0FE33920DEF2FFFE833F8E933F9F5
:10146600EE33FE900A83EFF0A3E8F0A3E9F0A3EED3
:10147600F0900A87E0FEA3E0FFA3E0F8A3E0F9EE10
:101486002EFEEF33FFE833F8E933F9900A87EEF0E2
:10149600A3EFF0A3E8F0A3E9F0300D1E900A87E071
:1014A600FFA3E0F8A3E0F9A3E0FE900A8774014FDA
:1014B600F0A3E8F0A3E9F0A3EEF0900A87E0FEA31C
:1014C600E0FFA3E0F8A3E0F9C3EE9AEF9BE89CE9FE
:1014D6009D4031900A87EEC39AF0EF9BA3F0E89CFB
:1014E600A3F0E99DA3F0900A83E0FEA3E0FFA3E04A
:1014F600F8A3E0F9900A8374014EF0A3EFF0A3E895
:10150600F0A3E9F0D52B02800302144C900A83E085
:10151600FAA3E0FBA3E0FCA3E0FD8A828B838CF0B8
:1015260022E582900A8BF0900A8BE0FABA610040BD
:0E15360009EA24854004758201227582002294
:00000001FF
