:03000000020003F8
:1000620002006512007E80FE438E0C758920758D1C
:10007200FA759850D28ED299900000229009FE749F
:1000820002F0E4A3F0900A027402F0E4A3F0900AF2
:10009200BA74C4F0A37409F09000021209C6740085
:1000A200C0E0741CC0E07480C0E01210D31581154A
:1000B2008115811206F0AA82AB83ACF0900A9EEA07
:1000C200F0A3EBF0A3ECF08A828B838CF01207731F
:1000D2009009F8E4F0A3F0900B3CE4F0A3F090094F
:1000E200F8E0FAA3E0FB900A9EE0FCA3E0FDA3E0A7
:1000F200FEEA2CFCEB3DFD8C828D838EF012197290
:10010200FC604D900B3CE0FDA3E0FE900AC7740A30
:10011200F0E4A3F08D828E83C002C003C004120CEF
:10012200A4AD82AE83D004D003D002EC3395E0FFBD
:10013200EC24D0FCEF34FFFF900B3CEC2DF0EF3EB3
:10014200A3F09009F874012AF0E43BA3F00200E066
:10015200900B3CE0C0E0A3E0C0E07441C0E0741C3E
:10016200C0E07480C0E01210D3E58124FBF58190D9
:100172000B3CE0FAA3E0FB74075AFC7D00BC0005CF
:10018200BD000280030200A0C3EA9420EB94005059
:10019200030200A0C374609A74099B50030200A07A
:1001A2008A828B83120A47AA82AB83900A04EAF0FE
:1001B200A3EBF0EA4B70287453C0E0741CC0E074E7
:1001C20080C0E0120CC4158115811581900A04E0EB
:1001D200FAA3E0FB7C008A828B838CF01209739075
:1001E2000B3CE0FAA3E0FB8A828B83120A47AA82C5
:1001F200AB83900A06EAF0A3EBF0EA4B703B7488FB
:10020200C0E0741CC0E07480C0E01210D3158115E8
:10021200811581900A06E0FAA3E0FB7C008A828BBA
:10022200838CF0120973900A04E0FAA3E0FB7C00CD
:100232008A828B838CF0120973900A04E0FAA3E09D
:10024200FB4A70030200A0900A06E0FAA3E0FB4A10
:1002520070030200A074BDC0E0741CC0E07480C0D2
:10026200E01210D3158115811581900A04E0FAA3DA
:10027200E0FB7C00900A08EAF0A3EBF0A3ECF0901C
:100282000A06E0FAA3E0FB7C00900A0BEAF0A3EB7B
:10029200F0A3ECF09009FAE4F0A3F074CDC0E0749E
:1002A2001CC0E0120B9C15811581120769AA82906D
:1002B2000AA4EAF08A82120757900AA4E0FAC364F9
:1002C2008094E1400B74FA8AF063F08095F0501745
:1002D200900AA4E0FAC3648094B0404E74B98AF0E4
:1002E20063F08095F0404374E1C0E0741CC0E07498
:1002F20080C0E0120CC41581158115819009FAE0C5
:10030200FAA3E0FB900A04E0FCA3E0FDEA2CFCEB7C
:100312003DFD900AA4E0FE8C828D83F09009FA7470
:10032200012AF0E43BA3F002029D74FDC0E0741CBC
:10033200C0E07480C0E0120CC41581158115819053
:100342000AA4E0FABA2B028009BA2D030205890237
:1003520006D87419C0E0741DC0E07480C0E0120CAD
:10036200C41581158115811206F0AA82AB83ACF007
:10037200900AA1EAF0A3EBF0A3ECF08A828B838CC3
:10038200F01207739009F8E4F0A3F09009FCE4F08E
:10039200A3F09009F8E0FAA3E0FB900AA1E0FCA325
:1003A200E0FDA3E0FEEA2CFCEB3DFD8C828D838E0A
:1003B200F0121972FC604D9009FCE0FDA3E0FE9082
:1003C2000AC7740AF0E4A3F08D828E83C002C003D0
:1003D200C004120CA4AD82AE83D004D003D002ECD0
:1003E2003395E0FFEC24D0FCEF34FFFF9009FCECE6
:1003F2002DF0EF3EA3F09009F874012AF0E43BA33C
:10040200F00203949009FCE0C0E0A3E0C0E0744174
:10041200C0E0741CC0E07480C0E01210D3E58124F7
:10042200FBF5819009FCE0FAA3E0FBC374149AE4A3
:100432009B4003020354C3EA9490EB9401400302ED
:1004420003549009FEE0FCA3E0FD900AC77403F098
:10045200E4A3F08C828D83C002C003120CA4AC8290
:10046200AD83D003D002EC2408FCED340AFD8A826D
:100472008B83C004C0051207C7AA82AB83AEF0D03B
:1004820005D0048C828D83EAF0A3EBF0A3EEF0900A
:1004920009FEE0FAA3E0FB900AC77403F0E4A3F0BC
:1004A2008A828B83C002C003120CA4AC82AD83D0BB
:1004B20003D002EC2408F582ED340AF583E0FCA3B4
:1004C200E0FDA3E0FEEC4D4E7050C002C003744D3F
:1004D200C0E0741DC0E07480C0E0120CC4E5812449
:1004E200FBF5819009FEE0FAA3E0FB900AC77403D2
:1004F200F0E4A3F08A828B83120CA4AA82AB83EA73
:100502002408F582EB340AF583E0FAA3E0FBA3E0CA
:10051200FC8A828B838CF01209739009FEE0FAA3A5
:10052200E0FB900AC77403F0E4A3F08A828B83C0D5
:1005320002C003120CA4AC82AD83D003D002EC241F
:1005420008F582ED340AF583E0FCA3E0FDA3E0FEAA
:10055200EC4D4E7003020354C002C0037483C0E02A
:10056200741DC0E07480C0E0120CC4E58124FBF568
:10057200819009FEE0FAA3E0FB9009FE74012AF0E3
:10058200E43BA3F002029D749EC0E0741DC0E074BF
:1005920080C0E0120CC4158115811581120769AA69
:1005A20082900AA5EAF08A82120757900AA5E0FA19
:1005B2003395E0FBEA24D0FAEB34FFFB900A00EA21
:1005C200F0A3EBF0900A02E0C0E0A3E0C0E074BC4C
:1005D200C0E0741DC0E07480C0E0120CC4E5812448
:1005E200FBF581900A02E0FAA3E0FB1ABAFF011BB5
:1005F200900A00E0FCA3E0FDC3EA9CEB9D50187456
:100602009EC0E0741DC0E07480C0E0120CC415816D
:100612001581158102029DEC4D701874D2C0E074F0
:100622001DC0E07480C0E0120CC4158115811581D3
:1006320002029D900AC77403F0E4A3F08C828D83BA
:10064200C004C005120CA4AA82AB83D005D004EA70
:100652002408F582EB340AF583E4F0A3F0A3F0C09A
:1006620004C00574FDC0E0741DC0E07480C0E012D7
:100672000CC4E58124FBF581900A00E0FAA3E0FBBB
:10068200900AC77403F0E4A3F08A828B83120CA44D
:10069200AA82AB83EA2408F582EB340AF583E0FAF6
:1006A200A3E0FBA3E0FC8A828B838CF01209739097
:1006B2000A00E0FAA3E0FB8A828B831208229009E7
:1006C200FEE0FAA3E0FB1ABAFF011B9009FEEAF072
:1006D200A3EBF002029D740EC0E0741EC0E07480B1
:1006E200C0E0120CC415811581158102029D12070A
:1006F20069E582900AA6F07A007B00900AA6E0FCE7
:10070200BC0D028029BC00028024EA24C6F582EBDB
:100712003409F583ECF00ABA00010BC002C00312DF
:100722000769E582D003D002900AA6F080CDEA24C0
:10073200C6F582EB3409F583E4F0EA24C6FAEB3419
:1007420009FB7C008A828B838CF0E4120B83900974
:10075200C675F00022E582900AA7F03099FD900A52
:10076200A7E0F599C2992210980280FBAA998A8281
:1007720022AAF0AB83E582900AA8F0A3EBF0A3EAE9
:10078200F0900AA8E0FAA3E0FBA3E0FC7D007E0063
:10079200ED2AFFEE3BF88C018F82888389F01219D3
:1007A20072FF60208F82C002C003C004C005C00671
:1007B200120757D006D005D004D003D0020DBD00D9
:1007C200CF0E80CC22AA83E582900AABF0A3EAF096
:1007D200900AABE0FAA3E0FB8A828B83120A47AA53
:1007E20082AB837C00C002C003C004742FC0E074DB
:1007F2001EC0E07480C0E0120CC415811581158101
:10080200D004D003D002900A02E0FDA3E0FE900AD9
:100812000274012DF0E43EA3F08A828B838CF022D5
:10082200AA83E582900AADF0A3EAF0900AADE0FA5D
:10083200A3E0FB900A02E0FCA3E0FDC3EA9CEB9D6F
:100842005051900AC77403F0E4A3F08A828B83C0EC
:1008520002C003120CA4AC82AD83D003D002EC24FC
:1008620008FCED340AFD8A0674012E75F003A424F7
:1008720008F582E4340AF583E0FEA3E0FFA3E0F882
:100882008C828D83EEF0A3EFF0A3E8F00ABA00A306
:100892000B80A07440C0E0741EC0E07480C0E012FF
:1008A2000CC4158115811581900A02E0C0E0A3E015
:1008B200C0E074BCC0E0741DC0E07480C0E0120CE3
:1008C200C4E58124FBF581900A02E0FAA3E0FB1A59
:1008D200BAFF011B900A02EAF0A3EBF0900A02E0D1
:1008E200C0E0A3E0C0E074BCC0E0741DC0E074804E
:0C08F200C0E0120CC4E58124FBF581225B
:101C0000456E7465722074686520627566666572DB
:101C10002073697A65206265747765656E2033325A
:101C200020616E6420323430302062797465732014
:101C3000646976697369626C6520627920380D0A7F
:101C4000006E756D2076616C756520697320256462
:101C50000D0A006D616C6C6F63206275666665725B
:101C600030206661696C65642C20506C6561736519
:101C700020656E746572206120736D616C6C657295
:101C80002073697A650A0D006D616C6C6F63206268
:101C9000756666657231206661696C65642C2050DA
:101CA0006C6561736520656E746572206120736D6B
:101CB000616C6C65722073697A650A0D006D616CE8
:101CC0006C6F63207061737365640A0D00456E74F8
:101CD00065722061206368617261637465720A0DC8
:101CE00000497420697320612073746F72616765A5
:101CF000206368617261637465720A0D0069742003
:101D00006973206120636F6D6D616E64206368612B
:101D10007261637465720A0D00506C6561736520B1
:101D2000656E7465722061206E65772062756666E7
:101D300065722073697A65206265747765656E20C7
:101D4000323020616E64203430300A0D006D616CD9
:101D50006C6F6320627566666572256420666169D2
:101D60006C65642C20506C6561736520656E7465CC
:101D700072206120736D616C6C65722073697A6585
:101D80000A0D006D616C6C6F632070617373656424
:101D900020666F7220627566666572256400456E06
:101DA00074657220612076616C6964206275666674
:101DB0006572206E756D6265720A0D0062756666E9
:101DC0006572206E756D6265722069732025640AE4
:101DD0000D00456E74657220612076616C69642027
:101DE000627566666572206E756D626572206F74CD
:101DF000686572207468616E20300A0D0042756655
:101E000066657225642064656C65746564004E6F58
:101E1000206D61746368696E6720636F6D6D616EBC
:101E20006420636861726163746572730A0D0042B5
:101E3000756666657220637265617465640A0D007B
:101E400042756666657220736869667465640A0D1A
:011E50000091
:021E5C00000084
:1008FE00AA83E582900AB1F0A3EAF0900AB1E0FA79
:10090E00A3E0FB4A700490000022EA24FCFAEB34C8
:10091E00FFFB900AB8E0FCA3E0FD900AB3ECF0A355
:10092E00EDF0900AAFE4F0A3F0900AB3E0FCA3E080
:10093E00FD4C6025EAB50406EBB50502801B900A56
:10094E00AFECF0A3EDF08C828D83E0FCA3E0FD9084
:10095E000AB3ECF0A3EDF080D0900AB3E0FAA3E076
:10096E008A82F58322AAF0AB83E582900AB5F0A3C2
:10097E00EBF0A3EAF0900AB5E0FAA3E0FBA3E0FCEB
:10098E008A828B831208FEAA82AB83EA4B60289080
:10099E000AAFE0FCA3E0FD4C700B8A828B83A3A30D
:1009AE00E4F0A3F0228A828B83E0FAA3E0FB8C8230
:0809BE008D83EAF0A3EBF022A7
:06003200E478FFF6D8FDA2
:100010007902E94400601B7A01901E5C783C75A06F
:100020000BE493F2A308B8000205A0D9F4DAF27544
:02003000A0FF2F
:1009C600AA83E582900ABCF0A3EAF0900ABCE0FA9A
:1009D600A3E0FB900ABEEAF0A3EBF0EA4B7020908E
:1009E6000ABE74012AF0E43BA3F0900ABAE0FAA327
:1009F600E0FB1ABAFF011B900ABAEAF0A3EBF090EB
:100A06000ABEE0FAA3E0FB900AB8EAF0A3EBF09086
:100A16000ABAE0FCA3E0FDEC2AFCED3BFDEC24FE6B
:100A2600FCED34FFFD8A828B83ECF0A3EDF08C8223
:100A36008D83E4F0A3F08A828B83A3A3E4F0A3F072
:100A460022AA83E582900AC0F0A3EAF0900AC0E0E9
:100A5600FAA3E0FBC374FB9A74FF9B50049000005A
:100A660022900AC074042AF0E43BA3F0900AB8E08E
:100A7600FAA3E0FB900AC2EAF0A3EBF0900AC0E00A
:100A8600F51EA3E0F51F900AC2E0FCA3E0FD8C82F0
:100A96008D83E0FEA3E0FF8E008F018C028D03E8BC
:100AA600C39AF8E99BF98C828D83A3A3E0FAA3E0AD
:100AB600FBE8C39AF8E99BF9C3E8951EE9951F4040
:100AC6000D900AC474042CF0E43DA3F08023900A30
:100AD600C2EEF0A3EFF0900AC2E0FAA3E0FB8A822E
:100AE6008B83E0FAA3E0FB4A709C900AC4E4F0A36F
:100AF600F0900AC4E0FAA3E0FB4A7003020B779079
:100B06000AC2E0FAA3E0FB74022AFCE43BFD8C82F5
:100B16008D83E0FEA3E0FF4E7013900AC0E0F8A3B9
:100B2600E0F98C828D83E8F0A3E9F08044EE2AFE9A
:100B3600EF3BFF8A828B83E0FCA3E0FD8E828F83EE
:100B4600ECF0A3EDF08A828B83EEF0A3EFF0740253
:100B56002EFAE43FFB900AC0E0FCA3E0FD8A828BFC
:100B660083ECF0A3EDF0900AC474042EF0E43FA3E6
:100B7600F0900AC4E0FAA3E08A82F5832220F710F7
:100B860030F6118883A88220F507F6A883758300BE
:100B960022F280F7F022C01D85811DE51D24FDF897
:100BA600868318868218E493A324DB600C242560D0
:100BB60005120C8980F0020CA1D2D5E493A3C08360
:100BC600C082B4731486F0188683188682181219A8
:100BD600726053A3120C8980F5B46307E618120CF1
:100BE600898043B46417E630E74618E6F42401F634
:100BF60008E6F43400F6742D120C898033B4782D8F
:100C0600868318868218E4120C7AE583120C79E53D
:100C160083120C7AE582120C79E582120C7A30D5B1
:100C2600057430120C89D082D083020BACB475F6F1
:100C3600E6FA18E6F9187C107D27120C64FF7CE8AA
:100C46007D03120C64C4F5837C647D00120C64423F
:100C560083E975F00A84C445F0F582EF80A97B002C
:100C66000BC3E99CF9EA9DFA50F61BE92CF9EA3D1B
:100C7600FAEB22C4540F700320D51FC2D52490D49A
:100C86003440D4C083C082C0F0F582E8C0E01207C9
:100C960057D0E0F8D0F0D082D08322D01D22AA838C
:100CA600AB828BF0900AC7E0A4F8A9F08AF0E0A422
:0E0CB60029F98BF0A3E0A429F583888222227D
:100038007800E84400600A790075A000E4F309D864
:10004800FC783CE8440B600C790C900000E4F0A3C9
:0A005800D8FCD9FAC200C201C202AE
:100CC400C01D85811DE51D24FBFAE51D24FBF88666
:100CD400030886040886058B828C838DF0121972B2
:100CE400FE7003020EADBE25028003020E94C20202
:100CF400C201C200E51D24FBF874012BF6E43C0894
:100D0400F608A605E51D24FBF88603088604088674
:100D1400058B828C838DF0121972FFBF68028017D5
:100D2400BF6C26D200E51D24FBF874012BF6E43CCD
:100D340008F608A6058012D202E51D24FBF874010A
:100D44002BF6E43C08F608A605E51D24FBF886030B
:100D54000886040886058B828C838DF0121972FB39
:100D6400BB63028022BB64028013BB6F02801DBB85
:100D740073028005BB78188009D201801275080AB5
:100D8400800D750810800875080080037508083008
:100D94000147EA24FDF88802860908860A08860BBA
:100DA4001818AB09AC0AAD0B8B828C838DF0121929
:100DB400727003020E9DAB09AC0AAD0B8B828C835F
:100DC4008DF0121972FB0509E4B50902050A8B823C
:100DD400C002120757D00280C9300016EA24FCF87A
:100DE4008802860C08860D08860E08860F181818C7
:100DF4008030300215EA14F888028603EBF50C33D0
:100E040095E0F50DF50EF50F8018EA24FEF888023A
:100E14008603088604188B0CECF50D3395E0F50E6B
:100E2400F50FE508605DAB0CAC0DAD0EAF0F900A8D
:100E3400F17410F0A3E4F0A37440F0900AF4E50810
:100E4400F08B828C838DF0EFC002120FEAD0027512
:100E54000910750A00750B40AB09AC0AAD0B8B8207
:100E64008C838DF0121972FB0509E4B50902050A99
:100E74008B1CBB00028022851C82C002120757D043
:100E84000280D5AB0C8B82C002120757D0028009B6
:100E94008E82C002120757D002E51D24FBF87401AC
:100EA40026F6E40836F6020CCED01D22AA82AB83C5
:100EB400ACF0FD900ACDEAF0A3EBF0A3ECF0A3EDC7
:100EC400F0900ACCE0FA7B201BEB24D1FCE4340A3A
:100ED400FD900ACDE0FEA3E0FFA3E0F8A3E0F98AC9
:100EE40022752300752400752500900B26E522F059
:100EF400A3E523F0A3E524F0A3E525F08E828F83F8
:100F040088F0E9C002C003C004C00512198EAE8285
:100F1400AF83A8F0F9D005D004D003D00274302EEA
:100F2400FE8C828D83F08C828D83E0FEC374B98E37
:100F3400F063F08095F0500F8C828D83E0FE74078F
:100F44002EFE8C828D83F0900ACDE0FCA3E0FDA3FD
:100F5400E0FEA3E0FF900B2FE522F0A3E523F0A32E
:100F6400E524F0A3E525F08C828D838EF0EFC0029A
:100F7400C003121AD7AC82AD83AEF0FFD003D00207
:100F8400900ACDECF0A3EDF0A3EEF0A3EFF0900AFD
:100F9400CDE0FCA3E0FDA3E0FEA3E0FFBC000BBD9D
:100FA4000008BE0005BF00028003020ECC8B029035
:100FB4000AC9E0FBA3E0FCA3E0FD8A060AEE24D103
:100FC400F582E4340AF583E0FE8B828C838DF01283
:100FD4000B83A3AB82AC83BA200040DE8B828C836C
:100FE4008DF0E4020B83AA82AB83ACF0FD900AF58A
:100FF400EAF0A3EBF0A3ECF0A3EDF0900AF5E0FA2D
:10100400A3E0FBA3E0FCA3E0FD30E73F900AF4E09B
:10101400FEBE0A37900AF1E0FEA3E0FFA3E0F88EDB
:10102400828F8388F0742D120B83900AF174012E41
:10103400F0E43FA3F0A3E8F0900AF5C3E49AF0E4E7
:101044009BA3F0E49CA3F0E49DA3F0900AF5E0FADE
:10105400A3E0FBA3E0FCA3E0FD900AF1E0FEA3E023
:10106400FFA3E0F8900AF4E0F9900AC9EEF0A3EFC8
:10107400F0A3E8F0900ACCE9F08A828B838CF0ED3F
:10108400020EB0C01D85811DAA82120757D01D22F1
:10109400AAF0AB83E582900AFAF0A3EBF0A3EAF09E
:1010A400900AFAE0FAA3E0FBA3E0FC900AF9E0FD61
:1010B400900B0DE4F0A3F0A3F0900B10EAF0A3EB77
:1010C400F0A3ECF0900B13EDF09010870211ECC03C
:1010D4001D85811DE51D24FBFA900B0DE4F0A3F0A2
:1010E400A3F0E51D24FBF8900B10E6F008A3E6F04E
:1010F40008A3E6F0900B13EAF09010871211ECAA03
:1011040082AB83D01D22E582900B09F0900B09E09D
:10111400FA900AFFE0C0E0A3E0C0E0A3E0C0E074FE
:1011240038C0E07411C0E0900AFDE0C0E0A3E0C064
:10113400E08A8222158115811581900B07E0FAA3BC
:10114400E0FB900B0774012AF0E43BA3F022E58254
:10115400900B0AF0900B0AE0FA74302AFA24C65075
:101164000A74072AFA3003034302208A8202110A0E
:10117400E582900B0BF0900B0BE0FAC4540FFBF5D7
:1011840082C002121152D00253020F8A82021152FB
:10119400E582900B0CF0900B02E0FAA3E0FBA3E0D5
:1011A400FCA3E0FD900B06E0FE900B0CE0FF782022
:1011B400EE2EFEED235401F94206EA2AFAEB33FB44
:1011C400EC33FCED33FDC3EE9F4007EEC39FFE43BB
:1011D4000201D8DC900B02EAF0A3EBF0A3ECF0A33D
:1011E400EDF0900B06EEF022AA83E582900B14F04A
:1011F400A3EAF0900B14E0FAA3E0FB900AFDEAF0F6
:10120400A3EBF0900B0DE0FAA3E0FBA3E0FC900A43
:10121400FFEAF0A3EBF0A3ECF0900B07E4F0A3F0EB
:10122400900B10E0FAA3E0FBA3E0FC8A828B838C92
:10123400F0121972FD900B1074012AF0E43BA3F034
:10124400A3ECF0ED7003021913BD2502800302190B
:101254000BC204C205C206C207C208C209C20AC23E
:101264000B900B16E4F0900B17F0900B1874FFF032
:10127400900B10E0FAA3E0FBA3E0FC8A828B838C42
:10128400F0121972FEA3AA82AB83900B10EAF0A3AA
:10129400EBF0A3ECF0900B1AEEF0BE25088E821250
:1012A400110A0212248E07BF300040498E07EF2432
:1012B400C64042900B18E0FFBFFF29C002C003C024
:1012C40004900B17E0FA75F00AA4FAEE24D0900B00
:1012D400172AF0900B17E0FAD004D003D002709BC9
:1012E400D2058097EF75F00AA4FFEE24D0900B1876
:1012F4002FF002127F900B1AE0FEBE2E08900B18FE
:10130400E4F002127F8E82C002C003C004C0061241
:101314001BE3E58224FF9203D006D004D003D0025D
:10132400300307900B1A74DF5EF0900B1AE0FEBED8
:1013340020028055BE2B02804BBE2D028041BE424E
:1013440002804BBE43028050BE4403021580BE4659
:10135400030215A2BE4903021580BE4C028034BEAE
:101364004F0302158ABE50030214E2BE53028042A8
:10137400BE5503021592BE580302159A0215A6D251
:101384000402127FD20602127FD20702127FD20910
:1013940002127FD20A02127F900B13E0FA24FEF8A5
:1013A400900B13F08602088603188A8212110A022F
:1013B40015B2900B13E0FA24FDF8900B13F086029B
:1013C4000886030886041818900B02EAF0A3EBF0D1
:1013D400A3ECF0900B02E0FAA3E0FBA3E0FC8A820A
:1013E4008B838CF012191FAA82AB83900B18E0FB3D
:1013F400BBFF05900B18EAF0200438900B17E0FBB4
:10140400C3EA9B502E900B17EBC39AF0900B17E096
:10141400FB8B041B900B17EBF0BC00028010758251
:1014240020C002C00312110AD003D00280E3900B43
:1014340017EBF0900B18E0FDC002900B02E0FCA348
:10144400E0FFA3E0FA8C828F838AF0121972D00233
:1014540060538D041DC374808CF063F08095F0504C
:1014640044C002900B02E0F526A3E0F527A3E0F5C3
:101474002874012526FBE43527FAAC28900B02EBEF
:10148400F0A3EAF0A3ECF08526828527838528F073
:10149400121972FAF582C002C00512110AD005D0E1
:1014A40002D00280932004030215B2900B17E0FBD4
:1014B400C3EA9B40030215B2900B17EBC39AF0905A
:1014C4000B17E0FA8A031A900B17EAF0BB00030229
:1014D40015AD758220C00212110AD00280E6900B6D
:1014E40013E0FB24FDF8900B13F086030886040830
:1014F40086071818900B02EBF0A3ECF0A3EFF09022
:101504000B04E0FB247F5008900B1A7443F08020F6
:10151400EB249F5008900B1A7450F08013EB24BFF7
:101524005008900B1A7449F08006900B1A7458F006
:10153400900B1AE0FBF582C00312110AD0037582E6
:101544003AC00312110AD003758230C00312110A83
:10155400D003758278C00312110AD003BB490280FC
:101564000FBB5002800A900B03E0FBF5821211744A
:10157400900B02E0FBF5821211748032D208900BBA
:1015840016740AF08028900B167408F08020900BD3
:1015940016740AF08018900B167410F08010D20B99
:1015A400800C8E8212110A8005900B17EAF0300B22
:1015B4006B900B13E0FA24FCF8900B13F0860208EE
:1015C4008603088604088606181818900B02EAF0A9
:1015D400A3EBF0A3ECF0A3EEF0900B027451F0A394
:1015E400741EF0A37480F0900B02E0FBA3E0FCA354
:1015F400E0FD74012BFEE43CFF8D02900B02EEF043
:10160400A3EFF0A3EAF08B828C838DF0121972FAA7
:1016140070030212248A8212110A80CB900B16E006
:10162400FABA0003021224900B217420F0A3740B65
:10163400F030094C900B13E0FA14F8900B13F08679
:1016440002EA3395E0FBFCFE900B02EAF0A3EBF018
:10165400A3ECF0A3EEF03008030216FA900B02E0BC
:10166400FAA3E0FBA3E0FCA3E0FE7B007C007E0089
:10167400900B02EAF0A3EBF0A3ECF0A3EEF080767B
:10168400300A2A900B13E0FA24FCF8900B13F0862E
:1016940002088603088604088606181818900B02A8
:1016A400EAF0A3EBF0A3ECF0A3EEF08049900B1367
:1016B400E0FA24FEF8900B13F0860208860318EB78
:1016C4003395E0FCFE900B02EAF0A3EBF0A3ECF000
:1016D400A3EEF0200820900B02E0FAA3E0FBA3E0C5
:1016E400FCA3E0FE7C007E00900B02EAF0A3EBF08A
:1016F400A3ECF0A3EEF030083E900B02E0FAA3E076
:10170400FBA3E0FCA3E0FE30E72B900B02E0FAA37E
:10171400E0FBA3E0FCA3E0FEC3E49AFAE49BFBE451
:101724009CFCE49EFE900B02EAF0A3EBF0A3ECF029
:10173400A3EEF08002C208D20C900B16E0FC7529CF
:1017440020752A0B7D00900B06E4F08C82C004C047
:1017540005121194D005D004200C32C004900B065D
:10176400E0FFC4FF852982852A83E0FA42078529A0
:1017740082852A83EFF0152974FFB52902152A9072
:101784000B21E529F0A3E52AF0D004800C900B0688
:10179400E0FF852982852A83F00D900B19EDF0B2C4
:1017A4000C900B02E0FFA3E0FAA3E0FEA3E0FBEF42
:1017B4004A4E4B7091900B21E529F0A3E52AF09055
:1017C4000B19EDF0900B17E0FA7006900B177401EB
:1017D400F020052720042474012DFA900B17E0FB58
:1017E400C3EA9B5011758220C002C00312110AD0B3
:1017F40003D0021B80EA900B17EBF03008127582BD
:101804002D12110A900B17E0FA14900B17F0802F89
:10181400900B19E0FA602830061275822B12110A17
:10182400900B17E0FA14900B17F080133007107523
:10183400822012110A900B17E0FA14900B17F02073
:10184400042F900B19E0FA900B17E0FB8B041B900C
:101854000B17EBF0C3EA9C50363005047C30800251
:101864007C208C82C002C00312110AD003D00280F3
:10187400DB900B17E0FA900B19E0FCC39A50099027
:101884000B17EAC39CF0800C900B17E4F0800590D2
:101894000B17EBF0900B21E0FAA3E0FB900B19E09F
:1018A400FC8C061CEE6040B20C200C150ABA000138
:1018B4000B8A828B83E0FEC4540FFE900B06F080EB
:1018C4000E8A828B83E0FE53060F900B06EEF09097
:1018D4000B06E0FEF582C002C003C004121152D010
:1018E40004D003D00280BA200403021224900B1700
:1018F400E0FA8A031AEB7003021224758220C002F4
:1019040012110AD00280EB8D8212110A0212249065
:0B1914000B07E0FAA3E08A82F58322B3
:0B1E51003C4E4F20464C4F41543E00D9
:10191F00AAF0AB83E582900B23F0A3EBF0A3EAF0E0
:10192F007A007B00900B23E0FCA3E0FDA3E0FE8C8C
:10193F00828D838EF0121972FFA3AC82AD83900B50
:10194F0023ECF0A3EDF0A3EEF0EF60070ABA00DF8F
:10195F000B80DC900B23ECF0A3EDF0A3EEF08A826A
:03196F008B832245
:0D00030075812E12006AE58260030200651F
:1019720020F71430F6148883A88220F507E6A8839E
:1019820075830022E280F7E49322E022AA82AB83ED
:10199200ACF0FD900B2AEAF0A3EBF0A3ECF0A3ED80
:1019A200F0900B2EE4F0900B2AE0FAA3E0FBA3E008
:1019B200FCA3E0FD7E00900B26E0F52BA3E0F52CC6
:1019C200A3E0F52DA3E0F52EE52E235401FF707858
:1019D200C006E52B25E0FFE52C33F8E52D33F9E5CC
:1019E2002E33FE900B26EFF0A3E8F0A3E9F0A3EE6E
:1019F200F0900B26E0F52BA3E0F52CA3E0F52DA348
:101A0200E0F52EC3EA952BEB952CEC952DED952E5A
:101A1200E433D0066029E52EC313F52EE52D13F528
:101A22002DE52C13F52CE52B13F52B900B26E52B2E
:101A3200F0A3E52CF0A3E52DF0A3E52EF080090E2E
:101A4200900B2EEEF00219B8900B2EE0FA900B2AB2
:101A5200E0FBA3E0FCA3E0FDA3E0FE900B26E0F593
:101A62002BA3E0F52CA3E0F52DA3E0F52EC3EB9517
:101A72002BEC952CED952DEE952E4017900B2AEB25
:101A8200C3952BF0EC952CA3F0ED952DA3F0EE95DC
:101A92002EA3F0900B26E0FBA3E0FCA3E0FDA3E065
:101AA200FEC313FEED13FDEC13FCEB13FB900B26B0
:101AB200F0A3ECF0A3EDF0A3EEF08A031AEB708D25
:101AC200900B2AE0FAA3E0FBA3E0FCA3E0FD8A82EC
:101AD2008B838CF022AA82AB83ACF0FD900B33EAAD
:101AE200F0A3EBF0A3ECF0A3EDF0900B37E4F0A33E
:101AF200F0A3F0A3F0900B2FE0FAA3E0FBA3E0FC2D
:101B0200A3E0FD752B20900B33E0FFA3E0F8A3E0E8
:101B1200F9A3E0FE33920DEF2FFFE833F8E933F932
:101B2200EE33FE900B33EFF0A3E8F0A3E9F0A3EE5F
:101B3200F0900B37E0FEA3E0FFA3E0F8A3E0F9EE9C
:101B42002EFEEF33FFE833F8E933F9900B37EEF06E
:101B5200A3EFF0A3E8F0A3E9F0300D1E900B37E0FD
:101B6200FFA3E0F8A3E0F9A3E0FE900B3774014F66
:101B7200F0A3E8F0A3E9F0A3EEF0900B37E0FEA3A8
:101B8200E0FFA3E0F8A3E0F9C3EE9AEF9BE89CE93B
:101B92009D4031900B37EEC39AF0EF9BA3F0E89C87
:101BA200A3F0E99DA3F0900B33E0FEA3E0FFA3E0D6
:101BB200F8A3E0F9900B3374014EF0A3EFF0A3E821
:101BC200F0A3E9F0D52B028003021B08900B33E04F
:101BD200FAA3E0FBA3E0FCA3E0FD8A828B838CF0F6
:101BE20022E582900B3BF0900B3BE0FABA61004099
:0E1BF20009EA248540047582012275820022D2
:00000001FF
