:03000000020003F8
:1000620002006512007E80FE438E0C758920758D1C
:10007200FA759850D28ED299900000229009F874A5
:1000820002F0E4A3F09009FC7402F0E4A3F0900CF7
:100092008F74C4F0A37409F090000212123A7474BF
:1000A200C0E07424C0E07480C0E0121947158115C5
:1000B200811581120F6EAA82AB83ACF0C002C0031D
:1000C200C004120FF1D004D003D002900C77E4F0F8
:1000D200A3F07D007E00ED2AFFEE3BF88C018F82BB
:1000E200888389F01221E6FF6031C3EF648094B007
:1000F200401274B98FF063F08095F040070DBD0097
:10010200D50E80D274B5C0E07424C0E07480C0E023
:100112001215381581158115818083900D11E4F037
:10012200A3F07D007E00ED2AFFEE3BF88C018F826A
:10013200888389F01221E6FF605EC002C003C0041A
:10014200900D11E0F8A3E0F9900C9C740AF0E4A37E
:10015200F088828983C002C003C004C005C006C003
:1001620007121518A882A983D007D006D005D0049B
:10017200D003D002EF3395E0FAEF24D0FFEA34FF48
:10018200FA900D11EF28F0EA39A3F00DBD00010E2F
:10019200D004D003D002808E900D11E0C0E0A3E025
:1001A200C0E074CDC0E07424C0E07480C0E01219D5
:1001B20047E58124FBF581900D11E0FAA3E0FB7481
:1001C200075AFC7D00BC0005BD000280030200A0AE
:1001D200C3EA9420EB940050030200A0C374609A17
:1001E20074099B50030200A08A828B831212BBAA5D
:1001F20082AB83EA4B7034C002C00374DFC0E07488
:1002020024C0E07480C0E012153815811581158173
:10021200D003D0028A048B057E008C828D838EF0FF
:10022200C002C0031211E7D003D002900D11E0FC0E
:10023200A3E0FD8C828D83C002C0031212BBAC828C
:10024200AD83D003D002EC4D7063C002C003C00482
:10025200C0057414C0E07425C0E07480C0E01219B7
:1002620047158115811581D005D004D003D0028CA9
:10027200068D0778008E828F8388F0C002C003C08B
:1002820004C0051211E7D005D004D003D0028A06BB
:100292008B0778008E828F8388F0C002C003C0046F
:1002A200C0051211E7D005D004D003D002EA4B708A
:1002B200030200A0EC4D70030200A0C002C003C004
:1002C20004C0057449C0E07425C0E07480C0E01227
:1002D2001947158115811581D005D004D003D002AC
:1002E2008A068B0778009009FEEEF0A3EFF0A3E8F0
:1002F200F07E00900A01ECF0A3EDF0A3EEF0900D79
:1003020011E0FCA3E0FD900B75ECF0A3EDF0900B77
:1003120077ECF0A3EDF0900C71E4F0A3F0E4F50CAF
:10032200F50DC002C0037459C0E07425C0E0121478
:100332001015811581D003D002C002C003120FE74D
:10034200AE82D003D0028E82C002C003C006120F5A
:10035200D5D006D003D002C002C003C006746DC05F
:10036200E07425C0E07480C0E01219471581158140
:100372001581D006D003D002C3EE648094E1400B15
:1003820074FA8EF063F08095F0501AC3EE64809494
:10039200B0500302046FC374B98EF063F08095F01D
:1003A200500302046FC002C003C0067470C0E07440
:1003B20025C0E07480C0E0121538158115811581C1
:1003C200D006D003D002900B75E0FFA3E0F81FBF68
:1003D200FF0118900C71E0FCA3E0FDC3EF9CE89DC7
:1003E200504DC002C003C006748CC0E07425C0E04A
:1003F2007480C0E0121947158115811581D006D08D
:1004020003D0028E82C002C003120FD5D003D002E5
:10041200C002C003746DC0E07425C0E07480C0E007
:10042200121947158115811581D003D0028028EC5D
:100432002AF582ED3BF583EEF0900C7174012CF0FD
:10044200E43DA3F0900C77E0FFA3E0F8900C777402
:10045200012FF0E438A3F0900C79E0FFA3E0F890CC
:100462000C7974012FF0E438A3F0020324C002C017
:1004720003C006749EC0E07425C0E07480C0E01220
:100482001538158115811581D006D003D002050CCF
:10049200E4B50C02050D900C79E0FFA3E0F8900C96
:1004A2007974012FF0E438A3F0BE2B02801BBE2D1D
:1004B200030207E2BE3D03020DE1BE3F03020955FE
:1004C200BE4003020EE6020F4EC002C00374BAC061
:1004D200E07425C0E07480C0E012153815811581E2
:1004E2001581D003D002C002C003120F6EAE82AFDC
:1004F20083A8F0D003D0028E828F8388F0C002C01E
:1005020003C006C007C000120FF1D000D007D0060A
:10051200D003D002900C75E4F0A3F0E4F508F509DD
:10052200E5082EF9E5093FFC880589828C838DF068
:100532001221E6FCE4BC000104703DC3EC6480942B
:10054200B0401574B98CF063F08095F0400A05084C
:10055200E4B508CC050980C8C002C00374B5C0E088
:100562007424C0E07480C0E012153815811581151D
:1005720081D003D0020204CBE4F508F509E5082E88
:10058200F9E5093FFC880589828C838DF01221E60A
:10059200FDE4BD000104705A900C75E0F9A3E0FC83
:1005A200900C9C740AF0E4A3F089828C83C002C090
:1005B20003C005C006C007C00012151885820A854F
:1005C200830BD000D007D006D005D003D002EDF9BE
:1005D2003395E0FCE924D0F9EC34FFFC900C75E98A
:1005E200250AF0EC350BA3F00508E4B5088F0509E0
:1005F200808B900C75E0FEA3E0FFC002C003C00632
:10060200C007C006C00774CDC0E07424C0E0748087
:10061200C0E0121947E58124FBF581D007D006D04E
:1006220003D002C374149EE49F40030204CBC3EEC2
:100632009490EF940140030204CB9009F8E0F8A3F0
:10064200E0F9900C9C7403F0E4A3F088828983C0E3
:1006520002C003C006C007121518A882A983D007DA
:10066200D006D003D002E824FEF8E93409F98E82DC
:100672008F83C002C003C000C001121045AE82AF1A
:1006820083ACF0D001D000D003D00288828983EEFF
:10069200F0A3EFF0A3ECF09009F8E0FFA3E0F890EC
:1006A2000C9C7403F0E4A3F08F828883C002C00321
:1006B200C007C000121518AC82AD83D000D007D09D
:1006C20003D002EC24FEF582ED3409F583E0FCA3AD
:1006D200E0FDA3E0FEEC4D4E7068C002C003C0070F
:1006E200C00074EEC0E07425C0E07480C0E0121552
:1006F20038E58124FBF581D003D0029009F8E0FEB1
:10070200A3E0FF900C9C7403F0E4A3F08E828F832D
:10071200C002C003121518AE82AF83D003D002EE1E
:1007220024FEF582EF3409F583E0FEA3E0FFA3E0A7
:10073200F88E828F8388F0C002C0031211E7D003C3
:10074200D0029009F8E0FEA3E0FF900C9C7403F045
:10075200E4A3F08E828F83C002C003C006C00712DA
:100762001518A882A983D007D006D003D002E824A6
:10077200FEF582E93409F583E0F8A3E0F9A3E0FC91
:10078200E8494C70030204CBC002C003C006C00794
:100792007424C0E07426C0E07480C0E0121538E50D
:1007A2008124FBF581D003D0029009F8E0FCA3E09C
:1007B200FD8C06CE25E0CE33FFEE2475FEEF340B22
:1007C200FF900C75E0F8A3E0F98E828F83E8F0A326
:1007D200E9F09009F874012CF0E43DA3F00203243F
:1007E200C002C003743FC0E07426C0E07480C0E061
:1007F200121538158115811581D003D002C002C0AF
:1008020003120FE7AC82D003D0028C82C002C00375
:10081200C004120FD5D004D003D002EC3395E0FD12
:10082200EC24D0FCED34FFFD9009FAECF0A3EDF0DE
:100832009009FCE0FEA3E0FF1EBEFF011FC3EE9C79
:10084200EF9D5020C002C003743FC0E07426C0E098
:100852007480C0E0121538158115811581D003D03E
:1008620002020324EC4D7020C002C003745DC0E09C
:100872007426C0E07480C0E0121538158115811508
:1008820081D003D002020324900C9C7403F0E4A3F1
:10089200F08C828D83C002C003C004C005121518FB
:1008A200AE82AF83D005D004D003D002EE24FEF591
:1008B20082EF3409F583E4F0A3F0A3F0C002C00391
:1008C200C004C0057488C0E07426C0E07480C0E033
:1008D200121538E58124FBF581D003D0029009FA84
:1008E200E0FCA3E0FD900C9C7403F0E4A3F08C8286
:1008F2008D83C002C003121518AC82AD83D003D021
:1009020002EC24FEF582ED3409F583E0FCA3E0FD60
:10091200A3E0FE8C828D838EF0C002C0031211E729
:10092200D003D0029009FAE0FCA3E0FD8C828D8313
:10093200C002C0031210A0D003D0029009F8E0FC5C
:10094200A3E0FD1CBCFF011D9009F8ECF0A3EDF043
:10095200020324C002C003900C77E0C0E0A3E0C011
:10096200E07499C0E07426C0E07480C0E0121538CB
:10097200E58124FBF581D003D002C002C003C00C84
:10098200C00D74BFC0E07426C0E07480C0E01215D0
:1009920038E58124FBF581D003D002C002C0039068
:1009A20009FCE0C0E0A3E0C0E074E5C0E07426C04A
:1009B200E07480C0E0121538E58124FBF581D00394
:1009C200D002C002C0037408C0E07427C0E0748083
:1009D200C0E0121538158115811581D003D002901F
:1009E2000C6FE4F0A3F0900C6FE0FCA3E0FD900923
:1009F200FCE0FEA3E0FFC3EC9EED9F503E74012C91
:100A0200FEE43DFFC002C003C006C007C004C0052B
:100A1200C006C007742DC0E07427C0E07480C0E037
:100A2200121538E58124F9F581D007D006D003D01C
:100A320002900C6FEEF0A3EFF080ABC002C0037423
:100A42003DC0E07427C0E07480C0E0121538158103
:100A520015811581D003D002E4F50EF50F9009FC43
:100A6200E0FEA3E0FFC3E50E9EE50F9F4003020DEB
:100A7200B0C002C003C002C003C00EC00F7461C088
:100A8200E07427C0E07480C0E0121538E58124FBD1
:100A9200F581D003D002E50E25E0FCE50F33FDEC35
:100AA2002475F582ED340BF583E0F8A3E0F9C0027A
:100AB200C003C004C005C000C001C00EC00F7474E2
:100AC200C0E07427C0E07480C0E0121538E58124CC
:100AD200F9F581D005D004D003D002900C9C7403A8
:100AE200F0E4A3F0850E82850F83C002C003C00428
:100AF200C005121518A882A983D005D004D003D04E
:100B020002E824FEF582E93409F583E0FAA3E0FB6A
:100B1200A3E0FEC002C003C004C005C000C001C003
:100B220002C003C00EC00F748DC0E07427C0E07411
:100B320080C0E0121538E58124F9F581D001D0009A
:100B4200D005D004D003D002E824FEF582E93409AE
:100B5200F583E0FAA3E0FBA3E0FEEC2475F582ED59
:100B6200340BF583E0FEA3E0FFEE2AFAEF3BFBC075
:100B720002C003C000C001C002C003C00EC00F7497
:100B8200B2C0E07427C0E07480C0E0121538E5817D
:100B920024F9F581D001D000D003D002D003D002D5
:100BA200AE0EAF0FE824FEFCE93409FDE4F50AF5C8
:100BB2000BC006C0078C828D83E0FEA3E0FFA3E09A
:100BC200F8E50A2EFEE50B3FFF8E828F8388F01236
:100BD20021E6FEE4BE000104D007D006700A050A31
:100BE200E4B50ACD050B80C9C002C003C006C00728
:100BF200C00AC00B74D5C0E07427C0E07480C0E0A6
:100C0200121538E58124FBF581D007D006D003D038
:100C1200028E00EFC825E0C833F9E82475F582E9B1
:100C2200340BF583E0F8A3E0F9E8C3950AF8E995F7
:100C32000BF9C002C003C006C007C000C001C00655
:100C4200C00774EBC0E07427C0E07480C0E01215E6
:100C520038E58124F9F581D007D006D003D002EE21
:100C62004F6003020D84900C73E4F0A3F0900C77B4
:100C7200E0F8A3E0F9C002C003C000C001C000C098
:100C820001C006C007740AC0E07428C0E07480C0C6
:100C9200E0121538E58124F9F581D001D000D003A6
:100CA200D002B80005B90002801DC002C003743C26
:100CB200C0E07428C0E07480C0E0121538158115B8
:100CC200811581D003D002900C77E0F8A3E0F9906F
:100CD2000C73E0FCA3E0FDC3EC98ED9950778C0611
:100CE200C000C001EE2AF8ED3BF988828983E0FC5E
:100CF200F582C002C003C005C006C000C001120FC9
:100D0200D5D001D000D006D005D003D00288828988
:100D120083E4F00EBE00010DC3EE9420ED9400D0EA
:100D220001D00040BB900C73EEF0A3EDF0C002C006
:100D320003C000C001746DC0E07425C0E07480C0BF
:100D4200E0121538158115811581D001D000D0032C
:100D5200D002020CD1C002C003745AC0E07428C091
:100D6200E07480C0E0121538158115811581D00319
:100D7200D002900C77E4F0A3F0900C71E4F0A3F0B1
:100D82008021C002C003C006C0077473C0E074288B
:100D9200C0E07480C0E0121538E58124FBF581D0F3
:100DA20003D002050EE4B50E02050F020A5FC0026F
:100DB200C003900C79E0C0E0A3E0C0E074A1C0E001
:100DC2007428C0E07480C0E0121947E58124FBF565
:100DD20081D003D002900C79E4F0A3F0020324C086
:100DE20002C00374DEC0E07428C0E07480C0E01268
:100DF2001538158115811581D003D002900C77E04A
:100E0200FCA3E0FD4C7017C002C00374FCC0E07488
:100E120028C0E012141015811581D003D002900C65
:100E220077E0FCA3E0FD7E007F00C3EE9CEF9D40D7
:100E320003020324EE540F7064C002C003C004C056
:100E420005C006C007746DC0E07425C0E07480C0A0
:100E5200E0121538158115811581D007D006D0050D
:100E6200D004D003D002EE2AF8EF3BF9C002C0034F
:100E7200C004C005C006C007C000C0017429C0E09C
:100E82007429C0E07480C0E0121538E58124FBF5B6
:100E920081D007D006D005D004D003D002EE2AF5C7
:100EA20082EF3BF583E0F83395E0F9C002C003C05E
:100EB20004C005C006C007C000C001742DC0E074A4
:100EC20029C0E07480C0E0121538E58124FBF58169
:100ED200D007D006D005D004D003D0020EBE000148
:100EE2000F020E2C7C007D009009FCE0FEA3E0FFC7
:100EF200C3EC9EED9F40030200A0900C9C7403F093
:100F0200E4A3F08C828D83C004C005121518AE8252
:100F1200AF83D005D004EE24FEFEEF3409FF8E82AB
:100F22008F83E4F0A3F0A3F08E828F83E0FEA3E030
:100F3200FFA3E0F88E828F8388F0C004C0051211EF
:100F4200E7D005D0040CBC009F0D809CC002C003FA
:100F52007431C0E07429C0E07480C0E01215381505
:100F62008115811581D003D002020324120FE7E517
:100F720082900C7BF07A007B00900C7BE0FCBC0D35
:100F8200028029BC00028024EA24C6F582EB3409DF
:100F9200F583ECF00ABA00010BC002C003120FE79E
:100FA200E582D003D002900C7BF080CDEA24C6F516
:100FB20082EB3409F583E4F0EA24C6FAEB3409FB48
:100FC2007C008A828B838CF0E41213F79009C67539
:100FD200F00022E582900C7CF03099FD900C7CE0D0
:100FE200F599C2992210980280FBAA998A8222AAB4
:100FF200F0AB83E582900C7DF0A3EBF0A3EAF090D6
:101002000C7DE0FAA3E0FBA3E0FC7D007E00ED2A6C
:10101200FFEE3BF88C018F82888389F01221E6FF74
:1010220060208F82C002C003C004C005C006120F38
:10103200D5D006D005D004D003D0020DBD00CF0E0E
:1010420080CC22AA83E582900C80F0A3EAF0900C77
:1010520080E0FAA3E0FB8A828B831212BBAA82ABE6
:10106200837C00C002C003C0047452C0E07429C073
:10107200E07480C0E0121538158115811581D00405
:10108200D003D0029009FCE0FDA3E0FE9009FC74BD
:10109200012DF0E43EA3F08A828B838CF022AA8396
:1010A200E582900C82F0A3EAF0900C82E0FAA3E0D1
:1010B200FB9009FCE0FCA3E0FD1CBCFF011DC3EAA0
:1010C2009CEB9D4003021147900C9C7403F0E4A337
:1010D200F08A828B83C002C003121518AC82AD83E2
:1010E200D003D002EC24FEFCED3409FD8A060EEE9C
:1010F20075F003A424FEF582740935F0F583E0FF50
:10110200A3E0F8A3E0F98C828D83EFF0A3E8F0A3CB
:10111200E9F08A04EBCC25E0CC33FDEC2475FCED40
:10112200340BFDEE2EFE2475F582E4340BF583E0DC
:10113200FEA3E0FF8C828D83EEF0A3EFF00ABA00EB
:10114200010B0210B37463C0E07429C0E07480C064
:10115200E01215381581158115819009FCE0FAA37A
:10116200E0FB1ABAFF011B9009FCEAF0A3EBF022A4
:10247400456E74657220746865206275666665725F
:102484002073697A65206265747765656E203332DE
:1024940020616E6420323430302062797465732098
:1024A400646976697369626C6520627920380D0A03
:1024B40000506C6561736520656E746572206120DF
:1024C4006E756D6265720D0A006E756D2076616CB5
:1024D40075652069732025640D0A006D616C6C6F4D
:1024E400632062756666657230206661696C656436
:1024F4002C20506C6561736520656E746572206173
:1025040020736D616C6C65722073697A650A0D00C5
:102514006D616C6C6F6320627566666572312066EE
:1025240061696C65642C20506C6561736520656E0F
:10253400746572206120736D616C6C6572207369BF
:102544007A650A0D006D616C6C6F63207061737342
:1025540065640A0D00456E746572206120636861CC
:102564007261637465720A0D000D0A004974206972
:102574007320612073746F72616765206368617290
:1025840061637465720A0D00427566666572302077
:1025940069732066756C6C0D0A0069742069732078
:1025A4006120636F6D6D616E642063686172616345
:1025B4007465720A0D00506C6561736520656E74F4
:1025C40065722061206E657720627566666572208B
:1025D40073697A65206265747765656E2032302090
:1025E400616E64203430300A0D006D616C6C6F6371
:1025F400206275666665722564206661696C65642F
:102604002C20506C6561736520656E746572206161
:1026140020736D616C6C65722073697A650A0D00B4
:102624006D616C6C6F632070617373656420666F99
:102634007220627566666572256400456E74657203
:1026440020612076616C696420627566666572201B
:102654006E756D6265720A0D00456E746572206157
:102664002076616C696420627566666572206E7599
:102674006D626572206F74686572207468616E2083
:10268400300A0D0042756666657225642064656CC7
:1026940065746564004E756D626572206F662073A3
:1026A400746F7261676520636861726163746572D7
:1026B40073206172652025640D0A004E756D626594
:1026C40072206F6620636F6D6D616E642063686154
:1026D40072616374657273206172652025640D0AEA
:1026E40000546865726520617265202564206275F6
:1026F400666665727320696E20746865206865611A
:10270400700D0A00546865206275666665727320F0
:1027140063757272656E746C7920696E2068656188
:1027240070206172653A0D0A005B25645D20627554
:102734006666657225640D0A005265706F727420B6
:102744006F662065616368206275666665722069DC
:102754006E2074686520686561700D0A00427566B4
:102764006665722564207265706F72743A0D0A0092
:1027740053697A65206F66204275666665722564C2
:102784002069732025640D0A005374617274696EA4
:10279400672061646472657373206F662042756696
:1027A40066657225642069732025640D0A00456EF0
:1027B40064696E672061646472657373206F662058
:1027C40042756666657225642069732025640D0A66
:1027D400004E756D626572206F6620656C656D656F
:1027E4006E7473202564004672656520737061639E
:1027F4006520696E2042756666657225642069737A
:102804002025640D0A004E756D626572206F662086
:1028140073746F7261676520636861726163746564
:10282400727320696E206275666665722564206124
:1028340072652025640D0A005468652073746F72F4
:102844006167652063686172616374657273206196
:1028540072653A0D0A0042756666657230206973C6
:10286400206E6F7720656D70746965640D0A00547D
:102874006865726520617265206E6F2073746F7273
:10288400616765206368617261637465727320694E
:102894006E2062756666657225640D0A004E756D5C
:1028A400626572206F662063686172616374657229
:1028B400732072656365697665642073696E636508
:1028C400206C61737420273F2720636F6D6D616EE8
:1028D400642069732025640D0A00486578207661B8
:1028E4006C75657320696E2042756666657220306A
:1028F400206172653A0D0A00546865726520617240
:1029040065206E6F2073746F726167652063686100
:102914007261637465727320696E204275666665C0
:1029240072300D0A0025783A00257809004E6F2090
:102934006D61746368696E6720636F6D6D616E6449
:1029440020636861726163746572730A0D00427575
:102954006666657220637265617465640A0D00427F
:10296400756666657220736869667465640A0D002D
:02297F00000056
:10117200AA83E582900C86F0A3EAF0900C86E0FA4E
:10118200A3E0FB4A700490000022EA24FCFAEB344C
:10119200FFFB900C8DE0FCA3E0FD900C88ECF0A32B
:1011A200EDF0900C84E4F0A3F0900C88E0FCA3E056
:1011B200FD4C6025EAB50406EBB50502801B900CD8
:1011C20084ECF0A3EDF08C828D83E0FCA3E0FD9033
:1011D2000C88ECF0A3EDF080D0900C88E0FAA3E04C
:1011E2008A82F58322AAF0AB83E582900C8AF0A36F
:1011F200EBF0A3EAF0900C8AE0FAA3E0FBA3E0FC98
:101202008A828B83121172AA82AB83EA4B60289086
:101212000C84E0FCA3E0FD4C700B8A828B83A3A3B9
:10122200E4F0A3F0228A828B83E0FAA3E0FB8C82B3
:081232008D83EAF0A3EBF0222A
:06003200E478FFF6D8FDA2
:100010007902E94400601B7A0190297F781175A06C
:100020000DE493F2A308B8000205A0D9F4DAF27542
:02003000A0FF2F
:10123A00AA83E582900C91F0A3EAF0900C91E0FA6F
:10124A00A3E0FB900C93EAF0A3EBF0EA4B7020903A
:10125A000C9374012AF0E43BA3F0900C8FE0FAA3FC
:10126A00E0FB1ABAFF011B900C8FEAF0A3EBF09097
:10127A000C93E0FAA3E0FB900C8DEAF0A3EBF0905C
:10128A000C8FE0FCA3E0FDEC2AFCED3BFDEC24FE18
:10129A00FCED34FFFD8A828B83ECF0A3EDF08C82A7
:1012AA008D83E4F0A3F08A828B83A3A3E4F0A3F0F6
:1012BA0022AA83E582900C95F0A3EAF0900C95E0BF
:1012CA00FAA3E0FBC374FB9A74FF9B5004900000DE
:1012DA0022900C9574042AF0E43BA3F0900C8DE064
:1012EA00FAA3E0FB900C97EAF0A3EBF0900C95E0E0
:1012FA00F51AA3E0F51B900C97E0FCA3E0FD8C82A5
:10130A008D83E0FEA3E0FF8E008F018C028D03E83F
:10131A00C39AF8E99BF98C828D83A3A3E0FAA3E030
:10132A00FBE8C39AF8E99BF9C3E8951AE9951B40CB
:10133A000D900C9974042CF0E43DA3F08023900CDA
:10134A0097EEF0A3EFF0900C97E0FAA3E0FB8A8205
:10135A008B83E0FAA3E0FB4A709C900C99E4F0A31B
:10136A00F0900C99E0FAA3E0FB4A70030213EB90A9
:10137A000C97E0FAA3E0FB74022AFCE43BFD8C82A2
:10138A008D83E0FEA3E0FF4E7013900C95E0F8A366
:10139A00E0F98C828D83E8F0A3E9F08044EE2AFE1E
:1013AA00EF3BFF8A828B83E0FCA3E0FD8E828F8372
:1013BA00ECF0A3EDF08A828B83EEF0A3EFF07402D7
:1013CA002EFAE43FFB900C95E0FCA3E0FD8A828BA9
:1013DA0083ECF0A3EDF0900C9974042EF0E43FA393
:1013EA00F0900C99E0FAA3E08A82F5832220F710A4
:1013FA0030F6118883A88220F507F6A88375830042
:10140A0022F280F7F022C014858114E51424FDF835
:10141A00868318868218E493A324DB600C24256053
:10142A00051214FD80F0021515D2D5E493A3C083EA
:10143A00C082B4731486F018868318868218122123
:10144A00E66053A31214FD80F5B46307E61812147C
:10145A00FD8043B46417E630E74618E6F42401F643
:10146A0008E6F43400F6742D1214FD8033B4782D96
:10147A00868318868218E41214EEE5831214EDE5C9
:10148A00831214EEE5821214EDE5821214EE30D5C1
:10149A000574301214FDD082D083021420B475F67C
:1014AA00E6FA18E6F9187C107D271214D8FF7CE8B2
:1014BA007D031214D8C4F5837C647D001214D842CB
:1014CA0083E975F00A84C445F0F582EF80A97B00B0
:1014DA000BC3E99CF9EA9DFA50F61BE92CF9EA3D9F
:1014EA00FAEB22C4540F700320D51FC2D52490D41E
:1014FA003440D4C083C082C0F0F582E8C0E0120F45
:10150A00D5D0E0F8D0F0D082D08322D01422AA839A
:10151A00AB828BF0900C9CE0A4F8A9F08AF0E0A4CE
:0E152A0029F98BF0A3E0A429F5838882222200
:100038007800E84400600A790075A000E4F309D864
:10004800FC7811E8440D600C790E900000E4F0A3F0
:0A005800D8FCD9FAC200C201C202AE
:10153800C014858114E51424FBFAE51424FBF8860D
:10154800030886040886058B828C838DF01221E6B9
:10155800FE7003021721BE25028003021708C2028B
:10156800C201C200E51424FBF874012BF6E43C0820
:10157800F608A605E51424FBF88603088604088601
:10158800058B828C838DF01221E6FFBF68028017DD
:10159800BF6C26D200E51424FBF874012BF6E43C5A
:1015A80008F608A6058012D202E51424FBF8740197
:1015B8002BF6E43C08F608A605E51424FBF8860398
:1015C8000886040886058B828C838DF01221E6FB41
:1015D800BB63028022BB64028013BB6F02801DBB09
:1015E80073028005BB78188009D201801275220A1F
:1015F800800D75221080087522008003752208303E
:101608000147EA24FDF888028623088624088625EF
:101618001818AB23AC24AD258B828C838DF0122156
:10162800E67003021711AB23AC24AD258B828C83A3
:101638008DF01221E6FB0523E4B5230205248B82F5
:10164800C002120FD5D00280C9300016EA24FCF877
:1016580088028626088627088628088629181818E2
:101668008030300215EA14F888028603EBF5263339
:1016780095E0F527F528F5298018EA24FEF8880270
:101688008603088604188B26ECF5273395E0F528A1
:10169800F529E522605DAB26AC27AD28AF29900C73
:1016A800C6742AF0A3E4F0A37440F0900CC9E522B4
:1016B800F08B828C838DF0EFC00212185ED0027519
:1016C800232A752400752540AB23AC24AD258B82D5
:1016D8008C838DF01221E6FB0523E4B52302052453
:1016E8008B36BB00028022853682C002120FD5D00D
:1016F8000280D5AB268B82C002120FD5D00280099A
:101708008E82C002120FD5D002E51424FBF87401B2
:1017180026F6E40836F6021542D01422AA82AB83D4
:10172800ACF0FD900CA2EAF0A3EBF0A3ECF0A3ED73
:10173800F0900CA1E0FA7B201BEB24A6FCE4340C0F
:10174800FD900CA2E0FEA3E0FFA3E0F8A3E0F98A75
:1017580010751100751200751300900CFBE510F060
:10176800A3E511F0A3E512F0A3E513F08E828F83B1
:1017780088F0E9C002C003C004C005122202AE828C
:10178800AF83A8F0F9D005D004D003D00274302E6E
:10179800FE8C828D83F08C828D83E0FEC374B98EBB
:1017A800F063F08095F0500F8C828D83E0FE740713
:1017B8002EFE8C828D83F0900CA2E0FCA3E0FDA3AA
:1017C800E0FEA3E0FF900D04E510F0A3E511F0A3FF
:1017D800E512F0A3E513F08C828D838EF0EFC00242
:1017E800C00312234BAC82AD83AEF0FFD003D0020E
:1017F800900CA2ECF0A3EDF0A3EEF0A3EFF0900CA8
:10180800A2E0FCA3E0FDA3E0FEA3E0FFBC000BBD4B
:101818000008BE0005BF000280030217408B02903B
:101828000C9EE0FBA3E0FCA3E0FD8A060AEE24A6DA
:10183800F582E4340CF583E0FE8B828C838DF01204
:1018480013F7A3AB82AC83BA200040DE8B828C8373
:101858008DF0E40213F7AA82AB83ACF0FD900CCABA
:10186800EAF0A3EBF0A3ECF0A3EDF0900CCAE0FAD9
:10187800A3E0FBA3E0FCA3E0FD30E73F900CC9E048
:10188800FEBE0A37900CC6E0FEA3E0FFA3E0F88E88
:10189800828F8388F0742D1213F7900CC674012E72
:1018A800F0E43FA3F0A3E8F0900CCAC3E49AF0E494
:1018B8009BA3F0E49CA3F0E49DA3F0900CCAE0FA8B
:1018C800A3E0FBA3E0FCA3E0FD900CC6E0FEA3E0D0
:1018D800FFA3E0F8900CC9E0F9900C9EEEF0A3EF9E
:1018E800F0A3E8F0900CA1E9F08A828B838CF0EDEC
:1018F800021724C014858114AA82120FD5D014228D
:10190800AAF0AB83E582900CCFF0A3EBF0A3EAF04A
:10191800900CCFE0FAA3E0FBA3E0FC900CCEE0FD36
:10192800900CE2E4F0A3F0A3F0900CE5EAF0A3EB4E
:10193800F0A3ECF0900CE8EDF09018FB021A60C0F0
:1019480014858114E51424FBFA900CE2E4F0A3F06A
:10195800A3F0E51424FBF8900CE5E6F008A3E6F004
:1019680008A3E6F0900CE8EAF09018FB121A60AAB7
:1019780082AB83D01422E582900CDEF0900CDEE07E
:10198800FA900CD4E0C0E0A3E0C0E0A3E0C0E074AB
:10199800ACC0E07419C0E0900CD2E0C0E0A3E0C095
:1019A800E08A8222158115811581900CDCE0FAA36A
:1019B800E0FB900CDC74012AF0E43BA3F022E58202
:1019C800900CDFF0900CDFE0FA74302AFA24C6504D
:1019D8000A74072AFA3003034302208A8202197E16
:1019E800E582900CE0F0900CE0E0FAC4540FFBF5AF
:1019F80082C0021219C6D00253020F8A820219C687
:101A0800E582900CE1F0900CD7E0FAA3E0FBA3E0AC
:101A1800FCA3E0FD900CDBE0FE900CE1E0FF7820F9
:101A2800EE2EFEED235401F94206EA2AFAEB33FBC7
:101A3800EC33FCED33FDC3EE9F4007EEC39FFE433E
:101A48000201D8DC900CD7EAF0A3EBF0A3ECF0A3EA
:101A5800EDF0900CDBEEF022AA83E582900CE9F021
:101A6800A3EAF0900CE9E0FAA3E0FB900CD2EAF0CC
:101A7800A3EBF0900CE2E0FAA3E0FBA3E0FC900CEF
:101A8800D4EAF0A3EBF0A3ECF0900CDCE4F0A3F0C4
:101A9800900CE5E0FAA3E0FBA3E0FC8A828B838C40
:101AA800F01221E6FD900CE574012AF0E43BA3F066
:101AB800A3ECF0ED7003022187BD2502800302210B
:101AC8007FC204C205C206C207C208C209C20AC24E
:101AD8000B900CEBE4F0900CECF0900CED74FFF034
:101AE800900CE5E0FAA3E0FBA3E0FC8A828B838CF0
:101AF800F01221E6FEA3AA82AB83900CE5EAF0A3DC
:101B0800EBF0A3ECF0900CEFEEF0BE25088E8212FD
:101B1800197E021A988E07BF300040498E07EF24BD
:101B2800C64042900CEDE0FFBFFF29C002C003C0D1
:101B380004900CECE0FA75F00AA4FAEE24D0900CAC
:101B4800EC2AF0900CECE0FAD004D003D002709BA1
:101B5800D2058097EF75F00AA4FFEE24D0900CED23
:101B68002FF0021AF3900CEFE0FEBE2E08900CED59
:101B7800E4F0021AF38E82C002C003C004C0061249
:101B88002457E58224FF9203D006D004D003D00264
:101B9800300307900CEF74DF5EF0900CEFE0FEBEB0
:101BA80020028055BE2B02804BBE2D028041BE42D2
:101BB80002804BBE43028050BE4403021DF4BE4661
:101BC80003021E16BE4903021DF4BE4C028034BE39
:101BD8004F03021DFEBE5003021D56BE5302804233
:101BE800BE5503021E06BE5803021E0E021E1AD25E
:101BF80004021AF3D206021AF3D207021AF3D20920
:101C0800021AF3D20A021AF3900CE8E0FA24FEF85A
:101C1800900CE8F08602088603188A8212197E0260
:101C28001E26900CE8E0FA24FDF8900CE8F08602F5
:101C38000886030886041818900CD7EAF0A3EBF07E
:101C4800A3ECF0900CD7E0FAA3E0FBA3E0FC8A82B7
:101C58008B838CF0122193AA82AB83900CEDE0FB6E
:101C6800BBFF05900CEDEAF0200438900CECE0FB8B
:101C7800C3EA9B502E900CECEBC39AF0900CECE06E
:101C8800FB8B041B900CECEBF0BC000280107582FF
:101C980020C002C00312197ED003D00280E3900C4A
:101CA800ECEBF0900CEDE0FDC002900CD7E0FCA34B
:101CB800E0FFA3E0FA8C828F838AF01221E6D0023B
:101CC80060538D041DC374808CF063F08095F050D0
:101CD80044C002900CD7E0F515A3E0F516A3E0F593
:101CE8001774012515FBE43516FAAC17900CD7EBE1
:101CF800F0A3EAF0A3ECF08515828516838517F02A
:101D08001221E6FAF582C002C00512197ED005D06C
:101D180002D0028093200403021E26900CECE0FB04
:101D2800C3EA9B4003021E26900CECEBC39AF0908A
:101D38000CECE0FA8A031A900CECEAF0BB00030200
:101D48001E21758220C00212197ED00280E6900CF6
:101D5800E8E0FB24FDF8900CE8F086030886040808
:101D680086071818900CD7EBF0A3ECF0A3EFF090CF
:101D78000CD9E0FB247F5008900CEF7443F08020CE
:101D8800EB249F5008900CEF7450F08013EB24BFA5
:101D98005008900CEF7449F08006900CEF7458F0DE
:101DA800900CEFE0FBF582C00312197ED003758218
:101DB8003AC00312197ED003758230C00312197E0F
:101DC800D003758278C00312197ED003BB49028004
:101DD8000FBB5002800A900CD8E0FBF5821219E87C
:101DE800900CD7E0FBF5821219E88032D208900CEB
:101DF800EB740AF08028900CEB7408F08020900CAB
:101E0800EB740AF08018900CEB7410F08010D20B71
:101E1800800C8E8212197E8005900CECEAF0300B53
:101E28006B900CE8E0FA24FCF8900CE8F0860208C5
:101E38008603088604088606181818900CD7EAF056
:101E4800A3EBF0A3ECF0A3EEF0900CD77474F0A31E
:101E58007429F0A37480F0900CD7E0FBA3E0FCA3F6
:101E6800E0FD74012BFEE43CFF8D02900CD7EEF0F0
:101E7800A3EFF0A3EAF08B828C838DF01221E6FAAF
:101E88007003021A988A8212197E80CB900CEBE0BC
:101E9800FABA0003021A98900CF674F5F0A3740CC1
:101EA800F030094C900CE8E0FA14F8900CE8F08651
:101EB80002EA3395E0FBFCFE900CD7EAF0A3EBF0C6
:101EC800A3ECF0A3EEF0300803021F6E900CD7E0ED
:101ED800FAA3E0FBA3E0FCA3E0FE7B007C007E000D
:101EE800900CD7EAF0A3EBF0A3ECF0A3EEF0807629
:101EF800300A2A900CE8E0FA24FCF8900CE8F08606
:101F080002088603088604088606181818900CD755
:101F1800EAF0A3EBF0A3ECF0A3EEF08049900CE814
:101F2800E0FA24FEF8900CE8F0860208860318EB25
:101F38003395E0FCFE900CD7EAF0A3EBF0A3ECF0AD
:101F4800A3EEF0200820900CD7E0FAA3E0FBA3E072
:101F5800FCA3E0FE7C007E00900CD7EAF0A3EBF037
:101F6800A3ECF0A3EEF030083E900CD7E0FAA3E023
:101F7800FBA3E0FCA3E0FE30E72B900CD7E0FAA32C
:101F8800E0FBA3E0FCA3E0FEC3E49AFAE49BFBE4D5
:101F98009CFCE49EFE900CD7EAF0A3EBF0A3ECF0D7
:101FA800A3EEF08002C208D20C900CEBE0FC75188E
:101FB800F575190C7D00900CDBE4F08C82C004C030
:101FC80005121A08D005D004200C32C004900CDB8E
:101FD800E0FFC4FF851882851983E0FA4207851857
:101FE80082851983EFF0151874FFB518021519903A
:101FF8000CF6E518F0A3E519F0D004800C900CDB82
:10200800E0FF851882851983F00D900CEEEDF0B293
:102018000C900CD7E0FFA3E0FAA3E0FEA3E0FBEFEF
:102028004A4E4B7091900CF6E518F0A3E519F09024
:102038000CEEEDF0900CECE0FA7006900CEC7401EC
:10204800F020052720042474012DFA900CECE0FB05
:10205800C3EA9B5011758220C002C00312197ED0BA
:1020680003D0021B80EA900CECEBF030081275826A
:102078002D12197E900CECE0FA14900CECF0802FE5
:10208800900CEEE0FA602830061275822B12197E49
:10209800900CECE0FA14900CECF0801330071075FB
:1020A800822012197E900CECE0FA14900CECF020CF
:1020B800042F900CEEE0FA900CECE0FB8B041B90E4
:1020C8000CECEBF0C3EA9C50363005047C308002FF
:1020D8007C208C82C002C00312197ED003D00280FB
:1020E800DB900CECE0FA900CEEE0FCC39A500990FF
:1020F8000CECEAC39CF0800C900CECE4F0800590AA
:102108000CECEBF0900CF6E0FAA3E0FB900CEEE0A0
:10211800FC8C061CEE6040B20C200C150ABA0001BB
:102128000B8A828B83E0FEC4540FFE900CDBF08098
:102138000E8A828B83E0FE53060F900CDBEEF09044
:102148000CDBE0FEF582C002C003C0041219C6D041
:1021580004D003D00280BA200403021A98900CEC31
:10216800E0FA8A031AEB7003021A98758220C002FB
:1021780012197ED00280EB8D8212197E021A989075
:0B2188000CDCE0FAA3E08A82F5832261
:0B2974003C4E4F20464C4F41543E00AB
:10219300AAF0AB83E582900CF8F0A3EBF0A3EAF08E
:1021A3007A007B00900CF8E0FCA3E0FDA3E0FE8C3A
:1021B300828D838EF01221E6FFA3AC82AD83900C57
:1021C300F8ECF0A3EDF0A3EEF0EF60070ABA00DF3E
:1021D3000B80DC900CF8ECF0A3EDF0A3EEF08A8218
:0321E3008B8322C9
:0D00030075813612006AE582600302006517
:1021E60020F71430F6148883A88220F507E6A88322
:1021F60075830022E280F7E49322E022AA82AB8371
:10220600ACF0FD900CFFEAF0A3EBF0A3ECF0A3ED2D
:10221600F0900D03E4F0900CFFE0FAA3E0FBA3E0DE
:10222600FCA3E0FD7E00900CFBE0F51AA3E0F51B95
:10223600A3E0F51CA3E0F51DE51D235401FF70780E
:10224600C006E51A25E0FFE51B33F8E51C33F9E582
:102256001D33FE900CFBEFF0A3E8F0A3E9F0A3EE2C
:10226600F0900CFBE0F51AA3E0F51BA3E0F51CA328
:10227600E0F51DC3EA951AEB951BEC951CED951D33
:10228600E433D0066029E51DC313F51DE51C13F5DF
:102296001CE51B13F51BE51A13F51A900CFBE51A42
:1022A600F0A3E51BF0A3E51CF0A3E51DF080090EE5
:1022B600900D03EEF002222C900D03E0FA900CFF35
:1022C600E0FBA3E0FCA3E0FDA3E0FE900CFBE0F541
:1022D6001AA3E0F51BA3E0F51CA3E0F51DC3EB95DF
:1022E6001AEC951BED951CEE951D4017900CFFEB17
:1022F600C3951AF0EC951BA3F0ED951CA3F0EE9593
:102306001DA3F0900CFBE0FBA3E0FCA3E0FDA3E023
:10231600FEC313FEED13FDEC13FCEB13FB900CFB5D
:10232600F0A3ECF0A3EDF0A3EEF08A031AEB708DA8
:10233600900CFFE0FAA3E0FBA3E0FCA3E0FD8A8299
:102346008B838CF022AA82AB83ACF0FD900D08EA59
:10235600F0A3EBF0A3ECF0A3EDF0900D0CE4F0A3EA
:10236600F0A3F0A3F0900D04E0FAA3E0FBA3E0FCD9
:10237600A3E0FD751A20900D08E0FFA3E0F8A3E0A6
:10238600F9A3E0FE33920DEF2FFFE833F8E933F9B6
:10239600EE33FE900D08EFF0A3E8F0A3E9F0A3EE0C
:1023A600F0900D0CE0FEA3E0FFA3E0F8A3E0F9EE49
:1023B6002EFEEF33FFE833F8E933F9900D0CEEF01B
:1023C600A3EFF0A3E8F0A3E9F0300D1E900D0CE0AA
:1023D600FFA3E0F8A3E0F9A3E0FE900D0C74014F13
:1023E600F0A3E8F0A3E9F0A3EEF0900D0CE0FEA355
:1023F600E0FFA3E0F8A3E0F9C3EE9AEF9BE89CE9BF
:102406009D4031900D0CEEC39AF0EF9BA3F0E89C33
:10241600A3F0E99DA3F0900D08E0FEA3E0FFA3E082
:10242600F8A3E0F9900D0874014EF0A3EFF0A3E8CD
:10243600F0A3E9F0D51A02800302237C900D08E090
:10244600FAA3E0FBA3E0FCA3E0FD8A828B838CF079
:1024560022E582900D10F0900D10E0FABA6100406E
:0E24660009EA24854004758201227582002255
:00000001FF
