:03000000020003F8
:1000620002006512007E80FE438E0C758920758D1C
:10007200FA759850D28ED29990000022900A0C7490
:10008200C4F0A37409F090000212070C7446C0E099
:100092007419C0E07480C0E0120E19158115811523
:1000A2008112056DAA82AB83ACF0C002C003C0040A
:1000B2001205F0D004D003D0029009FAE4F0A3F0C4
:1000C2007D007E00ED2AFFEE3BF88C018F82888353
:1000D20089F01216B8FF605EC002C003C004900926
:1000E200FAE0F8A3E0F9900A19740AF0E4A3F088A0
:1000F200828983C002C003C004C005C006C00712C3
:1001020009EAA882A983D007D006D005D004D0037B
:10011200D002EF3395E0FAEF24D0FFEA34FFFA90F1
:1001220009FAEF28F0EA39A3F00DBD00010ED00460
:10013200D003D002808E9009FAE0FAA3E0FBC0025D
:10014200C003C002C0037487C0E07419C0E07480A9
:10015200C0E0120E19E58124FBF581D003D00274B0
:10016200075AFC7D00BC0005BD0002800302008E20
:10017200C3EA9420EB9400500302008EC374609A89
:1001820074099B500302008E8A828B8312078DAA08
:1001920082AB83EA4B7034C002C0037499C0E0742E
:1001A20019C0E07480C0E0120A0A15811581158118
:1001B200D003D0028A048B057E008C828D838EF060
:1001C200C002C0031206B9D003D0029009FAE0FCC3
:1001D200A3E0FD8C828D83C002C00312078DAC8226
:1001E200AD83D003D002EC4D7063C002C003C004E3
:1001F200C00574CEC0E07419C0E07480C0E0120E75
:1002020019158115811581D005D004D003D0028C37
:10021200068D0778008E828F8388F0C002C003C0EB
:1002220004C0051206B9D005D004D003D0028A0654
:100232008B0778008E828F8388F0C002C003C004CF
:10024200C0051206B9D005D004D003D002EA4B7023
:100252000302008EEC4D700302008EC002C00374D4
:1002620003C0E0741AC0E07480C0E0120E19158158
:1002720015811581D003D0027C007D00C002C0032D
:10028200C004C0057413C0E0741AC0E01208E2157D
:10029200811581D005D004D003D002C002C003C0B2
:1002A20004C0051205E6AE82D005D004D003D00208
:1002B2008E82C002C003C004C005C0061205D4D09D
:1002C20006D005D004D003D002C3EE648094E1408E
:1002D2000B74FA8EF063F08095F05013C3EE6480D5
:1002E20094B0404674B98EF063F08095F0403BC004
:1002F20002C003C004C005C0067425C0E0741AC061
:10030200E07480C0E0120A0A158115811581D006B9
:10031200D005D004D003D002EC2AF582ED3BF58360
:10032200EEF00CBC00010D02027EC002C003C0044C
:10033200C005C006743FC0E0741AC0E07480C0E01B
:10034200120A0A158115811581D006D005D004D074
:1003520003D002BE2B028003020545C002C003C0C7
:1003620004C0057459C0E0741AC0E07480C0E01281
:100372000A0A158115811581D005D004D003D00257
:10038200C002C003C004C00512056DAE82AF83A8CF
:10039200F0D005D004D003D0028E828F8388F0C0C3
:1003A20002C003C004C005C006C007C0001205F0A9
:1003B200D000D007D006D005D004D003D0029009D7
:1003C200F8E4F0A3F0E4F508F509C004C005E50877
:1003D2002EF9E5093FFC880589828C838DF012167F
:1003E200B8F50AE50A700474018001E4D005D0046E
:1003F2007069C004C0059009F8E0F9A3E0FC900A16
:1004020019740AF0E4A3F089828C83C002C003C08D
:1004120004C005C006C007C0001209EA85820B8528
:10042200830CD000D007D006D005D004D003D00270
:10043200A90AE50A3395E0FCE924D0F9EC34FFFC83
:100442009009F8E9250BF0EC350CA3F00508E4B5AA
:1004520008020509D005D0040203CC9009F8E0FE99
:10046200A3E0FFC002C003C004C005C006C007C0AD
:1004720006C0077487C0E07419C0E07480C0E0123F
:100482000E19E58124FBF581D007D006D005D004F2
:10049200D003D0028E828F83C002C003C004C00585
:1004A20012078DAE82AF83D005D004D003D002EE06
:1004B2004F705CC004C005C002C003C004C005C0C8
:1004C20006C0077499C0E07419C0E07480C0E012DD
:1004D2000A0A158115811581D007D006D005D004EE
:1004E200D003D0028E008F017C00888289838CF039
:1004F200C002C003C004C005C006C0071206B9D0BE
:1005020007D006D005D004D003D002D005D004C055
:1005120002C003C004C005C006C007748BC0E074EB
:100522001AC0E07480C0E0120A0A15811581158193
:10053200D007D006D005D004D003D002EE4F70030E
:1005420002035DC002C003C004C0057499C0E07418
:100552001AC0E07480C0E0120A0A15811581158163
:10056200D005D004D003D00202027E1205E6E58255
:100572009009FCF07A007B009009FCE0FCBC0D02C3
:100582008029BC00028024EA24C6F582EB3409F5F6
:1005920083ECF00ABA00010BC002C0031205E6E5C3
:1005A20082D003D0029009FCF080CDEA24C6F58205
:1005B200EB3409F583E4F0EA24C6FAEB3409FB7C58
:1005C200008A828B838CF0E41208C99009C675F008
:1005D2000022E5829009FDF03099FD9009FDE0F5D9
:1005E20099C2992210980280FBAA998A8222AAF0C3
:1005F200AB83E5829009FEF0A3EBF0A3EAF0900949
:10060200FEE0FAA3E0FBA3E0FC7D007E00ED2AFF02
:10061200EE3BF88C018F82888389F01216B8FF6056
:10062200208F82C002C003C004C005C0061205D4D8
:10063200D006D005D004D003D0020DBD00CF0E806D
:02064200CC22C8
:10194600456E746572207468652062756666657298
:101956002073697A65206265747765656E20333217
:1019660020616E64203234303020627974657320D1
:10197600646976697369626C6520627920380D0A3C
:10198600006E756D2076616C75652069732025641F
:101996000D0A006D616C6C6F632062756666657218
:1019A60030206661696C65642C20506C65617365D6
:1019B60020656E746572206120736D616C6C657252
:1019C6002073697A650A0D006D616C6C6F63206225
:1019D600756666657231206661696C65642C205097
:1019E6006C6561736520656E746572206120736D28
:1019F600616C6C65722073697A650A0D006D616CA5
:101A06006C6F63207061737365640A0D00456E74B4
:101A16006572206120636861726163746572004952
:101A26007420697320612073746F72616765206327
:101A360068617261637465720069742069732061FC
:101A460020636F6D6D616E6420636861726163749B
:101A5600657200506C6561736520656E74657220F1
:101A660061206E6577206275666665722073697A95
:101A760065206265747765656E20323020616E641C
:101A860020343030006D616C6C6F6320706173734D
:101A96006564004E6F206D61746368696E672063CC
:101AA6006F6D6D616E6420636861726163746572E7
:021AB6007300BB
:10064400AA83E582900A03F0A3EAF0900A03E0FA91
:10065400A3E0FB4A700490000022EA24FCFAEB3485
:10066400FFFB900A0AE0FCA3E0FD900A05ECF0A36E
:10067400EDF0900A01E4F0A3F0900A05E0FCA3E099
:10068400FD4C6025EAB50406EBB50502801B900A13
:1006940001ECF0A3EDF08C828D83E0FCA3E0FD90EF
:1006A4000A05ECF0A3EDF080D0900A05E0FAA3E08F
:1006B4008A82F58322AAF0AB83E582900A07F0A32D
:1006C400EBF0A3EAF0900A07E0FAA3E0FBA3E0FC56
:1006D4008A828B83120644AA82AB83EA4B602890F9
:1006E4000A01E0FCA3E0FD4C700B8A828B83A3A378
:1006F400E4F0A3F0228A828B83E0FAA3E0FB8C82ED
:080704008D83EAF0A3EBF02263
:06003200E478FFF6D8FDA2
:100010007900E94400601B7A00901AC3788E75A0BD
:100020000AE493F2A308B8000205A0D9F4DAF27545
:02003000A0FF2F
:10070C00AA83E582900A0EF0A3EAF0900A0EE0FAB2
:10071C00A3E0FB900A10EAF0A3EBF0EA4B702090F8
:10072C000A1074012AF0E43BA3F0900A0CE0FAA33F
:10073C00E0FB1ABAFF011B900A0CEAF0A3EBF09055
:10074C000A10E0FAA3E0FB900A0AEAF0A3EBF0909F
:10075C000A0CE0FCA3E0FDEC2AFCED3BFDEC24FED6
:10076C00FCED34FFFD8A828B83ECF0A3EDF08C82E0
:10077C008D83E4F0A3F08A828B83A3A3E4F0A3F02F
:10078C0022AA83E582900A12F0A3EAF0900A12E002
:10079C00FAA3E0FBC374FB9A74FF9B500490000017
:1007AC0022900A1274042AF0E43BA3F0900A0AE0A7
:1007BC00FAA3E0FB900A14EAF0A3EBF0900A12E023
:1007CC00F517A3E0F518900A14E0FCA3E0FD8C8269
:1007DC008D83E0FEA3E0FF8E008F018C028D03E879
:1007EC00C39AF8E99BF98C828D83A3A3E0FAA3E06A
:1007FC00FBE8C39AF8E99BF9C3E89517E99518400B
:10080C000D900A1674042CF0E43DA3F08023900A9A
:10081C0014EEF0A3EFF0900A14E0FAA3E0FB8A8246
:10082C008B83E0FAA3E0FB4A709C900A16E4F0A3D9
:10083C00F0900A16E0FAA3E0FB4A70030208BD90A0
:10084C000A14E0FAA3E0FB74022AFCE43BFD8C8260
:10085C008D83E0FEA3E0FF4E7013900A12E0F8A324
:10086C00E0F98C828D83E8F0A3E9F08044EE2AFE57
:10087C00EF3BFF8A828B83E0FCA3E0FD8E828F83AB
:10088C00ECF0A3EDF08A828B83EEF0A3EFF0740210
:10089C002EFAE43FFB900A12E0FCA3E0FD8A828B67
:1008AC0083ECF0A3EDF0900A1674042EF0E43FA351
:1008BC00F0900A16E0FAA3E08A82F5832220F71062
:1008CC0030F6118883A88220F507F6A8837583007B
:1008DC0022F280F7F022C011858111E51124FDF878
:1008EC00868318868218E493A324DB600C2425608D
:1008FC00051209CF80F00209E7D2D5E493A3C08397
:10090C00C082B4731486F018868318868218121667
:10091C00B86053A31209CF80F5B46307E618120927
:10092C00CF8043B46417E630E74618E6F42401F6AA
:10093C0008E6F43400F6742D1209CF8033B4782D08
:10094C00868318868218E41209C0E5831209BFE574
:10095C00831209C0E5821209BFE5821209C030D5A5
:10096C000574301209CFD082D0830208F2B475F628
:10097C00E6FA18E6F9187C107D271209AAFF7CE824
:10098C007D031209AAC4F5837C647D001209AA4276
:10099C0083E975F00A84C445F0F582EF80A97B00E9
:1009AC000BC3E99CF9EA9DFA50F61BE92CF9EA3DD8
:1009BC00FAEB22C4540F700320D51FC2D52490D457
:1009CC003440D4C083C082C0F0F582E8C0E0120588
:1009DC00D4D0E0F8D0F0D082D08322D01122AA83D8
:1009EC00AB828BF0900A19E0A4F8A9F08AF0E0A48D
:0E09FC0029F98BF0A3E0A429F583888222223A
:100038007800E84400600A790075A000E4F309D864
:10004800FC788EE8440A600C790B900000E4F0A379
:0A005800D8FCD9FAC200C201C202AE
:100A0A00C011858111E51124FBFAE51124FBF88652
:100A1A00030886040886058B828C838DF01216B82B
:100A2A00FE7003020BF3BE25028003020BDAC20238
:100A3A00C201C200E51124FBF874012BF6E43C085C
:100A4A00F608A605E51124FBF8860308860408863D
:100A5A00058B828C838DF01216B8FFBF680280174F
:100A6A00BF6C26D200E51124FBF874012BF6E43C96
:100A7A0008F608A6058012D202E51124FBF87401D3
:100A8A002BF6E43C08F608A605E51124FBF88603D4
:100A9A000886040886058B828C838DF01216B8FBB3
:100AAA00BB63028022BB64028013BB6F02801DBB42
:100ABA0073028005BB78188009D201801275220A58
:100ACA00800D752210800875220080037522083077
:100ADA000147EA24FDF88802862308862408862529
:100AEA001818AB23AC24AD258B828C838DF012169B
:100AFA00B87003020BE3AB23AC24AD258B828C8345
:100B0A008DF01216B8FB0523E4B5230205248B8267
:100B1A00C0021205D4D00280C9300016EA24FCF8BB
:100B2A00880286260886270886280886291818181B
:100B3A008030300215EA14F888028603EBF5263372
:100B4A0095E0F527F528F5298018EA24FEF88802A9
:100B5A008603088604188B26ECF5273395E0F528DA
:100B6A00F529E522605DAB26AC27AD28AF29900AAE
:100B7A0043742AF0A3E4F0A37440F0900A46E522F5
:100B8A00F08B828C838DF0EFC002120D30D002758B
:100B9A00232A752400752540AB23AC24AD258B820E
:100BAA008C838DF01216B8FB0523E4B523020524C5
:100BBA008B36BB00028022853682C0021205D4D051
:100BCA000280D5AB268B82C0021205D4D0028009DE
:100BDA008E82C0021205D4D002E51124FBF87401FA
:100BEA0026F6E40836F6020A14D01122AA82AB834A
:100BFA00ACF0FD900A1FEAF0A3EBF0A3ECF0A3ED32
:100C0A00F0900A1EE0FA7B201BEB2423FCE4340A52
:100C1A00FD900A1FE0FEA3E0FFA3E0F8A3E0F98A33
:100C2A000D750E00750F00751000900A78E50DF02D
:100C3A00A3E50EF0A3E50FF0A3E510F08E828F83F3
:100C4A0088F0E9C002C003C004C0051216D4AE82FF
:100C5A00AF83A8F0F9D005D004D003D00274302EA7
:100C6A00FE8C828D83F08C828D83E0FEC374B98EF4
:100C7A00F063F08095F0500F8C828D83E0FE74074C
:100C8A002EFE8C828D83F0900A1FE0FCA3E0FDA368
:100C9A00E0FEA3E0FF900A81E50DF0A3E50EF0A3C4
:100CAA00E50FF0A3E510F08C828D838EF0EFC00281
:100CBA00C00312181DAC82AD83AEF0FFD003D00280
:100CCA00900A1FECF0A3EDF0A3EEF0A3EFF0900A68
:100CDA001FE0FCA3E0FDA3E0FEA3E0FFBC000BBD08
:100CEA000008BE0005BF00028003020C128B0290AE
:100CFA000A1BE0FBA3E0FCA3E0FD8A060AEE24231C
:100D0A00F582E4340AF583E0FE8B828C838DF0123F
:100D1A0008C9A3AB82AC83BA200040DE8B828C83E5
:100D2A008DF0E40208C9AA82AB83ACF0FD900A47B1
:100D3A00EAF0A3EBF0A3ECF0A3EDF0900A47E0FA97
:100D4A00A3E0FBA3E0FCA3E0FD30E73F900A46E006
:100D5A00FEBE0A37900A43E0FEA3E0FFA3E0F88E46
:100D6A00828F8388F0742D1208C9900A4374012E69
:100D7A00F0E43FA3F0A3E8F0900A47C3E49AF0E452
:100D8A009BA3F0E49CA3F0E49DA3F0900A47E0FA49
:100D9A00A3E0FBA3E0FCA3E0FD900A43E0FEA3E08E
:100DAA00FFA3E0F8900A46E0F9900A1BEEF0A3EFE1
:100DBA00F0A3E8F0900A1EE9F08A828B838CF0EDAA
:100DCA00020BF6C011858111AA821205D4D0112214
:100DDA00AAF0AB83E582900A4CF0A3EBF0A3EAF009
:100DEA00900A4CE0FAA3E0FBA3E0FC900A4BE0FD7A
:100DFA00900A5FE4F0A3F0A3F0900A62EAF0A3EB92
:100E0A00F0A3ECF0900A65EDF0900DCD020F32C020
:100E1A0011858111E51124FBFA900A5FE4F0A3F031
:100E2A00A3F0E51124FBF8900A62E6F008A3E6F0C5
:100E3A0008A3E6F0900A65EAF0900DCD120F32AAE7
:100E4A0082AB83D01122E582900A5BF0900A5BE0C4
:100E5A00FA900A51E0C0E0A3E0C0E0A3E0C0E07469
:100E6A007EC0E0740EC0E0900A4FE0C0E0A3E0C08C
:100E7A00E08A8222158115811581900A59E0FAA328
:100E8A00E0FB900A5974012AF0E43BA3F022E582C0
:100E9A00900A5CF0900A5CE0FA74302AFA24C65090
:100EAA000A74072AFA3003034302208A82020E5088
:100EBA00E582900A5DF0900A5DE0FAC4540FFBF5F2
:100ECA0082C002120E98D00253020F8A82020E9832
:100EDA00E582900A5EF0900A54E0FAA3E0FBA3E0F0
:100EEA00FCA3E0FD900A58E0FE900A5EE0FF78203D
:100EFA00EE2EFEED235401F94206EA2AFAEB33FB01
:100F0A00EC33FCED33FDC3EE9F4007EEC39FFE4377
:100F1A000201D8DC900A54EAF0A3EBF0A3ECF0A3A8
:100F2A00EDF0900A58EEF022AA83E582900A66F064
:100F3A00A3EAF0900A66E0FAA3E0FB900A4FEAF00F
:100F4A00A3EBF0900A5FE0FAA3E0FBA3E0FC900AAF
:100F5A0051EAF0A3EBF0A3ECF0900A59E4F0A3F005
:100F6A00900A62E0FAA3E0FBA3E0FC8A828B838CFE
:100F7A00F01216B8FD900A6274012AF0E43BA3F05D
:100F8A00A3ECF0ED7003021659BD25028003021688
:100F9A0051C204C205C206C207C208C209C20AC2B5
:100FAA000B900A68E4F0900A69F0900A6A74FFF0FC
:100FBA00900A62E0FAA3E0FBA3E0FC8A828B838CAE
:100FCA00F01216B8FEA3AA82AB83900A62EAF0A3D3
:100FDA00EBF0A3ECF0900A6CEEF0BE25088E8212BC
:100FEA000E50020F6A8E07BF300040498E07EF2469
:100FFA00C64042900A6AE0FFBFFF29C002C003C090
:10100A0004900A69E0FA75F00AA4FAEE24D0900A6C
:10101A00692AF0900A69E0FAD004D003D002709BE2
:10102A00D2058097EF75F00AA4FFEE24D0900A6AE1
:10103A002FF0020FC5900A6CE0FEBE2E08900A6AD5
:10104A00E4F0020FC58E82C002C003C004C00612BB
:10105A001929E58224FF9203D006D004D003D002D6
:10106A00300307900A6C74DF5EF0900A6CE0FEBEF3
:10107A0020028055BE2B02804BBE2D028041BE420B
:10108A0002804BBE43028050BE44030212C6BE46D3
:10109A00030212E8BE49030212C6BE4C028034BEE5
:1010AA004F030212D0BE5003021228BE53028042DE
:1010BA00BE55030212D8BE58030212E00212ECD245
:1010CA0004020FC5D206020FC5D207020FC5D20904
:1010DA00020FC5D20A020FC5900A65E0FA24FEF88B
:1010EA00900A65F08602088603188A82120E500258
:1010FA0012F8900A65E0FA24FDF8900A65F0860273
:10110A000886030886041818900A54EAF0A3EBF03C
:10111A00A3ECF0900A54E0FAA3E0FBA3E0FC8A8275
:10112A008B838CF0121665AA82AB83900A6AE0FB65
:10113A00BBFF05900A6AEAF0200438900A69E0FBCE
:10114A00C3EA9B502E900A69EBC39AF0900A69E0B1
:10115A00FB8B041B900A69EBF0BC000280107582BD
:10116A0020C002C003120E50D003D00280E3900ABE
:10117A0069EBF0900A6AE0FDC002900A54E0FCA311
:10118A00E0FFA3E0FA8C828F838AF01216B8D002AD
:10119A0060538D041DC374808CF063F08095F05009
:1011AA0044C002900A54E0F512A3E0F513A3E0F557
:1011BA001474012512FBE43513FAAC14900A54EBAB
:1011CA00F0A3EAF0A3ECF08512828513838514F06C
:1011DA001216B8FAF582C002C005120E50D005D018
:1011EA0002D00280932004030212F8900A69E0FBFD
:1011FA00C3EA9B40030212F8900A69EBC39AF09083
:10120A000A69E0FA8A031A900A69EAF0BB00030243
:10121A0012F3758220C002120E50D00280E6900AA4
:10122A0065E0FB24FDF8900A65F086030886040849
:10123A0086071818900A54EBF0A3ECF0A3EFF0908D
:10124A000A56E0FB247F5008900A6C7443F0802011
:10125A00EB249F5008900A6C7450F08013EB24BF63
:10126A005008900A6C7449F08006900A6C7458F021
:10127A00900A6CE0FBF582C003120E50D00375820F
:10128A003AC003120E50D003758230C003120E50BA
:10129A00D003758278C003120E50D003BB49028076
:1012AA000FBB5002800A900A55E0FBF582120EBA73
:1012BA00900A54E0FBF582120EBA8032D208900AE4
:1012CA0068740AF08028900A687408F08020900AEE
:1012DA0068740AF08018900A687410F08010D20BB3
:1012EA00800C8E82120E508005900A69EAF0300B4B
:1012FA006B900A65E0FA24FCF8900A65F086020809
:10130A008603088604088606181818900A54EAF014
:10131A00A3EBF0A3ECF0A3EEF0900A5474B8F0A398
:10132A00741AF0A37480F0900A54E0FBA3E0FCA3C3
:10133A00E0FD74012BFEE43CFF8D02900A54EEF0AE
:10134A00A3EFF0A3EAF08B828C838DF01216B8FA21
:10135A007003020F6A8A82120E5080CB900A68E0EC
:10136A00FABA0003020F6A900A737472F0A3740A3D
:10137A00F030094C900A65E0FA14F8900A65F08694
:10138A0002EA3395E0FBFCFE900A54EAF0A3EBF084
:10139A00A3ECF0A3EEF0300803021440900A54E0E4
:1013AA00FAA3E0FBA3E0FCA3E0FE7B007C007E0046
:1013BA00900A54EAF0A3EBF0A3ECF0A3EEF08076E7
:1013CA00300A2A900A65E0FA24FCF8900A65F08649
:1013DA0002088603088604088606181818900A5414
:1013EA00EAF0A3EBF0A3ECF0A3EEF08049900A65D3
:1013FA00E0FA24FEF8900A65F0860208860318EBE4
:10140A003395E0FCFE900A54EAF0A3EBF0A3ECF06B
:10141A00A3EEF0200820900A54E0FAA3E0FBA3E030
:10142A00FCA3E0FE7C007E00900A54EAF0A3EBF0F5
:10143A00A3ECF0A3EEF030083E900A54E0FAA3E0E1
:10144A00FBA3E0FCA3E0FE30E72B900A54E0FAA3EA
:10145A00E0FBA3E0FCA3E0FEC3E49AFAE49BFBE40E
:10146A009CFCE49EFE900A54EAF0A3EBF0A3ECF095
:10147A00A3EEF08002C208D20C900A68E0FC75154F
:10148A007275160A7D00900A58E4F08C82C004C076
:10149A0005120EDAD005D004200C32C004900A5886
:1014AA00E0FFC4FF851582851683E0FA4207851599
:1014BA0082851683EFF0151574FFB515021516907F
:1014CA000A73E515F0A3E516F0D004800C900A58CB
:1014DA00E0FF851582851683F00D900A6BEDF0B258
:1014EA000C900A54E0FFA3E0FAA3E0FEA3E0FBEFAE
:1014FA004A4E4B7091900A73E515F0A3E516F090E9
:10150A000A6BEDF0900A69E0FA7006900A697401B4
:10151A00F020052720042474012DFA900A69E0FBC3
:10152A00C3EA9B5011758220C002C003120E50D02C
:10153A0003D0021B80EA900A69EBF0300812758228
:10154A002D120E50900A69E0FA14900A69F0802F61
:10155A00900A6BE0FA602830061275822B120E5040
:10156A00900A69E0FA14900A69F08013300710753E
:10157A008220120E50900A69E0FA14900A69F0204B
:10158A00042F900A6BE0FA900A69E0FB8B041B9027
:10159A000A69EBF0C3EA9C50363005047C308002BD
:1015AA007C208C82C002C003120E50D003D002806D
:1015BA00DB900A69E0FA900A6BE0FCC39A50099042
:1015CA000A69EAC39CF0800C900A69E4F0800590ED
:1015DA000A69EBF0900A73E0FAA3E0FB900A6BE069
:1015EA00FC8C061CEE6040B20C200C150ABA0001F5
:1015FA000B8A828B83E0FEC4540FFE900A58F08057
:10160A000E8A828B83E0FE53060F900A58EEF09002
:10161A000A58E0FEF582C002C003C004120E98D038
:10162A0004D003D00280BA200403020F6A900A6928
:10163A00E0FA8A031AEB7003020F6A758220C0026D
:10164A00120E50D00280EB8D82120E50020F6A9059
:0B165A000A59E0FAA3E08A82F583221F
:0B1AB8003C4E4F20464C4F41543E0076
:10166500AAF0AB83E582900A75F0A3EBF0A3EAF04C
:101675007A007B00900A75E0FCA3E0FDA3E0FE8CF8
:10168500828D838EF01216B8FFA3AC82AD83900ACB
:1016950075ECF0A3EDF0A3EEF0EF60070ABA00DFFA
:1016A5000B80DC900A75ECF0A3EDF0A3EEF08A82D6
:0316B5008B832202
:0D00030075813612006AE582600302006517
:1016B80020F71430F6148883A88220F507E6A8835B
:1016C80075830022E280F7E49322E022AA82AB83AA
:1016D800ACF0FD900A7CEAF0A3EBF0A3ECF0A3EDEC
:1016E800F0900A80E4F0900A7CE0FAA3E0FBA3E023
:1016F800FCA3E0FD7E00900A78E0F517A3E0F5185A
:10170800A3E0F519A3E0F51AE51A235401FF707850
:10171800C006E51725E0FFE51833F8E51933F9E5C4
:101728001A33FE900A78EFF0A3E8F0A3E9F0A3EEED
:10173800F0900A78E0F517A3E0F518A3E0F519A3EF
:10174800E0F51AC3EA9517EB9518EC9519ED951A7B
:10175800E433D0066029E51AC313F51AE51913F521
:1017680019E51813F518E51713F517900A78E51712
:10177800F0A3E518F0A3E519F0A3E51AF080090E27
:10178800900A80EEF00216FE900A80E0FA900A7C39
:10179800E0FBA3E0FCA3E0FDA3E0FE900A78E0F5FF
:1017A80017A3E0F518A3E0F519A3E0F51AC3EB9524
:1017B80017EC9518ED9519EE951A4017900A7CEBE1
:1017C800C39517F0EC9518A3F0ED9519A3F0EE95D5
:1017D8001AA3F0900A78E0FBA3E0FCA3E0FDA3E0E5
:1017E800FEC313FEED13FDEC13FCEB13FB900A781C
:1017F800F0A3ECF0A3EDF0A3EEF08A031AEB708DE2
:10180800900A7CE0FAA3E0FBA3E0FCA3E0FD8A8257
:101818008B838CF022AA82AB83ACF0FD900A85EA18
:10182800F0A3EBF0A3ECF0A3EDF0900A89E4F0A3A9
:10183800F0A3F0A3F0900A81E0FAA3E0FBA3E0FC98
:10184800A3E0FD751720900A85E0FFA3E0F8A3E068
:10185800F9A3E0FE33920DEF2FFFE833F8E933F9EF
:10186800EE33FE900A85EFF0A3E8F0A3E9F0A3EECB
:10187800F0900A89E0FEA3E0FFA3E0F8A3E0F9EE08
:101888002EFEEF33FFE833F8E933F9900A89EEF0DA
:10189800A3EFF0A3E8F0A3E9F0300D1E900A89E069
:1018A800FFA3E0F8A3E0F9A3E0FE900A8974014FD2
:1018B800F0A3E8F0A3E9F0A3EEF0900A89E0FEA314
:1018C800E0FFA3E0F8A3E0F9C3EE9AEF9BE89CE9F8
:1018D8009D4031900A89EEC39AF0EF9BA3F0E89CF3
:1018E800A3F0E99DA3F0900A85E0FEA3E0FFA3E042
:1018F800F8A3E0F9900A8574014EF0A3EFF0A3E88D
:10190800F0A3E9F0D51702800302184E900A85E08B
:10191800FAA3E0FBA3E0FCA3E0FD8A828B838CF0B2
:1019280022E582900A8DF0900A8DE0FABA610040B3
:0E19380009EA2485400475820122758200228E
:00000001FF
