:03000000020003F8
:1000620002006512007E80FE438E0C758920758D1C
:10007200FA759850D28ED299900000229009F874A5
:1000820002F0E4A3F09009FC7402F0E4A3F0900CF7
:100092008F74C4F0A37409F0900002121264749E6B
:1000A200C0E07424C0E07480C0E01219711581159B
:1000B200811581120F98AA82AB83ACF0C002C003F3
:1000C200C00412101BD004D003D002900C77E4F0CD
:1000D200A3F07D007E00ED2AFFEE3BF88C018F82BB
:1000E200888389F0122210FF6031C3EF648094B0DC
:1000F200401274B98FF063F08095F040070DBD0097
:10010200D50E80D274DFC0E07424C0E07480C0E0F9
:100112001215621581158115818083900D11E4F00D
:10012200A3F07D007E00ED2AFFEE3BF88C018F826A
:10013200888389F0122210FF605EC002C003C004EF
:10014200900D11E0F8A3E0F9900C9C740AF0E4A37E
:10015200F088828983C002C003C004C005C006C003
:1001620007121542A882A983D007D006D005D00471
:10017200D003D002EF3395E0FAEF24D0FFEA34FF48
:10018200FA900D11EF28F0EA39A3F00DBD00010E2F
:10019200D004D003D002808E900D11E0C0E0A3E025
:1001A200C0E074F7C0E07424C0E07480C0E01219AB
:1001B20071E58124FBF581900D11E0FAA3E0FB7457
:1001C200075AFC7D00BC0005BD000280030200A0AE
:1001D200C3EA9420EB940050030200A0C374609A17
:1001E20074099B50030200A08A828B831212E5AA33
:1001F20082AB83EA4B7034C002C0037409C0E0745E
:1002020025C0E07480C0E012156215811581158148
:10021200D003D0028A048B057E008C828D838EF0FF
:10022200C002C003121211D003D002900D11E0FCE3
:10023200A3E0FD8C828D83C002C0031212E5858289
:100242000A85830BD003D002E50A450B704BC0022E
:10025200C003743EC0E07425C0E07480C0E012198F
:1002620071158115811581D003D002AE0AAF0B78CA
:10027200008E828F8388F0C002C003121211D00355
:10028200D0028A068B0778008E828F8388F0C002A4
:10029200C003121211D003D002EA4B70030200A075
:1002A200E50A450B70030200A0C002C0037473C0CC
:1002B200E07425C0E07480C0E012197115811581C7
:1002C2001581D003D0028A068B0778009009FEEED2
:1002D200F0A3EFF0A3E8F0AE0AAF0B7800900A01AA
:1002E200EEF0A3EFF0A3E8F0900D11E0FEA3E0FF23
:1002F200900B75EEF0A3EFF0900B77EEF0A3EFF01A
:10030200900C71E4F0A3F0E4F50EF50FC002C00307
:100312007483C0E07425C0E012143A15811581D0AF
:1003220003D002C002C003121011A882D003D0026F
:100332008882C002C003C000120FFFD000D003D0D9
:1003420002C002C003C0007497C0E07425C0E0740C
:1003520080C0E0121971158115811581D000D0037A
:10036200D002C3E8648094E1400B74FA88F063F031
:100372008095F0501AC3E8648094B0500302045987
:10038200C374B988F063F08095F05003020459C039
:1003920002C003C000749AC0E07425C0E07480C03B
:1003A200E0121562158115811581D000D003D002AB
:1003B200900B75E0F9A3E0FC19B9FF011C900C71D8
:1003C200E0FDA3E0FEC3E99DEC9E504DC002C003D8
:1003D200C00074B6C0E07425C0E07480C0E0121999
:1003E20071158115811581D000D003D0028882C099
:1003F20002C003120FFFD003D002C002C0037497E1
:10040200C0E07425C0E07480C0E012197115811536
:10041200811581D003D0028028ED2AF582EE3BF5CA
:1004220083E8F0900C7174012DF0E43EA3F0900C7F
:1004320077E0F9A3E0FC900C77740129F0E43CA387
:10044200F0900C79E0FCA3E0FD900C7974012CF0A3
:10045200E43DA3F002030EC002C003C00074C8C092
:10046200E07425C0E07480C0E01215621581158128
:100472001581D000D003D002050EE4B50E02050F9F
:10048200900C79E0FCA3E0FD900C7974012CF0E46F
:100492003DA3F0B82B02801BB82D030207CCB83D58
:1004A20003020DDDB83F0302093FB84003020EE22A
:1004B200020F78C002C00374E4C0E07425C0E07487
:1004C20080C0E0121562158115811581D003D0021A
:1004D200C002C003120F98AC82AD83A8F0D003D043
:1004E200028C828D8388F0C002C003C004C005C0A4
:1004F2000012101BD000D005D004D003D002900C03
:1005020075E4F0A3F0E4F508F509E5082CF9E5092E
:100512003DFE880789828E838FF0122210FEE4BE90
:10052200000104703DC3EE648094B0401574B98E2E
:10053200F063F08095F0400A0508E4B508CC05099F
:1005420080C8C002C00374DFC0E07424C0E07480BD
:10055200C0E0121562158115811581D003D0020207
:1005620004B5E4F508F509E5082CF9E5093DFE882E
:100572000789828E838FF0122210FFE4BF000104EC
:10058200705A900C75E0F9A3E0FE900C9C740AF08E
:10059200E4A3F089828E83C002C003C004C005C0F8
:1005A20007C00012154285820C85830DD000D0074A
:1005B200D005D004D003D002EFF93395E0FEE92450
:1005C200D0F9EE34FFFE900C75E9250CF0EE350DF6
:1005D200A3F00508E4B5088F0509808B900C75E03F
:1005E200FCA3E0FDC002C003C004C005C004C005F6
:1005F20074F7C0E07424C0E07480C0E0121971E5A1
:100602008124FBF581D005D004D003D002C3741439
:100612009CE49D40030204B5C3EC9490ED94014028
:10062200030204B59009F8E0F8A3E0F9900C9C7479
:1006320003F0E4A3F088828983C002C003C004C02F
:1006420005121542A882A983D005D004D003D00296
:10065200E824FEF8E93409F98C828D83C002C003D4
:10066200C000C00112106FAC82AD83AEF0D001D0D9
:1006720000D003D00288828983ECF0A3EDF0A3EED0
:10068200F09009F8E0FFA3E0F8900C9C7403F0E40A
:10069200A3F08F828883C002C003C007C000121576
:1006A20042AC82AD83D000D007D003D002EC24FE4E
:1006B200F582ED3409F583E0FCA3E0FDA3E0FEEC56
:1006C2004D4E7068C002C003C007C0007418C0E07D
:1006D2007426C0E07480C0E0121562E58124FBF547
:1006E20081D003D0029009F8E0FCA3E0FD900C9CBD
:1006F2007403F0E4A3F08C828D83C002C003121550
:1007020042AC82AD83D003D002EC24FEF582ED34FC
:1007120009F583E0FCA3E0FDA3E0F88C828D8388D9
:10072200F0C002C003121211D003D0029009F8E007
:10073200FCA3E0FD900C9C7403F0E4A3F08C828D8A
:1007420083C002C003C004C005121542A882A98357
:10075200D005D004D003D002E824FEF582E93409A2
:10076200F583E0F8A3E0F9A3E0FEE8494E70030246
:1007720004B5C002C003C004C005744EC0E07426B4
:10078200C0E07480C0E0121562E58124FBF581D0DF
:1007920003D0029009F8E0FCA3E0FD8C06CE25E030
:1007A200CE33FFEE2475FEEF340BFF900C75E0F8AC
:1007B200A3E0F98E828F83E8F0A3E9F09009F87440
:1007C200012CF0E43DA3F002030EC002C0037469E1
:1007D200C0E07426C0E07480C0E012156215811575
:1007E200811581D003D002C002C003121011AC8265
:1007F200D003D0028C82C002C003C004120FFFD00B
:1008020004D003D002EC3395E0FDEC24D0FCED34AF
:10081200FFFD9009FAECF0A3EDF09009FCE0FEA3D5
:10082200E0FF1EBEFF011FC3EE9CEF9D5020C002E1
:10083200C0037469C0E07426C0E07480C0E0121581
:1008420062158115811581D003D00202030EEC4D91
:100852007020C002C0037487C0E07426C0E07480B8
:10086200C0E0121562158115811581D003D00202F4
:10087200030E900C9C7403F0E4A3F08C828D83C071
:1008820002C003C004C005121542AE82AF83D00578
:10089200D004D003D002EE24FEF582EF3409F583B2
:1008A200E4F0A3F0A3F0C002C003C004C00574B218
:1008B200C0E07426C0E07480C0E0121562E58124B5
:1008C200FBF581D003D0029009FAE0FCA3E0FD9091
:1008D2000C9C7403F0E4A3F08C828D83C002C003ED
:1008E200121542AC82AD83D003D002EC24FEF58215
:1008F200ED3409F583E0FCA3E0FDA3E0FE8C828DDC
:10090200838EF0C002C003121211D003D0029009EC
:10091200FAE0FCA3E0FD8C828D83C002C0031210BA
:10092200CAD003D0029009F8E0FCA3E0FD1CBCFF92
:10093200011D9009F8ECF0A3EDF002030EC002C015
:1009420003900C77E0C0E0A3E0C0E074C3C0E074A1
:1009520026C0E07480C0E0121562E58124FBF581B7
:10096200D003D002C002C003C00EC00F74E9C0E0C1
:100972007426C0E07480C0E0121562E58124FBF5A4
:1009820081D003D002C002C0039009FCE0C0E0A302
:10099200E0C0E0740FC0E07427C0E07480C0E012D1
:1009A2001562E58124FBF581D003D002C002C003A9
:1009B2007432C0E07427C0E07480C0E01215621582
:1009C2008115811581D003D002900C6FE4F0A3F061
:1009D200900C6FE0FCA3E0FD9009FCE0FEA3E0FFB9
:1009E200C3EC9EED9F503E74012CFEE43DFFC0021D
:1009F200C003C006C007C004C005C006C0077457C4
:100A0200C0E07427C0E07480C0E0121562E5812462
:100A1200F9F581D007D006D003D002900C6FEEF02A
:100A2200A3EFF080ABC002C0037467C0E07427C0BC
:100A3200E07480C0E0121562158115811581D00322
:100A4200D002E4F510F5119009FCE0FEA3E0FFC32B
:100A5200E5109EE5119F4003020DACC002C003C029
:100A620002C003C010C011748BC0E07427C0E074D0
:100A720080C0E0121562E58124FBF581D003D0022B
:100A8200E51025E0FCE51133FDEC2475F582ED342B
:100A92000BF583E0F8A3E0F9C002C003C004C0056F
:100AA200C000C001C010C011749EC0E07427C0E035
:100AB2007480C0E0121562E58124F9F581D005D079
:100AC20004D003D002900C9C7403F0E4A3F08510D0
:100AD20082851183C002C003C004C005121542A85A
:100AE20082A983D005D004D003D002E824FEF58287
:100AF200E93409F583E0FAA3E0FBA3E0FEC002C0FB
:100B020003C004C005C000C001C002C003C010C0C1
:100B12001174B7C0E07427C0E07480C0E01215629F
:100B2200E58124F9F581D001D000D005D004D003AD
:100B3200D002E824FEF582E93409F583E0FAA3E065
:100B4200FBA3E0FEEC2475F582ED340BF583E0FEA9
:100B5200A3E0FFEE2AFAEF3BFBC002C003C000C0D5
:100B620001C002C003C010C01174DCC0E07427C011
:100B7200E07480C0E0121562E58124F9F581D001AC
:100B8200D000D003D002D003D002AE10AF11E824BF
:100B9200FEFCE93409FDE4F50CF50DC006C0078C36
:100BA200828D83E0FEA3E0FFA3E0F8E50C2EFEE5D4
:100BB2000D3FFF8E828F8388F0122210FEE4BE006A
:100BC2000104D007D006700A050CE4B50CCD050D62
:100BD20080C9C002C003C006C007C00CC00D74FFAC
:100BE200C0E07427C0E07480C0E0121562E5812481
:100BF200FBF581D007D006D003D0028E00EFC825C6
:100C0200E0C833F9E82475F582E9340BF583E0F89E
:100C1200A3E0F9E8C3950CF8E9950DF9C002C00309
:100C2200C006C007C000C001C006C0077415C0E0FE
:100C32007428C0E07480C0E0121562E58124F9F5E1
:100C420081D007D006D003D002EE4F6003020D80A0
:100C5200900C73E4F0A3F0900C77E0F8A3E0F9C0F5
:100C620002C003C000C001C000C001C006C00774BA
:100C720034C0E07428C0E07480C0E0121562E581DF
:100C820024F9F581D001D000D003D002B80005B913
:100C92000002801DC002C0037466C0E07428C0E078
:100CA2007480C0E0121562158115811581D003D0C0
:100CB20002900C77E0F8A3E0F9900C73E0FCA3E05B
:100CC200FDC3EC98ED994003020D538C06E4F50840
:100CD200F509C000C001EE2AF8ED3BF9888289834C
:100CE200E0FCF582C002C003C005C006C000C0011E
:100CF200120FFFD001D000D006D005D003D0028859
:100D0200828983E4F00EBE00010D0508E4B50802F5
:100D12000509C3E5089420E5099400D001D00040FC
:100D2200B1900C73EEF0A3EDF0C002C003C000C09E
:100D3200017497C0E07425C0E07480C0E0121562AF
:100D4200158115811581D001D000D003D002020C8B
:100D5200BBC002C0037484C0E07428C0E07480C0C9
:100D6200E0121562158115811581D003D002900C15
:100D720077E4F0A3F0900C71E4F0A3F08021C002BC
:100D8200C003C006C007749DC0E07428C0E0748030
:100D9200C0E0121562E58124FBF581D003D0020583
:100DA20010E4B510020511020A49C002C003900CFA
:100DB20079E0C0E0A3E0C0E074CBC0E07428C0E0FA
:100DC2007480C0E0121971E58124FBF581D003D053
:100DD20002900C79E4F0A3F002030EC002C0037487
:100DE20008C0E07429C0E07480C0E0121562158169
:100DF20015811581D003D002900C77E0FCA3E0FDB1
:100E02004C7017C002C0037426C0E07429C0E012FF
:100E1200143A15811581D003D002900C77E0FCA31F
:100E2200E0FD7E007F00C3EE9CEF9D400302030EB7
:100E3200EE540F7064C002C003C004C005C006C0F7
:100E4200077497C0E07425C0E07480C0E012156298
:100E5200158115811581D007D006D005D004D003A5
:100E6200D002EE2AF8EF3BF9C002C003C004C0056D
:100E7200C006C007C000C0017453C0E07429C0E0BE
:100E82007480C0E0121971E58124FBF581D007D08E
:100E920006D005D004D003D002EE2AF582EF3BF54E
:100EA20083E0F83395E0F9C002C003C004C005C076
:100EB20006C007C000C0017459C0E07429C0E074C4
:100EC20080C0E0121971E58124FBF581D007D006BC
:100ED200D005D004D003D0020EBE00010F020E28AE
:100EE2007C007D009009FCE0FEA3E0FFC3EC9EEDD8
:100EF2009F5062900C9C7403F0E4A3F08C828D836B
:100F0200C002C003C004C005121542AE82AF83D036
:100F120005D004D003D002EE24FEFEEF3409FF8E8A
:100F2200828F83E4F0A3F0A3F08E828F83E0FEA38E
:100F3200E0FFA3E0F88E828F8388F0C002C003C076
:100F420004C005121211D005D004D003D0020CBC8B
:100F520000920D808F8A048B057E008C828D838E99
:100F6200F0121211AC0AAD0B7E008C828D838EF0D2
:100F72001212110200A0C002C003745FC0E0742903
:100F8200C0E07480C0E0121562158115811581D010
:100F920003D00202030E121011E582900C7BF07A4C
:100FA200007B00900C7BE0FCBC0D028029BC00029F
:100FB2008024EA24C6F582EB3409F583ECF00ABA00
:100FC20000010BC002C003121011E582D003D0024F
:100FD200900C7BF080CDEA24C6F582EB3409F583D0
:100FE200E4F0EA24C6FAEB3409FB7C008A828B83A4
:100FF2008CF0E41214219009C675F00022E582906B
:101002000C7CF03099FD900C7CE0F599C29922108D
:10101200980280FBAA998A8222AAF0AB83E5829089
:101022000C7DF0A3EBF0A3EAF0900C7DE0FAA3E0D4
:10103200FBA3E0FC7D007E00ED2AFFEE3BF88C0175
:101042008F82888389F0122210FF60208F82C00273
:10105200C003C004C005C006120FFFD006D005D0E1
:1010620004D003D0020DBD00CF0E80CC22AA83E5AE
:1010720082900C80F0A3EAF0900C80E0FAA3E0FBEF
:101082008A828B831212E5AA82AB837C00C002C0E3
:1010920003C0047480C0E07429C0E07480C0E01210
:1010A2001562158115811581D004D003D0029009F3
:1010B200FCE0FDA3E0FE9009FC74012DF0E43EA3E8
:1010C200F08A828B838CF022AA83E582900C82F0D4
:1010D200A3EAF0900C82E0FAA3E0FB9009FCE0FCAA
:1010E200A3E0FD1CBCFF011DC3EA9CEB9D40030273
:1010F2001171900C9C7403F0E4A3F08A828B83C07C
:1011020002C003121542AC82AD83D003D002EC249C
:10111200FEFCED3409FD8A060EEE75F003A424FEF2
:10112200F582740935F0F583E0FFA3E0F8A3E0F956
:101132008C828D83EFF0A3E8F0A3E9F08A04EBCC74
:1011420025E0CC33FDEC2475FCED340BFDEE2EFED8
:101152002475F582E4340BF583E0FEA3E0FF8C8274
:101162008D83EEF0A3EFF00ABA00010B0210DD74DA
:1011720091C0E07429C0E07480C0E012156215814C
:10118200158115819009FCE0FAA3E0FB1ABAFF0170
:0A1192001B9009FCEAF0A3EBF02229
:10249E00456E746572207468652062756666657235
:1024AE002073697A65206265747765656E203332B4
:1024BE0020616E642032343030206279746573206E
:1024CE00646976697369626C6520627920380D0AD9
:1024DE0000506C6561736520656E746572206120B5
:1024EE006E756D6265720D0A006E756D2076616C8B
:1024FE0075652069732025640D0A006D616C6C6F23
:10250E00632062756666657230206661696C65640B
:10251E002C20506C6561736520656E746572206148
:10252E0020736D616C6C65722073697A650A0D009B
:10253E006D616C6C6F6320627566666572312066C4
:10254E0061696C65642C20506C6561736520656EE5
:10255E00746572206120736D616C6C657220736995
:10256E007A650A0D006D616C6C6F63207061737318
:10257E0065640A0D00456E746572206120636861A2
:10258E007261637465720A0D000D0A004974206948
:10259E007320612073746F72616765206368617266
:1025AE0061637465720A0D0042756666657230204D
:1025BE0069732066756C6C0D0A006974206973204E
:1025CE006120636F6D6D616E64206368617261631B
:1025DE007465720A0D00506C6561736520656E74CA
:1025EE0065722061206E6577206275666665722061
:1025FE0073697A65206265747765656E2032302066
:10260E00616E64203430300A0D006D616C6C6F6346
:10261E00206275666665722564206661696C656404
:10262E002C20506C6561736520656E746572206137
:10263E0020736D616C6C65722073697A650A0D008A
:10264E006D616C6C6F632070617373656420666F6F
:10265E007220627566666572256400456E746572D9
:10266E0020612076616C69642062756666657220F1
:10267E006E756D6265720A0D00456E74657220612D
:10268E002076616C696420627566666572206E756F
:10269E006D626572206F74686572207468616E2059
:1026AE00300A0D0042756666657225642064656C9D
:1026BE0065746564004E756D626572206F66207379
:1026CE00746F7261676520636861726163746572AD
:1026DE0073206172652025640D0A004E756D62656A
:1026EE0072206F6620636F6D6D616E64206368612A
:1026FE0072616374657273206172652025640D0AC0
:10270E0000546865726520617265202564206275CB
:10271E00666665727320696E2074686520686561EF
:10272E00700D0A00546865206275666665727320C6
:10273E0063757272656E746C7920696E206865615E
:10274E0070206172653A0D0A005B25645D2062752A
:10275E006666657225640D0A005265706F7274208C
:10276E006F662065616368206275666665722069B2
:10277E006E2074686520686561700D0A004275668A
:10278E006665722564207265706F72743A0D0A0068
:10279E0053697A65206F6620427566666572256498
:1027AE002069732025640D0A005374617274696E7A
:1027BE00672061646472657373206F66204275666C
:1027CE0066657225642069732025640D0A00456EC6
:1027DE0064696E672061646472657373206F66202E
:1027EE0042756666657225642069732025640D0A3C
:1027FE00004E756D626572206F6620656C656D6545
:10280E006E74732025640046726565207370616373
:10281E006520696E2042756666657225642069734F
:10282E002025640D0A004E756D626572206F66205C
:10283E0073746F726167652063686172616374653A
:10284E00727320696E2062756666657225642061FA
:10285E0072652025640D0A005468652073746F72CA
:10286E00616765206368617261637465727320616C
:10287E0072653A0D0A00427566666572302069739C
:10288E00206E6F7720656D70746965640D0A005453
:10289E006865726520617265206E6F2073746F7249
:1028AE006167652063686172616374657273206924
:1028BE006E2062756666657225640D0A004E756D32
:1028CE00626572206F6620636861726163746572FF
:1028DE00732072656365697665642073696E6365DE
:1028EE00206C61737420273F2720636F6D6D616EBE
:1028FE00642069732025640D0A004865782076618E
:10290E006C75657320696E2042756666657220303F
:10291E00206172653A0D0A00546865726520617215
:10292E0065206E6F2073746F7261676520636861D6
:10293E007261637465727320696E20427566666596
:10294E0072300D0A00253034583A002530325809BD
:10295E00004E6F206D61746368696E6720636F6DE2
:10296E006D616E6420636861726163746572730A6F
:10297E000D004275666665722063726561746564EA
:10298E000A0D004275666665722073686966746525
:04299E00640A0D00BA
:0229AD00000028
:10119C00AA83E582900C86F0A3EAF0900C86E0FA24
:1011AC00A3E0FB4A700490000022EA24FCFAEB3422
:1011BC00FFFB900C8DE0FCA3E0FD900C88ECF0A301
:1011CC00EDF0900C84E4F0A3F0900C88E0FCA3E02C
:1011DC00FD4C6025EAB50406EBB50502801B900CAE
:1011EC0084ECF0A3EDF08C828D83E0FCA3E0FD9009
:1011FC000C88ECF0A3EDF080D0900C88E0FAA3E022
:10120C008A82F58322AAF0AB83E582900C8AF0A344
:10121C00EBF0A3EAF0900C8AE0FAA3E0FBA3E0FC6D
:10122C008A828B8312119CAA82AB83EA4B60289032
:10123C000C84E0FCA3E0FD4C700B8A828B83A3A38F
:10124C00E4F0A3F0228A828B83E0FAA3E0FB8C8289
:08125C008D83EAF0A3EBF02200
:06003200E478FFF6D8FDA2
:100010007902E94400601B7A019029AD781175A03E
:100020000DE493F2A308B8000205A0D9F4DAF27542
:02003000A0FF2F
:10126400AA83E582900C91F0A3EAF0900C91E0FA45
:10127400A3E0FB900C93EAF0A3EBF0EA4B70209010
:101284000C9374012AF0E43BA3F0900C8FE0FAA3D2
:10129400E0FB1ABAFF011B900C8FEAF0A3EBF0906D
:1012A4000C93E0FAA3E0FB900C8DEAF0A3EBF09032
:1012B4000C8FE0FCA3E0FDEC2AFCED3BFDEC24FEEE
:1012C400FCED34FFFD8A828B83ECF0A3EDF08C827D
:1012D4008D83E4F0A3F08A828B83A3A3E4F0A3F0CC
:1012E40022AA83E582900C95F0A3EAF0900C95E095
:1012F400FAA3E0FBC374FB9A74FF9B5004900000B4
:1013040022900C9574042AF0E43BA3F0900C8DE039
:10131400FAA3E0FB900C97EAF0A3EBF0900C95E0B5
:10132400F51CA3E0F51D900C97E0FCA3E0FD8C8276
:101334008D83E0FEA3E0FF8E008F018C028D03E815
:10134400C39AF8E99BF98C828D83A3A3E0FAA3E006
:10135400FBE8C39AF8E99BF9C3E8951CE9951D409D
:101364000D900C9974042CF0E43DA3F08023900CB0
:1013740097EEF0A3EFF0900C97E0FAA3E0FB8A82DB
:101384008B83E0FAA3E0FB4A709C900C99E4F0A3F1
:10139400F0900C99E0FAA3E0FB4A70030214159054
:1013A4000C97E0FAA3E0FB74022AFCE43BFD8C8278
:1013B4008D83E0FEA3E0FF4E7013900C95E0F8A33C
:1013C400E0F98C828D83E8F0A3E9F08044EE2AFEF4
:1013D400EF3BFF8A828B83E0FCA3E0FD8E828F8348
:1013E400ECF0A3EDF08A828B83EEF0A3EFF07402AD
:1013F4002EFAE43FFB900C95E0FCA3E0FD8A828B7F
:1014040083ECF0A3EDF0900C9974042EF0E43FA368
:10141400F0900C99E0FAA3E08A82F5832220F71079
:1014240030F6118883A88220F507F6A88375830017
:1014340022F280F7F022C016858116E51624FDF805
:10144400868318868218E493A324DB600C24256029
:101454000512152780F002153FD2D5E493A3C0836B
:10146400C082B4731486F0188683188682181222F8
:10147400106053A312152780F5B46307E6181215FC
:10148400278043B46417E630E74618E6F42401F6EF
:1014940008E6F43400F6742D1215278033B4782D41
:1014A400868318868218E4121518E583121517E549
:1014B40083121518E582121517E58212151830D516
:1014C400057430121527D082D08302144AB475F6FD
:1014D400E6FA18E6F9187C107D27121502FF7CE85D
:1014E4007D03121502C4F5837C647D00121502424B
:1014F40083E975F00A84C445F0F582EF80A97B0086
:101504000BC3E99CF9EA9DFA50F61BE92CF9EA3D74
:10151400FAEB22C4540F700320D51FC2D52490D4F3
:101524003440D4C083C082C0F0F582E8C0E0120F1A
:10153400FFD0E0F8D0F0D082D08322D01622AA8344
:10154400AB828BF0900C9CE0A4F8A9F08AF0E0A4A4
:0E15540029F98BF0A3E0A429F58388822222D6
:100038007800E84400600A790075A000E4F309D864
:10004800FC7811E8440D600C790E900000E4F0A3F0
:0A005800D8FCD9FAC200C201C202AE
:10156200C016858116E51624FBFAE51624FBF886DB
:10157200030886040886058B828C838DF012221064
:10158200FE700302174BBE25028003021732C2020D
:10159200C201C200E51624FBF874012BF6E43C08F4
:1015A200F608A605E51624FBF886030886040886D5
:1015B200058B828C838DF0122210FFBF6802801788
:1015C200BF6C26D200E51624FBF874012BF6E43C2E
:1015D20008F608A6058012D202E51624FBF874016B
:1015E2002BF6E43C08F608A605E51624FBF886036C
:1015F2000886040886058B828C838DF0122210FBEC
:10160200BB63028022BB64028013BB6F02801DBBDE
:1016120073028005BB78188009D201801275220AF4
:10162200800D752210800875220080037522083013
:101632000147EA24FDF888028623088624088625C5
:101642001818AB23AC24AD258B828C838DF012222B
:1016520010700302173BAB23AC24AD258B828C8325
:101662008DF0122210FB0523E4B5230205248B82A0
:10167200C002120FFFD00280C9300016EA24FCF823
:1016820088028626088627088628088629181818B8
:101692008030300215EA14F888028603EBF526330F
:1016A20095E0F527F528F5298018EA24FEF8880246
:1016B2008603088604188B26ECF5273395E0F52877
:1016C200F529E522605DAB26AC27AD28AF29900C49
:1016D200C6742AF0A3E4F0A37440F0900CC9E5228A
:1016E200F08B828C838DF0EFC002121888D00275C5
:1016F200232A752400752540AB23AC24AD258B82AB
:101702008C838DF0122210FB0523E4B523020524FD
:101712008B36BB00028022853682C002120FFFD0B8
:101722000280D5AB268B82C002120FFFD002800945
:101732008E82C002120FFFD002E51624FBF874015C
:1017420026F6E40836F602156CD01622AA82AB837E
:10175200ACF0FD900CA2EAF0A3EBF0A3ECF0A3ED49
:10176200F0900CA1E0FA7B201BEB24A6FCE4340CE5
:10177200FD900CA2E0FEA3E0FFA3E0F8A3E0F98A4B
:1017820012751300751400751500900CFBE512F02C
:10179200A3E513F0A3E514F0A3E515F08E828F8381
:1017A20088F0E9C002C003C004C00512222CAE8238
:1017B200AF83A8F0F9D005D004D003D00274302E44
:1017C200FE8C828D83F08C828D83E0FEC374B98E91
:1017D200F063F08095F0500F8C828D83E0FE7407E9
:1017E2002EFE8C828D83F0900CA2E0FCA3E0FDA380
:1017F200E0FEA3E0FF900D04E512F0A3E513F0A3D1
:10180200E514F0A3E515F08C828D838EF0EFC00213
:10181200C003122375AC82AD83AEF0FFD003D002B9
:10182200900CA2ECF0A3EDF0A3EEF0A3EFF0900C7D
:10183200A2E0FCA3E0FDA3E0FEA3E0FFBC000BBD21
:101842000008BE0005BF0002800302176A8B0290E7
:101852000C9EE0FBA3E0FCA3E0FD8A060AEE24A6B0
:10186200F582E4340CF583E0FE8B828C838DF012DA
:101872001421A3AB82AC83BA200040DE8B828C831E
:101882008DF0E4021421AA82AB83ACF0FD900CCA65
:10189200EAF0A3EBF0A3ECF0A3EDF0900CCAE0FAAF
:1018A200A3E0FBA3E0FCA3E0FD30E73F900CC9E01E
:1018B200FEBE0A37900CC6E0FEA3E0FFA3E0F88E5E
:1018C200828F8388F0742D121421900CC674012E1D
:1018D200F0E43FA3F0A3E8F0900CCAC3E49AF0E46A
:1018E2009BA3F0E49CA3F0E49DA3F0900CCAE0FA61
:1018F200A3E0FBA3E0FCA3E0FD900CC6E0FEA3E0A6
:10190200FFA3E0F8900CC9E0F9900C9EEEF0A3EF73
:10191200F0A3E8F0900CA1E9F08A828B838CF0EDC1
:1019220002174EC016858116AA82120FFFD0162208
:10193200AAF0AB83E582900CCFF0A3EBF0A3EAF020
:10194200900CCFE0FAA3E0FBA3E0FC900CCEE0FD0C
:10195200900CE2E4F0A3F0A3F0900CE5EAF0A3EB24
:10196200F0A3ECF0900CE8EDF0901925021A8AC071
:1019720016858116E51624FBFA900CE2E4F0A3F03A
:10198200A3F0E51624FBF8900CE5E6F008A3E6F0D8
:1019920008A3E6F0900CE8EAF0901925121A8AAA38
:1019A20082AB83D01622E582900CDEF0900CDEE052
:1019B200FA900CD4E0C0E0A3E0C0E0A3E0C0E07481
:1019C200D6C0E07419C0E0900CD2E0C0E0A3E0C041
:1019D200E08A8222158115811581900CDCE0FAA340
:1019E200E0FB900CDC74012AF0E43BA3F022E582D8
:1019F200900CDFF0900CDFE0FA74302AFA24C65023
:101A02000A74072AFA3003034302208A820219A8C1
:101A1200E582900CE0F0900CE0E0FAC4540FFBF584
:101A220082C0021219F0D00253020F8A820219F008
:101A3200E582900CE1F0900CD7E0FAA3E0FBA3E082
:101A4200FCA3E0FD900CDBE0FE900CE1E0FF7820CF
:101A5200EE2EFEED235401F94206EA2AFAEB33FB9D
:101A6200EC33FCED33FDC3EE9F4007EEC39FFE4314
:101A72000201D8DC900CD7EAF0A3EBF0A3ECF0A3C0
:101A8200EDF0900CDBEEF022AA83E582900CE9F0F7
:101A9200A3EAF0900CE9E0FAA3E0FB900CD2EAF0A2
:101AA200A3EBF0900CE2E0FAA3E0FBA3E0FC900CC5
:101AB200D4EAF0A3EBF0A3ECF0900CDCE4F0A3F09A
:101AC200900CE5E0FAA3E0FBA3E0FC8A828B838C16
:101AD200F0122210FD900CE574012AF0E43BA3F011
:101AE200A3ECF0ED70030221B1BD250280030221B7
:101AF200A9C204C205C206C207C208C209C20AC2FA
:101B02000B900CEBE4F0900CECF0900CED74FFF009
:101B1200900CE5E0FAA3E0FBA3E0FC8A828B838CC5
:101B2200F0122210FEA3AA82AB83900CE5EAF0A386
:101B3200EBF0A3ECF0900CEFEEF0BE25088E8212D3
:101B420019A8021AC28E07BF300040498E07EF243F
:101B5200C64042900CEDE0FFBFFF29C002C003C0A7
:101B620004900CECE0FA75F00AA4FAEE24D0900C82
:101B7200EC2AF0900CECE0FAD004D003D002709B77
:101B8200D2058097EF75F00AA4FFEE24D0900CEDF9
:101B92002FF0021B1D900CEFE0FEBE2E08900CED04
:101BA200E4F0021B1D8E82C002C003C004C00612F4
:101BB2002481E58224FF9203D006D004D003D00210
:101BC200300307900CEF74DF5EF0900CEFE0FEBE86
:101BD20020028055BE2B02804BBE2D028041BE42A8
:101BE20002804BBE43028050BE4403021E1EBE460C
:101BF20003021E40BE4903021E1EBE4C028034BEBA
:101C02004F03021E28BE5003021D80BE53028042B3
:101C1200BE5503021E30BE5803021E38021E44D2B5
:101C220004021B1DD206021B1DD207021B1DD20974
:101C3200021B1DD20A021B1D900CE8E0FA24FEF8DA
:101C4200900CE8F08602088603188A821219A8020C
:101C52001E50900CE8E0FA24FDF8900CE8F08602A1
:101C62000886030886041818900CD7EAF0A3EBF054
:101C7200A3ECF0900CD7E0FAA3E0FBA3E0FC8A828D
:101C82008B838CF01221BDAA82AB83900CEDE0FB1A
:101C9200BBFF05900CEDEAF0200438900CECE0FB61
:101CA200C3EA9B502E900CECEBC39AF0900CECE044
:101CB200FB8B041B900CECEBF0BC000280107582D5
:101CC20020C002C0031219A8D003D00280E3900CF6
:101CD200ECEBF0900CEDE0FDC002900CD7E0FCA321
:101CE200E0FFA3E0FA8C828F838AF0122210D002E6
:101CF20060538D041DC374808CF063F08095F050A6
:101D020044C002900CD7E0F517A3E0F518A3E0F564
:101D12001974012517FBE43518FAAC19900CD7EBAE
:101D2200F0A3EAF0A3ECF08517828518838519F0F9
:101D3200122210FAF582C002C0051219A8D005D0ED
:101D420002D0028093200403021E50900CECE0FBB0
:101D5200C3EA9B4003021E50900CECEBC39AF09036
:101D62000CECE0FA8A031A900CECEAF0BB000302D6
:101D72001E4B758220C0021219A8D00280E6900C78
:101D8200E8E0FB24FDF8900CE8F0860308860408DE
:101D920086071818900CD7EBF0A3ECF0A3EFF090A5
:101DA2000CD9E0FB247F5008900CEF7443F08020A4
:101DB200EB249F5008900CEF7450F08013EB24BF7B
:101DC2005008900CEF7449F08006900CEF7458F0B4
:101DD200900CEFE0FBF582C0031219A8D0037582C4
:101DE2003AC0031219A8D003758230C0031219A891
:101DF200D003758278C0031219A8D003BB490280B0
:101E02000FBB5002800A900CD8E0FBF582121A1226
:101E1200900CD7E0FBF582121A128032D208900C95
:101E2200EB740AF08028900CEB7408F08020900C80
:101E3200EB740AF08018900CEB7410F08010D20B47
:101E4200800C8E821219A88005900CECEAF0300BFF
:101E52006B900CE8E0FA24FCF8900CE8F08602089B
:101E62008603088604088606181818900CD7EAF02C
:101E7200A3EBF0A3ECF0A3EEF0900CD774A2F0A3C6
:101E82007429F0A37480F0900CD7E0FBA3E0FCA3CC
:101E9200E0FD74012BFEE43CFF8D02900CD7EEF0C6
:101EA200A3EFF0A3EAF08B828C838DF0122210FA5A
:101EB2007003021AC28A821219A880CB900CEBE03E
:101EC200FABA0003021AC2900CF674F5F0A3740C6D
:101ED200F030094C900CE8E0FA14F8900CE8F08627
:101EE20002EA3395E0FBFCFE900CD7EAF0A3EBF09C
:101EF200A3ECF0A3EEF0300803021F98900CD7E099
:101F0200FAA3E0FBA3E0FCA3E0FE7B007C007E00E2
:101F1200900CD7EAF0A3EBF0A3ECF0A3EEF08076FE
:101F2200300A2A900CE8E0FA24FCF8900CE8F086DB
:101F320002088603088604088606181818900CD72B
:101F4200EAF0A3EBF0A3ECF0A3EEF08049900CE8EA
:101F5200E0FA24FEF8900CE8F0860208860318EBFB
:101F62003395E0FCFE900CD7EAF0A3EBF0A3ECF083
:101F7200A3EEF0200820900CD7E0FAA3E0FBA3E048
:101F8200FCA3E0FE7C007E00900CD7EAF0A3EBF00D
:101F9200A3ECF0A3EEF030083E900CD7E0FAA3E0F9
:101FA200FBA3E0FCA3E0FE30E72B900CD7E0FAA302
:101FB200E0FBA3E0FCA3E0FEC3E49AFAE49BFBE4AB
:101FC2009CFCE49EFE900CD7EAF0A3EBF0A3ECF0AD
:101FD200A3EEF08002C208D20C900CEBE0FC751A62
:101FE200F5751B0C7D00900CDBE4F08C82C004C004
:101FF20005121A32D005D004200C32C004900CDB3A
:10200200E0FFC4FF851A82851B83E0FA4207851A26
:1020120082851B83EFF0151A74FFB51A02151B9007
:102022000CF6E51AF0A3E51BF0D004800C900CDB53
:10203200E0FF851A82851B83F00D900CEEEDF0B265
:102042000C900CD7E0FFA3E0FAA3E0FEA3E0FBEFC5
:102052004A4E4B7091900CF6E51AF0A3E51BF090F6
:102062000CEEEDF0900CECE0FA7006900CEC7401C2
:10207200F020052720042474012DFA900CECE0FBDB
:10208200C3EA9B5011758220C002C0031219A8D066
:1020920003D0021B80EA900CECEBF0300812758240
:1020A2002D1219A8900CECE0FA14900CECF0802F91
:1020B200900CEEE0FA602830061275822B1219A8F5
:1020C200900CECE0FA14900CECF0801330071075D1
:1020D20082201219A8900CECE0FA14900CECF0207B
:1020E200042F900CEEE0FA900CECE0FB8B041B90BA
:1020F2000CECEBF0C3EA9C50363005047C308002D5
:102102007C208C82C002C0031219A8D003D00280A6
:10211200DB900CECE0FA900CEEE0FCC39A500990D4
:102122000CECEAC39CF0800C900CECE4F08005907F
:102132000CECEBF0900CF6E0FAA3E0FB900CEEE076
:10214200FC8C061CEE6040B20C200C150ABA000191
:102152000B8A828B83E0FEC4540FFE900CDBF0806E
:102162000E8A828B83E0FE53060F900CDBEEF0901A
:102172000CDBE0FEF582C002C003C0041219F0D0ED
:1021820004D003D00280BA200403021AC2900CECDD
:10219200E0FA8A031AEB7003021AC2758220C002A7
:1021A2001219A8D00280EB8D821219A8021AC290CD
:0B21B2000CDCE0FAA3E08A82F5832237
:0B29A2003C4E4F20464C4F41543E007D
:1021BD00AAF0AB83E582900CF8F0A3EBF0A3EAF064
:1021CD007A007B00900CF8E0FCA3E0FDA3E0FE8C10
:1021DD00828D838EF0122210FFA3AC82AD83900C02
:1021ED00F8ECF0A3EDF0A3EEF0EF60070ABA00DF14
:1021FD000B80DC900CF8ECF0A3EDF0A3EEF08A82EE
:03220D008B83229E
:0D00030075813612006AE582600302006517
:1022100020F71430F6148883A88220F507E6A883F7
:1022200075830022E280F7E49322E022AA82AB8346
:10223000ACF0FD900CFFEAF0A3EBF0A3ECF0A3ED03
:10224000F0900D03E4F0900CFFE0FAA3E0FBA3E0B4
:10225000FCA3E0FD7E00900CFBE0F51CA3E0F51D67
:10226000A3E0F51EA3E0F51FE51F235401FF7078DE
:10227000C006E51C25E0FFE51D33F8E51E33F9E552
:102280001F33FE900CFBEFF0A3E8F0A3E9F0A3EE00
:10229000F0900CFBE0F51CA3E0F51DA3E0F51EA3F8
:1022A000E0F51FC3EA951CEB951DEC951EED951FFF
:1022B000E433D0066029E51FC313F51FE51E13F5AF
:1022C0001EE51D13F51DE51C13F51C900CFBE51C0C
:1022D000F0A3E51DF0A3E51EF0A3E51FF080090EB5
:1022E000900D03EEF0022256900D03E0FA900CFFE1
:1022F000E0FBA3E0FCA3E0FDA3E0FE900CFBE0F517
:102300001CA3E0F51DA3E0F51EA3E0F51FC3EB95AC
:102310001CEC951DED951EEE951F4017900CFFEBE4
:10232000C3951CF0EC951DA3F0ED951EA3F0EE9562
:102330001FA3F0900CFBE0FBA3E0FCA3E0FDA3E0F7
:10234000FEC313FEED13FDEC13FCEB13FB900CFB33
:10235000F0A3ECF0A3EDF0A3EEF08A031AEB708D7E
:10236000900CFFE0FAA3E0FBA3E0FCA3E0FD8A826F
:102370008B838CF022AA82AB83ACF0FD900D08EA2F
:10238000F0A3EBF0A3ECF0A3EDF0900D0CE4F0A3C0
:10239000F0A3F0A3F0900D04E0FAA3E0FBA3E0FCAF
:1023A000A3E0FD751C20900D08E0FFA3E0F8A3E07A
:1023B000F9A3E0FE33920DEF2FFFE833F8E933F98C
:1023C000EE33FE900D08EFF0A3E8F0A3E9F0A3EEE2
:1023D000F0900D0CE0FEA3E0FFA3E0F8A3E0F9EE1F
:1023E0002EFEEF33FFE833F8E933F9900D0CEEF0F1
:1023F000A3EFF0A3E8F0A3E9F0300D1E900D0CE080
:10240000FFA3E0F8A3E0F9A3E0FE900D0C74014FE8
:10241000F0A3E8F0A3E9F0A3EEF0900D0CE0FEA32A
:10242000E0FFA3E0F8A3E0F9C3EE9AEF9BE89CE994
:102430009D4031900D0CEEC39AF0EF9BA3F0E89C09
:10244000A3F0E99DA3F0900D08E0FEA3E0FFA3E058
:10245000F8A3E0F9900D0874014EF0A3EFF0A3E8A3
:10246000F0A3E9F0D51C0280030223A6900D08E03A
:10247000FAA3E0FBA3E0FCA3E0FD8A828B838CF04F
:1024800022E582900D10F0900D10E0FABA61004044
:0E24900009EA2485400475820122758200222B
:00000001FF
