:03000000020003F8
:1000620002006512007E80FE438E0C758920758D1C
:10007200FA759850D28ED299900000229009F874A5
:1000820002F0E4A3F09009FC7402F0E4A3F0900CF7
:100092000A74C4F0A37409F0900002120D23745D77
:1000A200C0E0741FC0E07480C0E0121430158115E6
:1000B200811581120A2EAA82AB83ACF0C002C00362
:1000C200C004120AB1D004D003D0027D007E00ED3C
:1000D2002AFFEE3BF88C018F82888389F0121CCFB5
:1000E200FF6032C3EF648094B0401274B98FF06342
:1000F200F08095F040070DBD00D50E80D2749EC0F1
:10010200E0741FC0E07480C0E012102115811581D7
:1001120015810200A0900C8CE4F0A3F07D007E001B
:10012200ED2AFFEE3BF88C018F82888389F0121C46
:10013200CFFF605EC002C003C004900C8CE0F8A345
:10014200E0F9900C17740AF0E4A3F088828983C066
:1001520002C003C004C005C006C007121001A88275
:10016200A983D007D006D005D004D003D002EF3344
:1001720095E0FAEF24D0FFEA34FFFA900C8CEF28D6
:10018200F0EA39A3F00DBD00010ED004D003D00275
:10019200808E900C8CE0C0E0A3E0C0E074B6C0E0BA
:1001A200741FC0E07480C0E0121430E58124FBF5B6
:1001B20081900C8CE0FAA3E0FB74075AFC7D00BC32
:1001C2000005BD000280030200A0C3EA9420EB9464
:1001D2000050030200A0C374609A74099B5003028A
:1001E20000A08A828B83120DA4AA82AB83EA4B7091
:1001F20034C002C00374C8C0E0741FC0E07480C081
:10020200E0121021158115811581D003D0028A04D4
:100212008B057E008C828D838EF0C002C003120C8F
:10022200D0D003D002900C8CE0FCA3E0FD8C828D38
:1002320083C002C003120DA4AC82AD83D003D002EE
:10024200EC4D7063C002C003C004C00574FDC0E081
:10025200741FC0E07480C0E012143015811581153E
:1002620081D005D004D003D0028C068D0778008E91
:10027200828F8388F0C002C003C004C005120CD074
:10028200D005D004D003D0028A068B0778008E8274
:100292008F8388F0C002C003C004C005120CD0D006
:1002A20005D004D003D002EA4B70030200A0EC4D4B
:1002B20070030200A0C002C003C004C0057432C0B3
:1002C200E07420C0E07480C0E01214301581158102
:1002D2001581D005D004D003D0028A068B0778009E
:1002E2009009FEEEF0A3EFF0A3E8F07E00900A0181
:1002F200ECF0A3EDF0A3EEF0900C8CE0FCA3E0FD9B
:10030200900B75ECF0900B76ECF0E4F50FF510F530
:100312000DF50EF511F512C002C0037442C0E0746F
:1003220020C0E0120EF915811581D003D002C0025F
:10033200C003120AA7AC82D003D0028C82C002C0D2
:1003420003C004120A95D004D003D002C3EC648027
:1003520094E1400B74FA8CF063F08095F05013C373
:10036200EC648094B0404B74B98CF063F08095F0EB
:100372004040C002C003C0047456C0E07420C0E014
:100382007480C0E0121021158115811581D004D02E
:1003920003D002E50F2AF582E5103BF583ECF00568
:1003A2000FE4B50F020510050DE4B50D02050E02AE
:1003B2000319C002C003C0047472C0E07420C0E01C
:1003C2007480C0E0121021158115811581D004D0EE
:1003D20003D0020511E4B511020512BC2B02800FF5
:1003E200BC2D0302068CBC3F0302082E020A0EC07B
:1003F20002C003748EC0E07420C0E07480C0E012BA
:100402001021158115811581D003D002C002C003CD
:10041200120A2E85820885830985F00AD003D0024C
:10042200850882850983850AF0C002C003120AB1D9
:10043200D003D002900BF4E4F0A3F0E4F50BF50C3A
:10044200E50B2508F8E50C3509F9AE0A888289839F
:100452008EF0121CCFFCE4BC000104704A900BF435
:10046200E0FEA3E0FF900C17740AF0E4A3F08E8282
:100472008F83C002C003C004121001AE82AF83D0CA
:1004820004D003D002ECF83395E0F9E824D0F8E97F
:1004920034FFF9900BF4E82EF0E93FA3F0050BE4EA
:1004A200B50B9D050C8099900BF4E0FEA3E0FFC014
:1004B20002C003C006C007C006C00774B6C0E0741D
:1004C2001FC0E07480C0E0121430E58124FBF58186
:1004D200D007D006D003D002C374149EE49F400319
:1004E2000203F1C3EE9490EF940140030203F190F2
:1004F20009F8E0F8A3E0F9900C177403F0E4A3F014
:1005020088828983C002C003C006C007121001A8F6
:1005120082A983D007D006D003D002E824FEF8E9EE
:100522003409F98E828F83C002C003C000C0011259
:100532000B05AE82AF83ACF0D001D000D003D00265
:1005420088828983EEF0A3EFF0A3ECF09009F8E043
:10055200FFA3E0F8900C177403F0E4A3F08F8288F5
:1005620083C002C003C007C000121001AC82AD8379
:10057200D000D007D003D002EC24FEF582ED34097E
:10058200F583E0FCA3E0FDA3E0FEEC4D4E7068C0F5
:1005920002C003C007C00074C2C0E07420C0E0748F
:1005A20080C0E0121021E58124FBF581D003D00246
:1005B2009009F8E0FCA3E0FD900C177403F0E4A3AB
:1005C200F08C828D83C002C003121001AC82AD8315
:1005D200D003D002EC24FEF582ED3409F583E0FC71
:1005E200A3E0FDA3E0FE8C828D838EF0C002C003E7
:1005F200120CD0D003D0029009F8E0FCA3E0FD90E9
:100602000C177403F0E4A3F08C828D83C002C00344
:10061200C004C005121001AE82AF83D005D004D051
:1006220003D002EE24FEF582EF3409F583E0FEA347
:10063200E0FFA3E0F8EE4F4870030203F1C002C0EE
:1006420003C004C00574F8C0E07420C0E07480C028
:10065200E0121021E58124FBF581D003D00290093C
:10066200F8E0FCA3E0FDEC2475FEED340BFF900BEB
:10067200F4E0F8A3E0F98E828F83E8F09009F87431
:10068200012CF0E43DA3F0020319C002C00374136D
:10069200C0E07421C0E07480C0E012102115811501
:1006A200811581D003D002C002C003120AA7AC8216
:1006B200D003D0028C82C002C003C004120A95D0BB
:1006C20004D003D002EC3395E0FDEC24D0FCED34F1
:1006D200FFFD9009FAECF0A3EDF0C002C00390090F
:1006E200FCE0C0E0A3E0C0E07431C0E07421C0E0EF
:1006F2007480C0E0121021E58124FBF581D003D083
:10070200029009FCE0FCA3E0FD1CBCFF011D900966
:10071200FAE0FEA3E0FFC3EC9EED9F5020C002C0B2
:10072200037413C0E07421C0E07480C0E012102191
:10073200158115811581D003D002020319EE4F7085
:1007420020C002C0037447C0E07421C0E07480C0BE
:10075200E0121021158115811581D003D002020308
:1007620019900C177403F0E4A3F08E828F83C002F9
:10077200C003C006C007121001AC82AD83D007D0FF
:1007820006D003D002EC24FEF582ED3409F583E4B1
:10079200F0A3F0A3F0C002C003C006C0077472C089
:1007A200E07421C0E07480C0E0121021E58124FBD6
:1007B200F581D003D0029009FAE0FCA3E0FD900C91
:1007C200177403F0E4A3F08C828D83C002C003127D
:1007D2001001AC82AD83D003D002EC24FEF582ED91
:1007E2003409F583E0FCA3E0FDA3E0FE8C828D8357
:1007F2008EF0C002C003120CD0D003D0029009FACE
:10080200E0FCA3E0FD8C828D83C002C003120B606A
:10081200D003D0029009F8E0FCA3E0FD1CBCFF016C
:100822001D9009F8ECF0A3EDF0020319C002C00319
:10083200C00DC00E7483C0E07421C0E07480C0E0BB
:10084200121021E58124FBF581D003D002C002C041
:1008520003C011C01274A9C0E07421C0E07480C04A
:10086200E0121021E58124FBF581D003D002C00201
:10087200C0039009FCE0C0E0A3E0C0E074CFC0E098
:100882007421C0E07480C0E0121021E58124FBF5E0
:1008920081D003D002C002C00374F2C0E07421C050
:1008A200E07480C0E0121021158115811581D003FA
:1008B200D002900BF2E4F0A3F0900BF2E0FCA3E084
:1008C200FD9009FCE0FEA3E0FFC3EC9EED9F503ECD
:1008D20074012CFEE43DFFC002C003C006C007C085
:1008E20004C005C006C0077417C0E07422C0E074DB
:1008F20080C0E0121021E58124F9F581D007D006ED
:10090200D003D002900BF2EEF0A3EFF080ABC00266
:10091200C0037427C0E07422C0E07480C0E01210EB
:1009220021158115811581D003D0027C007D0090B4
:1009320009FCE0FEA3E0FFC3EC9EED9F4003020A28
:100942000EC002C003C004C005C004C005744BC081
:10095200E07422C0E07480C0E0121021E58124FB23
:10096200F581D005D004D003D002EC2475F582EDD8
:10097200340BF583E0FE3395E0FFC002C003C004F0
:10098200C005C006C007C004C005745EC0E0742282
:10099200C0E07480C0E0121021E58124F9F581D015
:1009A20005D004D003D002900C177403F0E4A3F036
:1009B2008C828D83C002C003C004C005121001AE38
:1009C20082AF83D005D004D003D002EE24FEFEEF26
:1009D2003409FF7800C002C003C004C005C006C0CD
:1009E20007C000C004C0057477C0E07422C0E07480
:1009F20080C0E0121021E58124F8F581D005D004F1
:100A0200D003D0020CBC00010D020931C002C003A8
:100A1200749CC0E07422C0E07480C0E01210211502
:100A22008115811581D003D002020319120AA7E5AC
:100A320082900BF6F07A007B00900BF6E0FCBC0D86
:100A4200028029BC00028024EA24C6F582EB340924
:100A5200F583ECF00ABA00010BC002C003120AA728
:100A6200E582D003D002900BF6F080CDEA24C6F5E1
:100A720082EB3409F583E4F0EA24C6FAEB3409FB8D
:100A82007C008A828B838CF0E4120EE09009C6759A
:100A9200F00022E582900BF7F03099FD900BF7E021
:100AA200F599C2992210980280FBAA998A8222AAF9
:100AB200F0AB83E582900BF8F0A3EBF0A3EAF090A1
:100AC2000BF8E0FAA3E0FBA3E0FC7D007E00ED2A38
:100AD200FFEE3BF88C018F82888389F0121CCFFFD6
:100AE20060208F82C002C003C004C005C006120A83
:100AF20095D006D005D004D003D0020DBD00CF0E94
:100B020080CC22AA83E582900BFBF0A3EAF0900B43
:100B1200FBE0FAA3E0FB8A828B83120DA4AA82ABCC
:100B2200837C00C002C003C00474BDC0E07422C054
:100B3200E07480C0E0121021158115811581D00466
:100B4200D003D0029009FCE0FDA3E0FE9009FC7402
:100B5200012DF0E43EA3F08A828B838CF022AA83DB
:100B6200E582900BFDF0A3EAF0900BFDE0FAA3E022
:100B7200FB9009FCE0FCA3E0FD1CBCFF011DC3EAE5
:100B82009CEB9D506B900C177403F0E4A3F08A82E7
:100B92008B83C002C003121001AC82AD83D003D09C
:100BA20002EC24FEFCED3409FD8A060EEE75F0031C
:100BB200A424FEF582740935F0F583E0FFA3E0F882
:100BC200A3E0F98C828D83EFF0A3E8F0A3E9F0EAC9
:100BD2002475FCEB340BFDEE2475F582E4340BF541
:100BE20083E0FE8C828D83F00ABA00010B020B7344
:100BF20074CEC0E07422C0E07480C0E012102115EF
:100C020081158115819009FCE0C0E0A3E0C0E07489
:100C120031C0E07421C0E07480C0E0121021E5818F
:100C220024FBF5819009FCE0FAA3E0FB1ABAFF016C
:100C32001B9009FCEAF0A3EBF09009FCE0C0E0A3F2
:100C4200E0C0E07431C0E07421C0E07480C0E01202
:090C52001021E58124FBF581224B
:101F5D00456E74657220746865206275666665727B
:101F6D002073697A65206265747765656E203332FA
:101F7D0020616E64203234303020627974657320B4
:101F8D00646976697369626C6520627920380D0A1F
:101F9D0000506C6561736520656E746572206120FB
:101FAD006E756D6265720D0A006E756D2076616CD1
:101FBD0075652069732025640D0A006D616C6C6F69
:101FCD00632062756666657230206661696C656452
:101FDD002C20506C6561736520656E74657220618F
:101FED0020736D616C6C65722073697A650A0D00E2
:101FFD006D616C6C6F63206275666665723120660B
:10200D0061696C65642C20506C6561736520656E2B
:10201D00746572206120736D616C6C6572207369DB
:10202D007A650A0D006D616C6C6F6320706173735E
:10203D0065640A0D00456E746572206120636861E8
:10204D007261637465720A0D0049742069732061B1
:10205D002073746F72616765206368617261637468
:10206D0065720A0D006974206973206120636F6DBC
:10207D006D616E64206368617261637465720A0DCF
:10208D0000506C6561736520656E7465722061200A
:10209D006E6577206275666665722073697A652054
:1020AD006265747765656E20323020616E64203410
:1020BD0030300A0D006D616C6C6F63206275666661
:1020CD0065722564206661696C65642C20506C65B1
:1020DD0061736520656E746572206120736D616C2E
:1020ED006C65722073697A650A0D006D616C6C6F99
:1020FD00632070617373656420666F72206275660C
:10210D00666572256400456E746572206120766186
:10211D006C696420627566666572206E756D6265A8
:10212D00720A0D00627566666572206E756D626568
:10213D00722069732025640A0D00456E7465722046
:10214D00612076616C696420627566666572206EC9
:10215D00756D626572206F74686572207468616E4A
:10216D0020300A0D0042756666657225642064652F
:10217D006C65746564004E756D626572206F6620C6
:10218D0073746F72616765206368617261637465F2
:10219D007273206172652025640D0A004E756D62A3
:1021AD006572206F6620636F6D6D616E642063686C
:1021BD006172616374657273206172652025640DAF
:1021CD000A0054686572652061726520256420627D
:1021DD0075666665727320696E2074686520686522
:1021ED0061700D0A005468652062756666657273CC
:1021FD002063757272656E746C7920696E206865E6
:10220D006170206172653A0D0A005B25645D206284
:10221D00756666657225640D0A005265706F72747D
:10222D00206F662065616368206275666665722041
:10223D00696E2074686520686561700D0A004275CD
:10224D00666665722564207265706F72743A0D0A48
:10225D000053697A65206F66204275666665722542
:10226D00642069732025640D0A00537461727469CA
:10227D006E672061646472657373206F66204275AA
:10228D006666657225642069732025640D0A004E0B
:10229D006F206D61746368696E6720636F6D6D612A
:1022AD006E6420636861726163746572730A0D00F8
:1022BD0042756666657220637265617465640A0DA8
:1022CD000042756666657220736869667465640A96
:0222DD000D00F2
:0222EA000000F2
:100C5B00AA83E582900C01F0A3EAF0900C01E0FA74
:100C6B00A3E0FB4A700490000022EA24FCFAEB3468
:100C7B00FFFB900C08E0FCA3E0FD900C03ECF0A351
:100C8B00EDF0900BFFE4F0A3F0900C03E0FCA3E07D
:100C9B00FD4C6025EAB50406EBB50502801B900BF5
:100CAB00FFECF0A3EDF08C828D83E0FCA3E0FD90D4
:100CBB000C03ECF0A3EDF080D0900C03E0FAA3E072
:100CCB008A82F58322AAF0AB83E582900C05F0A310
:100CDB00EBF0A3EAF0900C05E0FAA3E0FBA3E0FC39
:100CEB008A828B83120C5BAA82AB83EA4B602890BF
:100CFB000BFFE0FCA3E0FD4C700B8A828B83A3A35C
:100D0B00E4F0A3F0228A828B83E0FAA3E0FB8C82CF
:080D1B008D83EAF0A3EBF02246
:06003200E478FFF6D8FDA2
:100010007902E94400601B7A019022EA788C75A08D
:100020000CE493F2A308B8000205A0D9F4DAF27543
:02003000A0FF2F
:100D2300AA83E582900C0CF0A3EAF0900C0CE0FA95
:100D3300A3E0FB900C0EEAF0A3EBF0EA4B702090DB
:100D43000C0E74012AF0E43BA3F0900C0AE0FAA322
:100D5300E0FB1ABAFF011B900C0AEAF0A3EBF09038
:100D63000C0EE0FAA3E0FB900C08EAF0A3EBF09082
:100D73000C0AE0FCA3E0FDEC2AFCED3BFDEC24FEB9
:100D8300FCED34FFFD8A828B83ECF0A3EDF08C82C3
:100D93008D83E4F0A3F08A828B83A3A3E4F0A3F012
:100DA30022AA83E582900C10F0A3EAF0900C10E0E5
:100DB300FAA3E0FBC374FB9A74FF9B5004900000FA
:100DC30022900C1074042AF0E43BA3F0900C08E08A
:100DD300FAA3E0FB900C12EAF0A3EBF0900C10E006
:100DE300F51DA3E0F51E900C12E0FCA3E0FD8C8240
:100DF3008D83E0FEA3E0FF8E008F018C028D03E85C
:100E0300C39AF8E99BF98C828D83A3A3E0FAA3E04C
:100E1300FBE8C39AF8E99BF9C3E8951DE9951E40E1
:100E23000D900C1474042CF0E43DA3F08023900C7B
:100E330012EEF0A3EFF0900C12E0FAA3E0FB8A822B
:100E43008B83E0FAA3E0FB4A709C900C14E4F0A3BC
:100E5300F0900C14E0FAA3E0FB4A7003020ED49066
:100E63000C12E0FAA3E0FB74022AFCE43BFD8C8243
:100E73008D83E0FEA3E0FF4E7013900C10E0F8A307
:100E8300E0F98C828D83E8F0A3E9F08044EE2AFE3A
:100E9300EF3BFF8A828B83E0FCA3E0FD8E828F838E
:100EA300ECF0A3EDF08A828B83EEF0A3EFF07402F3
:100EB3002EFAE43FFB900C10E0FCA3E0FD8A828B4A
:100EC30083ECF0A3EDF0900C1474042EF0E43FA334
:100ED300F0900C14E0FAA3E08A82F5832220F71045
:100EE30030F6118883A88220F507F6A8837583005E
:100EF30022F280F7F022C017858117E51724FDF849
:100F0300868318868218E493A324DB600C2425606F
:100F130005120FE680F0020FFED2D5E493A3C0833F
:100F2300C082B4731486F018868318868218121C44
:100F3300CF6053A3120FE680F5B46307E618120FD0
:100F4300E68043B46417E630E74618E6F42401F676
:100F530008E6F43400F6742D120FE68033B4782DCE
:100F6300868318868218E4120FD7E583120FD6E51D
:100F730083120FD7E582120FD6E582120FD730D531
:100F8300057430120FE6D082D083020F09B475F6D0
:100F9300E6FA18E6F9187C107D27120FC1FF7CE8EA
:100FA3007D03120FC1C4F5837C647D00120FC1421F
:100FB30083E975F00A84C445F0F582EF80A97B00CC
:100FC3000BC3E99CF9EA9DFA50F61BE92CF9EA3DBB
:100FD300FAEB22C4540F700320D51FC2D52490D43A
:100FE3003440D4C083C082C0F0F582E8C0E0120A66
:100FF30095D0E0F8D0F0D082D08322D01722AA83F4
:10100300AB828BF0900C17E0A4F8A9F08AF0E0A46F
:0E10130029F98BF0A3E0A429F583888222221C
:100038007800E84400600A790075A000E4F309D864
:10004800FC788CE8440C600C790D900000E4F0A377
:0A005800D8FCD9FAC200C201C202AE
:10102100C017858117E51724FBFAE51724FBF8861D
:10103100030886040886058B828C838DF0121CCFF1
:10104100FE700302120ABE250280030211F1C202E0
:10105100C201C200E51724FBF874012BF6E43C0839
:10106100F608A605E51724FBF8860308860408861A
:10107100058B828C838DF0121CCFFFBF6802801715
:10108100BF6C26D200E51724FBF874012BF6E43C73
:1010910008F608A6058012D202E51724FBF87401B0
:1010A1002BF6E43C08F608A605E51724FBF88603B1
:1010B1000886040886058B828C838DF0121CCFFB79
:1010C100BB63028022BB64028013BB6F02801DBB25
:1010D10073028005BB78188009D201801275220A3B
:1010E100800D75221080087522008003752208305A
:1010F1000147EA24FDF8880286230886240886250C
:101101001818AB23AC24AD258B828C838DF0121C77
:10111100CF70030211FAAB23AC24AD258B828C83F3
:101121008DF0121CCFFB0523E4B5230205248B822D
:10113100C002120A95D00280C9300016EA24FCF8D8
:1011410088028626088627088628088629181818FE
:101151008030300215EA14F888028603EBF5263355
:1011610095E0F527F528F5298018EA24FEF888028C
:101171008603088604188B26ECF5273395E0F528BD
:10118100F529E522605DAB26AC27AD28AF29900C8F
:1011910041742AF0A3E4F0A37440F0900C44E522DA
:1011A100F08B828C838DF0EFC002121347D0027551
:1011B100232A752400752540AB23AC24AD258B82F1
:1011C1008C838DF0121CCFFB0523E4B5230205248B
:1011D1008B36BB00028022853682C002120A95D06E
:1011E1000280D5AB268B82C002120A95D0028009FB
:1011F1008E82C002120A95D002E51724FBF8740111
:1012010026F6E40836F602102BD01722AA82AB8309
:10121100ACF0FD900C1DEAF0A3EBF0A3ECF0A3ED14
:10122100F0900C1CE0FA7B201BEB2421FCE4340C35
:10123100FD900C1DE0FEA3E0FFA3E0F8A3E0F98A16
:1012410013751400751500751600900C76E513F0F2
:10125100A3E514F0A3E515F0A3E516F08E828F83C4
:1012610088F0E9C002C003C004C005121CEBAE82C5
:10127100AF83A8F0F9D005D004D003D00274302E8A
:10128100FE8C828D83F08C828D83E0FEC374B98ED7
:10129100F063F08095F0500F8C828D83E0FE74072F
:1012A1002EFE8C828D83F0900C1DE0FCA3E0FDA34B
:1012B100E0FEA3E0FF900C7FE513F0A3E514F0A39B
:1012C100E515F0A3E516F08C828D838EF0EFC00258
:1012D100C003121E34AC82AD83AEF0FFD003D00246
:1012E100900C1DECF0A3EDF0A3EEF0A3EFF0900C49
:1012F1001DE0FCA3E0FDA3E0FEA3E0FFBC000BBDED
:101301000008BE0005BF000280030212298B029073
:101311000C19E0FBA3E0FCA3E0FD8A060AEE242100
:10132100F582E4340CF583E0FE8B828C838DF01220
:101331000EE0A3AB82AC83BA200040DE8B828C83AB
:101341008DF0E4020EE0AA82AB83ACF0FD900C4577
:10135100EAF0A3EBF0A3ECF0A3EDF0900C45E0FA7A
:10136100A3E0FBA3E0FCA3E0FD30E73F900C44E0E9
:10137100FEBE0A37900C41E0FEA3E0FFA3E0F88E29
:10138100828F8388F0742D120EE0900C4174012E2F
:10139100F0E43FA3F0A3E8F0900C45C3E49AF0E435
:1013A1009BA3F0E49CA3F0E49DA3F0900C45E0FA2C
:1013B100A3E0FBA3E0FCA3E0FD900C41E0FEA3E071
:1013C100FFA3E0F8900C44E0F9900C19EEF0A3EFC4
:1013D100F0A3E8F0900C1CE9F08A828B838CF0ED8D
:1013E10002120DC017858117AA82120A95D0172201
:1013F100AAF0AB83E582900C4AF0A3EBF0A3EAF0EC
:10140100900C4AE0FAA3E0FBA3E0FC900C49E0FD5C
:10141100900C5DE4F0A3F0A3F0900C60EAF0A3EB74
:10142100F0A3ECF0900C63EDF09013E4021549C0C9
:1014310017858117E51724FBFA900C5DE4F0A3F002
:10144100A3F0E51724FBF8900C60E6F008A3E6F0A2
:1014510008A3E6F0900C63EAF09013E4121549AA90
:1014610082AB83D01722E582900C59F0900C59E0A1
:10147100FA900C4FE0C0E0A3E0C0E0A3E0C0E0744C
:1014810095C0E07414C0E0900C4DE0C0E0A3E0C052
:10149100E08A8222158115811581900C57E0FAA30B
:1014A100E0FB900C5774012AF0E43BA3F022E582A3
:1014B100900C5AF0900C5AE0FA74302AFA24C65073
:1014C1000A74072AFA3003034302208A820214674E
:1014D100E582900C5BF0900C5BE0FAC4540FFBF5D5
:1014E10082C0021214AFD00253020F8A820214AFDB
:1014F100E582900C5CF0900C52E0FAA3E0FBA3E0D3
:10150100FCA3E0FD900C56E0FE900C5CE0FF78201F
:10151100EE2EFEED235401F94206EA2AFAEB33FBE3
:10152100EC33FCED33FDC3EE9F4007EEC39FFE435A
:101531000201D8DC900C52EAF0A3EBF0A3ECF0A38B
:10154100EDF0900C56EEF022AA83E582900C64F047
:10155100A3EAF0900C64E0FAA3E0FB900C4DEAF0F2
:10156100A3EBF0900C5DE0FAA3E0FBA3E0FC900C90
:101571004FEAF0A3EBF0A3ECF0900C57E4F0A3F0EA
:10158100900C60E0FAA3E0FBA3E0FC8A828B838CE1
:10159100F0121CCFFD900C6074012AF0E43BA3F023
:1015A100A3ECF0ED7003021C70BD25028003021C48
:1015B10068C204C205C206C207C208C209C20AC281
:1015C1000B900C66E4F0900C67F0900C6874FFF0DF
:1015D100900C60E0FAA3E0FBA3E0FC8A828B838C91
:1015E100F0121CCFFEA3AA82AB83900C60EAF0A399
:1015F100EBF0A3ECF0900C6AEEF0BE25088E82129F
:1016010014670215818E07BF300040498E07EF2411
:10161100C64042900C68E0FFBFFF29C002C003C072
:1016210004900C67E0FA75F00AA4FAEE24D0900C4D
:10163100672AF0900C67E0FAD004D003D002709BC7
:10164100D2058097EF75F00AA4FFEE24D0900C68C4
:101651002FF00215DC900C6AE0FEBE2E08900C689B
:10166100E4F00215DC8E82C002C003C004C0061281
:101671001F40E58224FF9203D006D004D003D0029C
:10168100300307900C6A74DF5EF0900C6AE0FEBED6
:1016910020028055BE2B02804BBE2D028041BE42EE
:1016A10002804BBE43028050BE44030218DDBE4699
:1016B100030218FFBE49030218DDBE4C028034BE8E
:1016C1004F030218E7BE500302183FBE5302804287
:1016D100BE55030218EFBE58030218F7021903D2D0
:1016E100040215DCD2060215DCD2070215DCD20990
:1016F1000215DCD20A0215DC900C63E0FA24FEF834
:10170100900C63F08602088603188A82121467021D
:10171100190F900C63E0FA24FDF8900C63F0860237
:101721000886030886041818900C52EAF0A3EBF01F
:10173100A3ECF0900C52E0FAA3E0FBA3E0FC8A8258
:101741008B838CF0121C7CAA82AB83900C68E0FB2B
:10175100BBFF05900C68EAF0200438900C67E0FBB1
:10176100C3EA9B502E900C67EBC39AF0900C67E094
:10177100FB8B041B900C67EBF0BC000280107582A0
:1017810020C002C003121467D003D00280E3900C82
:1017910067EBF0900C68E0FDC002900C52E0FCA3F6
:1017A100E0FFA3E0FA8C828F838AF0121CCFD00273
:1017B10060538D041DC374808CF063F08095F050EC
:1017C10044C002900C52E0F518A3E0F519A3E0F52E
:1017D1001A74012518FBE43519FAAC1A900C52EB76
:1017E100F0A3EAF0A3ECF0851882851983851AF03D
:1017F100121CCFFAF582C002C005121467D005D0C1
:1018010002D002809320040302190F900C67E0FBC1
:10181100C3EA9B400302190F900C67EBC39AF09047
:101821000C67E0FA8A031A900C67EAF0BB00030226
:10183100190A758220C002121467D00280E6900C4A
:1018410063E0FB24FDF8900C63F08603088604082E
:1018510086071818900C52EBF0A3ECF0A3EFF09070
:101861000C54E0FB247F5008900C6A7443F08020F4
:10187100EB249F5008900C6A7450F08013EB24BF46
:101881005008900C6A7449F08006900C6A7458F004
:10189100900C6AE0FBF582C003121467D0037582D5
:1018A1003AC003121467D003758230C00312146763
:1018B100D003758278C003121467D003BB4902803C
:1018C1000FBB5002800A900C53E0FBF5821214D139
:1018D100900C52E0FBF5821214D18032D208900CA8
:1018E10066740AF08028900C667408F08020900CD1
:1018F10066740AF08018900C667410F08010D20B98
:10190100800C8E821214678005900C67EAF0300B10
:101911006B900C63E0FA24FCF8900C63F0860208EB
:101921008603088604088606181818900C52EAF0F7
:10193100A3EBF0A3ECF0A3EEF0900C5274DFF0A354
:101941007422F0A37480F0900C52E0FBA3E0FCA39E
:10195100E0FD74012BFEE43CFF8D02900C52EEF091
:10196100A3EFF0A3EAF08B828C838DF0121CCFFAE7
:1019710070030215818A8212146780CB900C66E095
:10198100FABA0003021581900C717470F0A3740C03
:10199100F030094C900C63E0FA14F8900C63F08677
:1019A10002EA3395E0FBFCFE900C52EAF0A3EBF067
:1019B100A3ECF0A3EEF0300803021A57900C52E0AA
:1019C100FAA3E0FBA3E0FCA3E0FE7B007C007E0029
:1019D100900C52EAF0A3EBF0A3ECF0A3EEF08076CA
:1019E100300A2A900C63E0FA24FCF8900C63F0862C
:1019F10002088603088604088606181818900C52F7
:101A0100EAF0A3EBF0A3ECF0A3EEF08049900C63B5
:101A1100E0FA24FEF8900C63F0860208860318EBC6
:101A21003395E0FCFE900C52EAF0A3EBF0A3ECF04E
:101A3100A3EEF0200820900C52E0FAA3E0FBA3E013
:101A4100FCA3E0FE7C007E00900C52EAF0A3EBF0D8
:101A5100A3ECF0A3EEF030083E900C52E0FAA3E0C4
:101A6100FBA3E0FCA3E0FE30E72B900C52E0FAA3CD
:101A7100E0FBA3E0FCA3E0FEC3E49AFAE49BFBE4F1
:101A81009CFCE49EFE900C52EAF0A3EBF0A3ECF078
:101A9100A3EEF08002C208D20C900C66E0FC751B2C
:101AA10070751C0C7D00900C56E4F08C82C004C053
:101AB100051214F1D005D004200C32C004900C564C
:101AC100E0FFC4FF851B82851C83E0FA4207851B6A
:101AD10082851C83EFF0151B74FFB51B02151C904A
:101AE1000C71E51BF0A3E51CF0D004800C900C56A2
:101AF100E0FF851B82851C83F00D900C69EDF0B22F
:101B01000C900C52E0FFA3E0FAA3E0FEA3E0FBEF90
:101B11004A4E4B7091900C71E51BF0A3E51CF090BF
:101B21000C69EDF0900C67E0FA7006900C67740197
:101B3100F020052720042474012DFA900C67E0FBA6
:101B4100C3EA9B5011758220C002C003121467D0F2
:101B510003D0021B80EA900C67EBF030081275820B
:101B61002D121467900C67E0FA14900C67F0802F27
:101B7100900C69E0FA602830061275822B12146706
:101B8100900C67E0FA14900C67F080133007107521
:101B91008220121467900C67E0FA14900C67F02011
:101BA100042F900C69E0FA900C67E0FB8B041B900A
:101BB1000C67EBF0C3EA9C50363005047C308002A0
:101BC1007C208C82C002C003121467D003D0028033
:101BD100DB900C67E0FA900C69E0FCC39A50099025
:101BE1000C67EAC39CF0800C900C67E4F0800590D0
:101BF1000C67EBF0900C71E0FAA3E0FB900C69E04C
:101C0100FC8C061CEE6040B20C200C150ABA0001D7
:101C11000B8A828B83E0FEC4540FFE900C56F08039
:101C21000E8A828B83E0FE53060F900C56EEF090E5
:101C31000C56E0FEF582C002C003C0041214AFD0FE
:101C410004D003D00280BA200403021581900C67EE
:101C5100E0FA8A031AEB7003021581758220C00233
:101C6100121467D00280EB8D8212146702158190E5
:0B1C71000C57E0FAA3E08A82F5832202
:0B22DF003C4E4F20464C4F41543E0047
:101C7C00AAF0AB83E582900C73F0A3EBF0A3EAF02F
:101C8C007A007B00900C73E0FCA3E0FDA3E0FE8CDB
:101C9C00828D838EF0121CCFFFA3AC82AD83900C8F
:101CAC0073ECF0A3EDF0A3EEF0EF60070ABA00DFDF
:101CBC000B80DC900C73ECF0A3EDF0A3EEF08A82B9
:031CCC008B8322E5
:0D00030075813A12006AE582600302006513
:101CCF0020F71430F6148883A88220F507E6A8833E
:101CDF0075830022E280F7E49322E022AA82AB838D
:101CEF00ACF0FD900C7AEAF0A3EBF0A3ECF0A3EDCF
:101CFF00F0900C7EE4F0900C7AE0FAA3E0FBA3E006
:101D0F00FCA3E0FD7E00900C76E0F537A3E0F538FC
:101D1F00A3E0F539A3E0F53AE53A235401FF7078D3
:101D2F00C006E53725E0FFE53833F8E53933F9E547
:101D3F003A33FE900C76EFF0A3E8F0A3E9F0A3EEB0
:101D4F00F0900C76E0F537A3E0F538A3E0F539A372
:101D5F00E0F53AC3EA9537EB9538EC9539ED953ABE
:101D6F00E433D0066029E53AC313F53AE53913F5A4
:101D7F0039E53813F538E53713F537900C76E53735
:101D8F00F0A3E538F0A3E539F0A3E53AF080090EAA
:101D9F00900C7EEEF0021D15900C7EE0FA900C7AFE
:101DAF00E0FBA3E0FCA3E0FDA3E0FE900C76E0F5E2
:101DBF0037A3E0F538A3E0F539A3E0F53AC3EB9587
:101DCF0037EC9538ED9539EE953A4017900C7AEB44
:101DDF00C39537F0EC9538A3F0ED9539A3F0EE9558
:101DEF003AA3F0900C76E0FBA3E0FCA3E0FDA3E0A8
:101DFF00FEC313FEED13FDEC13FCEB13FB900C76FF
:101E0F00F0A3ECF0A3EDF0A3EEF08A031AEB708DC4
:101E1F00900C7AE0FAA3E0FBA3E0FCA3E0FD8A823A
:101E2F008B838CF022AA82AB83ACF0FD900C83EAFB
:101E3F00F0A3EBF0A3ECF0A3EDF0900C87E4F0A38C
:101E4F00F0A3F0A3F0900C7FE0FAA3E0FBA3E0FC7B
:101E5F00A3E0FD753720900C83E0FFA3E0F8A3E02B
:101E6F00F9A3E0FE33920DEF2FFFE833F8E933F9D2
:101E7F00EE33FE900C83EFF0A3E8F0A3E9F0A3EEAE
:101E8F00F0900C87E0FEA3E0FFA3E0F8A3E0F9EEEB
:101E9F002EFEEF33FFE833F8E933F9900C87EEF0BD
:101EAF00A3EFF0A3E8F0A3E9F0300D1E900C87E04C
:101EBF00FFA3E0F8A3E0F9A3E0FE900C8774014FB5
:101ECF00F0A3E8F0A3E9F0A3EEF0900C87E0FEA3F7
:101EDF00E0FFA3E0F8A3E0F9C3EE9AEF9BE89CE9DB
:101EEF009D4031900C87EEC39AF0EF9BA3F0E89CD6
:101EFF00A3F0E99DA3F0900C83E0FEA3E0FFA3E025
:101F0F00F8A3E0F9900C8374014EF0A3EFF0A3E86F
:101F1F00F0A3E9F0D537028003021E65900C83E031
:101F2F00FAA3E0FBA3E0FCA3E0FD8A828B838CF095
:101F3F0022E582900C8BF0900C8BE0FABA61004096
:0E1F4F0009EA24854004758201227582002271
:00000001FF
