:03000000020003F8
:1000620002006512007E80FE438E0C758920758D1C
:10007200FA759850D28ED299900000229009F874A5
:1000820002F0E4A3F09009FC7402F0E4A3F0900CF7
:10009200A174C4F0A37409F09000021211FA74342E
:1000A200C0E07424C0E01213D0158115811204D669
:1000B200AA82AB83ACF0900C81EAF0A3EBF0A3EC44
:1000C200F07475C0E07424C0E01213D0158115815C
:1000D200900C81E0FAA3E0FBA3E0FC8A828B838C84
:1000E200F01205597497C0E07424C0E01213D015C1
:1000F200811581900D25E4F0A3F0900D27E4F0A383
:10010200F0900C6FE4F0A3F0900C6FE0FAA3E0FB28
:10011200900C81E0FCA3E0FDA3E0FEEA2CFCEB3DA9
:10012200FD8C828D838EF01221A6FC6032C3EC64BA
:100132008094B0401874B98CF063F08095F0400D53
:10014200900C6F74012AF0E43BA3F080BB749AC058
:10015200E07424C0E01213D0158115810200A09032
:100162000C6FE4F0A3F0900D23E4F0A3F0900C6F79
:10017200E0FAA3E0FB900C81E0FCA3E0FDA3E0FE2B
:10018200EA2CFCEB3DFD8C828D838EF01221A6FCC5
:10019200604D900D23E0FDA3E0FE900CAE740AF0DA
:1001A200E4A3F08D828E83C002C003C0041214D86F
:1001B200AD82AE83D004D003D002EC3395E0FFECE5
:1001C20024D0FCEF34FFFF900D23EC2DF0EF3EA383
:1001D200F0900C6F74012AF0E43BA3F002016F90DF
:1001E2000D23E0C0E0A3E0C0E074B2C0E07424C01C
:1001F200E01213D0E58124FCF581900D23E0FAA3EF
:10020200E0FB74075AFC7D00BC0005BD00028003C0
:100212000200A0C3EA9420EB940050030200A0C3A2
:1002220074609A74099B50030200A08A828B831225
:10023200127BAA82AB83900C7DEAF0A3EBF0EA4B2F
:10024200702274D8C0E07424C0E01213D015811556
:1002520081900C7DE0FAA3E0FB7C008A828B838C88
:10026200F01211A7900D23E0FAA3E0FB8A828B83A0
:1002720012127BAA82AB83900C7FEAF0A3EBF0EA26
:100282004B7035740DC0E07425C0E01213D0158197
:100292001581900C7FE0FAA3E0FB7C008A828B83BD
:1002A2008CF01211A7900C7DE0FAA3E0FB7C008A8F
:1002B200828B838CF01211A7900C7DE0FAA3E0FBF5
:1002C2004A70030200A0900C7FE0FAA3E0FB4A70A0
:1002D200030200A07442C0E07425C0E01213D015DE
:1002E200811581900C7DE0FAA3E0FB7C009009FE71
:1002F200EAF0A3EBF0A3ECF0900C7FE0FAA3E0FBB2
:100302007C00900A01EAF0A3EBF0A3ECF0900D233D
:10031200E0FAA3E0FB900B75EAF0A3EBF0900B7709
:10032200EAF0A3EBF0900C73E4F0A3F0746FC0E07A
:100332007425C0E01213D01581158112054FE58294
:10034200900C8AF07485C0E07425C0E01213D015B9
:10035200811581900C8AE0FAF58212053D7497C0EE
:10036200E07424C0E01213D015811581900C8AE04C
:10037200FAC3648094E1400B74FA8AF063F08095CA
:10038200F0501E900C8AE0FAC3648094B0500302CD
:100392000453C374B98AF063F08095F050030204E9
:1003A2005374A5C0E07425C0E01213D015811581E5
:1003B200900B75E0FAA3E0FB1ABAFF011B900C73D5
:1003C200E0FCA3E0FDC3EA9CEB9D503974C1C0E0A0
:1003D2007425C0E01213D015811581740FC0E0742A
:1003E20026C0E01213D015811581900C8AE0FAF52F
:1003F2008212053D7497C0E07424C0E01213D01538
:100402008115818036900C7DE0FAA3E0FBEC2AFA9C
:10041200ED3BFB900C8AE0FE8A828B83F0900C739A
:1004220074012CF0E43DA3F0900D25E0FAA3E0FB6B
:10043200900D2574012AF0E43BA3F0900C8BE0FAB6
:10044200A3E0FB900C8B74012AF0E43BA3F00203BF
:100452002E742EC0E07426C0E01213D015811581CF
:10046200900D27E0FAA3E0FB900D2774012AF0E437
:100472003BA3F0900C8BE0FAA3E0FB900C8B740191
:100482002AF0E43BA3F0900C8AE0FABA2B02801423
:10049200BA2D028015BA3D02801CBA3F028011BA01
:1004A200402080181206CE02032E12099702032E54
:1004B200120B4D02032E120F6602032E12105E0261
:1004C20000A0744AC0E07426C0E01213D015811552
:1004D2008102032E12054FE582900C8DF07A007B8B
:1004E20000900C8DE0FCBC0D028029BC000280242F
:1004F200EA24C6F582EB3409F583ECF00ABA00016E
:100502000BC002C00312054FE582D003D002900C4B
:100512008DF080CDEA24C6F582EB3409F583E4F050
:10052200EA24C6FAEB3409FB7C008A828B838CF0C6
:10053200E41213B79009C675F00022E582900C8E82
:10054200F03099FD900C8EE0F599C2992210980234
:1005520080FBAA998A8222AAF0AB83E582900C8F53
:10056200F0A3EBF0A3EAF0900C8FE0FAA3E0FBA378
:10057200E0FC7D007E00ED2AFFEE3BF88C018F82CD
:10058200888389F01221A6FF60208F82C002C003F7
:10059200C004C005C00612053DD006D005D004D067
:1005A20003D0020DBD00CF0E80CC22AA83E582903B
:1005B2000C92F0A3EAF0900C92E0FAA3E0FB8A829C
:1005C2008B8312127BAA82AB837C00C002C003C061
:1005D20004746BC0E07426C0E01213D0158115813B
:1005E200D004D003D0029009FCE0FDA3E0FE900904
:1005F200FC74012DF0E43EA3F08A828B838CF022FE
:10060200AA83E582900C94F0A3EAF0900C94E0FAAD
:10061200A3E0FB9009FCE0FCA3E0FD1CBCFF011D74
:10062200C3EA9CEB9D40030206A9900CAE7403F052
:10063200E4A3F08A828B83C002C0031214D8AC8276
:10064200AD83D003D002EC24FEFCED3409FD8A0612
:100652000EEE75F003A424FEF582740935F0F583DD
:10066200E0FFA3E0F8A3E0F98C828D83EFF0A3E82A
:10067200F0A3E9F08A04EBCC25E0CC33FDEC247541
:10068200FCED340BFDEE2EFE2475F582E4340BF501
:1006920083E0FEA3E0FF8C828D83EEF0A3EFF00AED
:1006A200BA00010B020615747CC0E07426C0E01289
:1006B20013D0158115819009FCE0FAA3E0FB1ABA68
:1006C200FF011B9009FCEAF0A3EBF022748DC0E05D
:1006D2007426C0E01213D0158115811204D6AA82A5
:1006E200AB83ACF0900C84EAF0A3EBF0A3ECF074D3
:1006F200C1C0E07426C0E01213D015811581900CA0
:1007020084E0FAA3E0FBA3E0FC8A828B838CF012E4
:1007120005597497C0E07424C0E01213D0158115F6
:1007220081900C6FE4F0A3F0900C77E4F0A3F090CA
:100732000C6FE0FAA3E0FB900C84E0FCA3E0FDA3C5
:10074200E0FEEA2CFCEB3DFD8C828D838EF01221C3
:10075200A6FC6032C3EC648094B0401874B98CF08B
:1007620063F08095F0400D900C6F74012AF0E43B29
:10077200A3F080BB749AC0E07424C0E01213D015B9
:100782008115810206CE900C6FE4F0A3F0900C6FFD
:10079200E0FAA3E0FB900C84E0FCA3E0FDA3E0FE02
:1007A200EA2CFCEB3DFD8C828D838EF01221A6FC9F
:1007B200604C900C77E0FDA3E0FE900CAE740AF062
:1007C200E4A3F08D828E83C002C003C0041214D849
:1007D200AD82AE83D004D003D002EC3395E0FFECBF
:1007E20024D0FCEF34FFFF900C77EC2DF0EF3EA30A
:1007F200F0900C6F74012AF0E43BA3F0808F900C10
:1008020077E0C0E0A3E0C0E074B2C0E07424C0E0CE
:100812001213D0E58124FCF581900C77E0FAA3E075
:10082200FBC3EA9414EB940050030206CEC3749007
:100832009A74019B50030206CE9009F8E0FCA3E0F3
:10084200FD900CAE7403F0E4A3F08C828D83C002A1
:10085200C0031214D8AC82AD83D003D002EC24FEC4
:10086200FCED3409FD8A828B83C004C0051205ADFC
:10087200AA82AB83AEF0D005D0048C828D83EAF0DD
:10088200A3EBF0A3EEF09009F8E0FAA3E0FB900CE2
:10089200AE7403F0E4A3F08A828B83C002C0031219
:1008A20014D8AC82AD83D003D002EC24FEF582EDE5
:1008B2003409F583E0FCA3E0FDA3E0FEEC4D4E70AD
:1008C2004CC002C00374E2C0E07426C0E01213D030
:1008D200E58124FCF5819009F8E0FAA3E0FB900C95
:1008E200AE7403F0E4A3F08A828B831214D8AA8236
:1008F200AB83EA24FEF582EB3409F583E0FAA3E048
:10090200FBA3E0FC8A828B838CF01211A79009F87A
:10091200E0FAA3E0FB900CAE7403F0E4A3F08A8249
:100922008B83C002C0031214D8AC82AD83D003D033
:1009320002EC24FEF582ED3409F583E0FCA3E0FD30
:10094200A3E0FEEC4D4E70030206CEC002C003745B
:1009520018C0E07427C0E01213D0E58124FCF581B1
:100962009009F8E0FAA3E0FB8A04CC25E0CC33FD41
:10097200EC2475FCED340BFD900C77E0FEA3E0FF58
:100982008C828D83EEF0A3EFF09009F874012AF0C7
:10099200E43BA3F0227435C0E07427C0E01213D008
:1009A200158115811204D6AA82AB83ACF0900C8714
:1009B200EAF0A3EBF0A3ECF07453C0E07427C0E0BC
:1009C2001213D015811581900C87E0FAA3E0FBA3E6
:1009D200E0FC8A828B838CF01205597476C0E07435
:1009E20027C0E01213D0158115819009FAE4F0A313
:1009F200F0900C6FE4F0A3F0900C6FE0FAA3E0FB30
:100A0200900C87E0FCA3E0FDA3E0FEEA2CFCEB3DAA
:100A1200FD8C828D838EF01221A6FC604D9009FA26
:100A2200E0FDA3E0FE900CAE740AF0E4A3F08D8228
:100A32008E83C002C003C0041214D8AD82AE83D02C
:100A420004D003D002EC3395E0FFEC24D0FCEF3469
:100A5200FFFF9009FAEC2DF0EF3EA3F0900C6F74BB
:100A6200012AF0E43BA3F00209FA9009FCE0FAA3A0
:100A7200E0FB1ABAFF011B9009FAE0FCA3E0FDC3F8
:100A8200EA9CEB9D50127435C0E07427C0E012134B
:100A9200D0158115810209A6EC4D70127479C0E05F
:100AA2007427C0E01213D0158115810209A6C00473
:100AB200C00574A4C0E07427C0E01213D0E58124FD
:100AC200FCF5819009FAE0FAA3E0FB900CAE740306
:100AD200F0E4A3F08A828B831214D8AA82AB83EA51
:100AE20024FEF582EB3409F583E0FAA3E0FBA3E0F0
:100AF200FC8A828B838CF01211A79009FAE0FAA388
:100B0200E0FB900CAE7403F0E4A3F08A828B83C006
:100B120002C0031214D8AC82AD83D003D002EC24FD
:100B2200FEF582ED3409F583E4F0A3F0A3F08A82A6
:100B32008B831206029009F8E0FAA3E0FB1ABAFFCF
:100B4200011B9009F8EAF0A3EBF022900D25E0C01A
:100B5200E0A3E0C0E074B7C0E07427C0E01213D095
:100B6200E58124FCF581900D27E0C0E0A3E0C0E020
:100B720074DDC0E07427C0E01213D0E58124FCF5D7
:100B8200819009FCE0C0E0A3E0C0E07403C0E0741F
:100B920028C0E01213D0E58124FCF5817426C0E060
:100BA2007428C0E01213D015811581900C6FE4F007
:100BB200A3F0900C6FE0FAA3E0FB9009FCE0FCA329
:100BC200E0FDC3EA9CEB9D503574012AFCE43BFD39
:100BD200C002C003C004C005744BC0E07428C0E06A
:100BE2001213D0E58124FAF581900C6FE0FAA3E0AC
:100BF200FB900C6F74012AF0E43BA3F080B4745BA9
:100C0200C0E07428C0E01213D0158115817497C01A
:100C1200E07424C0E01213D015811581900C6FE4AA
:100C2200F0A3F0900C6FE0FAA3E0FB9009FCE0FC6B
:100C3200A3E0FDC3EA9CEB9D4003020F43900C79B5
:100C4200E4F0A3F0C002C0037480C0E07428C0E0E6
:100C52001213D0E58124FCF581900C6FE0FAA3E039
:100C6200FB8A04CC25E0CC33FDEC2475F582ED340F
:100C72000BF583E0FCA3E0FDC004C005C002C00385
:100C82007493C0E07428C0E01213D0E58124FAF511
:100C920081900C6FE0FAA3E0FB900CAE7403F0E4D9
:100CA200A3F08A828B83C002C0031214D8AC82AD37
:100CB20083D003D002EC24FEF582ED3409F583E003
:100CC200FCA3E0FDA3E0FEC004C005C002C00374A3
:100CD200ACC0E07428C0E01213D0E58124FAF5819B
:100CE200900C6FE0FAA3E0FB900CAE7403F0E4A367
:100CF200F08A828B83C002C0031214D8AC82AD8307
:100D0200D003D002EC24FEF582ED3409F583E0FC39
:100D1200A3E0FDA3E08A06EBCE25E0CE33FFEE246E
:100D220075F582EF340BF583E0FEA3E0FFEE2CFCB9
:100D3200EF3DFDC004C005C002C00374D1C0E07421
:100D420028C0E01213D0E58124FAF581900C6FE0FF
:100D5200FAA3E0FB900CAE7403F0E4A3F08A828B5A
:100D620083C002C0031214D8AC82AD83D003D00278
:100D7200EC24FEF582ED3409F583E0FCA3E0FDA34B
:100D8200E0FE900C79E0FFA3E0F8EF2CFCE83DFDDB
:100D92008C828D838EF01221A6FC600D900C7974EA
:100DA200012FF0E438A3F080A38A04EBCC25E0CC39
:100DB20033FDEC2475F582ED340BF583E0FCA3E002
:100DC200FDECC39FFFED98F8C007C000C002C0034E
:100DD20074F4C0E07428C0E01213D0E58124FAF55F
:100DE20081900C6FE0FAA3E0FB4A6003020F0990C6
:100DF2000C75E4F0A3F0900D25E0C0E0A3E0C0E0A4
:100E0200C002C0037413C0E07429C0E01213D0E51D
:100E12008124FAF581900D25E0FCA3E0FDBC0005DC
:100E2200BD0002800F7445C0E07429C0E01213D0E7
:100E320015811581900C75E0FCA3E0FD900D25E075
:100E4200FEA3E0FFC3EC9EED9F4003020ED1900C87
:100E52007BE4F0A3F0900C75E0FCA3E0FD900C7D28
:100E6200E0F8A3E0F9EC28F582ED39F583E0FCF532
:100E72008212053D900C75E0FCA3E0FD900C7DE034
:100E8200F8A3E0F9EC28F582ED39F583E4F0900C53
:100E92007574012CF0E43DA3F0900C7BE0FCA3E020
:100EA200FD900C7B74012CF0E43DA3F0900C7BE0F0
:100EB200FCA3E0FDC3EC9420ED940040987497C02D
:100EC200E07424C0E01213D015811581020E36BEE3
:100ED2000005BF000280117463C0E07429C0E012F3
:100EE20013D015811581800F7478C0E07429C0E099
:100EF2001213D015811581900D25E4F0A3F0900C0A
:100F020073E4F0A3F08015C002C0037493C0E074D0
:100F120029C0E01213D0E58124FCF58174C1C0E040
:100F22007429C0E01213D015811581900C6FE0FA7C
:100F3200A3E0FB900C6F74012AF0E43BA3F0020CD7
:100F420025900C8BE0C0E0A3E0C0E07407C0E07421
:100F52002AC0E01213D0E58124FCF581900C8BE4C9
:100F6200F0A3F0227444C0E0742AC0E07480C0E0B0
:100F72001214F8158115811581900C6FE4F0A3F01D
:100F8200900D25E0FAA3E0FB4A700F7462C0E07492
:100F92002AC0E01213D015811581900C6FE0FAA3DC
:100FA200E0FB900D25E0FCA3E0FDC3EA9CEB9D4035
:100FB2000302104EEA540F600280447497C0E0743A
:100FC20024C0E07480C0E01214F8158115811581E7
:100FD200900C6FE0FAA3E0FB900C7DE0FCA3E0FD37
:100FE200EA2CFAEB3DFBC002C003748FC0E0742A06
:100FF200C0E07480C0E0121907E58124FBF58190FE
:101002000C6FE0FAA3E0FB900C7DE0FCA3E0FDEAAC
:101012002CF582EB3DF583E0FA3395E0FBC002C08C
:10102200037495C0E0742AC0E07480C0E01219070E
:10103200E58124FBF581900C6FE0FAA3E0FB900CB4
:101042006F74012AF0E43BA3F0020F9C7497C0E096
:101052007424C0E01213D01581158122900C6FE424
:10106200F0A3F0900C6FE0FAA3E0FB9009FCE0FC27
:10107200A3E0FDC3EA9CEB9D5071900CAE7403F0AB
:10108200E4A3F08A828B831214D8AA82AB83EA2467
:10109200FEF582EB3409F583E0FAA3E0FBA3E0FC62
:1010A2008A828B838CF01211A7900C6FE0FAA3E076
:1010B200FB900CAE7403F0E4A3F08A828B83C0022F
:1010C200C0031214D8AC82AD83D003D002EC24FE4C
:1010D200F582ED3409F583E4F0A3F0A3F0900C6FF0
:1010E20074012AF0E43BA3F0021065900C7DE0FA53
:1010F200A3E0FB7C008A828B838CF01211A7900CF8
:101102007FE0FAA3E0FB7C008A828B838CF01211D1
:10111200A7749BC0E0742AC0E01213D01581158118
:101122007476C0E07427C0E01213D01581158122B5
:10243400456E74657220746865206275666665729F
:102444002073697A65206265747765656E2033321E
:1024540020616E64203234303020627974657320D8
:10246400646976697369626C6520627920380D0A43
:1024740000546865206275666665722073697A65C2
:1024840020796F7520656E746572656420697320A8
:102494003A20000D0A00506C6561736520656E7406
:1024A40065722061206E756D6265720D0A00546854
:1024B40065206275666665722073697A6520696E47
:1024C40074656765722076616C7565206973202573
:1024D400640D0A006D616C6C6F63206275666665DD
:1024E4007230206661696C65642C20506C65617380
:1024F4006520656E746572206120736D616C6C6516
:10250400722073697A650A0D006D616C6C6F6320CB
:1025140062756666657231206661696C65642C203B
:10252400506C6561736520656E74657220612073FB
:102534006D616C6C65722073697A650A0D006D615A
:102544006C6C6F632070617373656420666F7220B6
:10255400626F7468206275666665723020616E64AD
:1025640020627566666572310A0D000A0D456E7447
:1025740065722061206368617261637465720A0D1B
:1025840000546865206368617261637465722079C0
:102594006F7520656E7465726564206973203A20D6
:1025A40000497420697320612073746F72616765D8
:1025B400206368617261637465720A0D0042756616
:1025C400666572302069732066756C6C2C205468C3
:1025D400652063686172616374657220796F752028
:1025E400656E74657265642077696C6C206E6F74B7
:1025F4002062652073746F72656420696E2074684C
:1026040065206275666665720D0A0054686520630C
:10261400686172616374657220796F7520656E7488
:10262400657265642069733A2000697420697320B7
:102634006120636F6D6D616E6420636861726163B4
:102644007465720A0D004E6F206D61746368696E63
:102654006720636F6D6D616E64206368617261638E
:10266400746572730A0D0042756666657220637242
:1026740065617465640A0D0042756666657220734F
:102684006869667465640A0D00506C656173652041
:10269400656E7465722061206E657720627566666A
:1026A40065722073697A65206265747765656E204A
:1026B400323020616E64203430300A0D0054686575
:1026C400206275666665722073697A6520796F7514
:1026D40020656E74657265642069733A20006D61CB
:1026E4006C6C6F6320627566666572256420666132
:1026F400696C65642C20506C6561736520656E742B
:102704006572206120736D616C6C65722073697AE7
:10271400650A0D006D616C6C6F6320706173736585
:102724006420666F722062756666657225640A0DA0
:1027340000456E74657220612076616C6964206264
:102744007566666572206E756D6265720A0D005459
:10275400686520627566666572206E756D62657265
:1027640020796F7520656E74657265642069733AAB
:1027740020000A0D00456E74657220612076616C3C
:10278400696420627566666572206E756D62657235
:10279400206F74686572207468616E20300A0D00C1
:1027A40042756666657225642064656C657465644B
:1027B4000A0D004E756D626572206F662073746F2A
:1027C4007261676520636861726163746572732006
:1027D4006172652025640D0A004E756D6265722074
:1027E4006F6620636F6D6D616E64206368617261F2
:1027F4006374657273206172652025640D0A005448
:10280400686572652061726520256420627566665C
:1028140065727320696E2074686520686561700D47
:102824000A00546865206275666665727320637574
:102834007272656E746C7920696E206865617020AF
:102844006172653A0D0A005B25645D2062756666F7
:10285400657225640D0A005265706F7274206F668C
:1028640020656163682062756666657220696E2002
:1028740074686520686561703A0D0A004275666681
:1028840065722564207265706F72743A0D0A005384
:10289400697A65206F6620427566666572256420D4
:1028A40069732025640D0A005374617274696E673C
:1028B4002061646472657373206F66204275666676
:1028C400657225642069732025640D0A00456E64D1
:1028D400696E672061646472657373206F66204259
:1028E400756666657225642069732025640D0A0087
:1028F4004672656520737061636520696E20427558
:102904006666657225642069732025640D0A004E8D
:10291400756D626572206F662073746F726167658E
:10292400206368617261637465727320696E2062EA
:1029340075666665722564206172652025640D0ADA
:10294400005468652073746F726167652063686101
:1029540072616374657273206172653A0D0A004294
:1029640075666665723020697320656D707469657B
:10297400640D0A00427566666572302069732061D1
:102984006C726561647920656D7074790D0A005408
:102994006865726520617265206E6F2073746F7252
:1029A400616765206368617261637465727320692D
:1029B4006E2062756666657225640D0A002A2A2AED
:1029C4002A2A2A2A2A2A2A2A2A2A2A2A2A2A2A2A63
:1029D4002A2A2A2A2A2A2A2A2A2A2A2A2A2A2A2A53
:1029E4002A2A2A2A2A2A2A2A2A2A2A2A2A2A2A2A43
:1029F4002A2A2A2A2A2A2A2A2A2A2A2A2A2A2A2A33
:102A04000A0D004E756D626572206F662063686101
:102A14007261637465727320726563656976656457
:102A24002073696E6365206C61737420273F2720CF
:102A3400636F6D6D616E642069732025640D0A00F7
:102A44004865782076616C75657320696E204275DF
:102A5400666665722030206172653A0D0A0054681A
:102A640065726520617265206E6F2073746F726188
:102A74006765206368617261637465727320696E4F
:102A840020427566666572300D0A00253034583A66
:102A940000253032580900546865207370616365FD
:102AA40020616C6C6F636174656420746F2062755F
:102AB400666665727320696E207468652068656156
:0D2AC400702069732066726565640A0D005C
:062ADC00000000000000F4
:10113200AA83E582900C98F0A3EAF0900C98E0FA6A
:10114200A3E0FB4A700490000022EA24FCFAEB348C
:10115200FFFB900C9FE0FCA3E0FD900C9AECF0A347
:10116200EDF0900C96E4F0A3F0900C9AE0FCA3E072
:10117200FD4C6025EAB50406EBB50502801B900C18
:1011820096ECF0A3EDF08C828D83E0FCA3E0FD9061
:101192000C9AECF0A3EDF080D0900C9AE0FAA3E068
:1011A2008A82F58322AAF0AB83E582900C9CF0A39D
:1011B200EBF0A3EAF0900C9CE0FAA3E0FBA3E0FCC6
:1011C2008A828B83121132AA82AB83EA4B60289007
:1011D2000C96E0FCA3E0FD4C700B8A828B83A3A3E8
:1011E200E4F0A3F0228A828B83E0FAA3E0FB8C82F4
:0811F2008D83EAF0A3EBF0226B
:06003200E478FFF6D8FDA2
:100010007906E94400601B7A01902ADC782375A0F8
:100020000DE493F2A308B8000205A0D9F4DAF27542
:02003000A0FF2F
:1011FA00AA83E582900CA3F0A3EAF0900CA3E0FA8C
:10120A00A3E0FB900CA5EAF0A3EBF0EA4B70209068
:10121A000CA574012AF0E43BA3F0900CA1E0FAA318
:10122A00E0FB1ABAFF011B900CA1EAF0A3EBF090C5
:10123A000CA5E0FAA3E0FB900C9FEAF0A3EBF09078
:10124A000CA1E0FCA3E0FDEC2AFCED3BFDEC24FE46
:10125A00FCED34FFFD8A828B83ECF0A3EDF08C82E7
:10126A008D83E4F0A3F08A828B83A3A3E4F0A3F036
:10127A0022AA83E582900CA7F0A3EAF0900CA7E0DB
:10128A00FAA3E0FBC374FB9A74FF9B50049000001E
:10129A0022900CA774042AF0E43BA3F0900C9FE080
:1012AA00FAA3E0FB900CA9EAF0A3EBF0900CA7E0FC
:1012BA00F51EA3E0F51F900CA9E0FCA3E0FD8C82CB
:1012CA008D83E0FEA3E0FF8E008F018C028D03E880
:1012DA00C39AF8E99BF98C828D83A3A3E0FAA3E071
:1012EA00FBE8C39AF8E99BF9C3E8951EE9951F4004
:1012FA000D900CAB74042CF0E43DA3F08023900C09
:10130A00A9EEF0A3EFF0900CA9E0FAA3E0FB8A8221
:10131A008B83E0FAA3E0FB4A709C900CABE4F0A349
:10132A00F0900CABE0FAA3E0FB4A70030213AB9017
:10133A000CA9E0FAA3E0FB74022AFCE43BFD8C82D0
:10134A008D83E0FEA3E0FF4E7013900CA7E0F8A394
:10135A00E0F98C828D83E8F0A3E9F08044EE2AFE5E
:10136A00EF3BFF8A828B83E0FCA3E0FD8E828F83B2
:10137A00ECF0A3EDF08A828B83EEF0A3EFF0740217
:10138A002EFAE43FFB900CA7E0FCA3E0FD8A828BD7
:10139A0083ECF0A3EDF0900CAB74042EF0E43FA3C1
:1013AA00F0900CABE0FAA3E08A82F5832220F710D2
:1013BA0030F6118883A88220F507F6A88375830082
:1013CA0022F280F7F022C01D85811DE51D24FDF85B
:1013DA00868318868218E493A324DB600C24256094
:1013EA00051214BD80F00214D5D2D5E493A3C083AC
:1013FA00C082B4731486F018868318868218122164
:10140A00A66053A31214BD80F5B46307E61812143C
:10141A00BD8043B46417E630E74618E6F42401F6C3
:10142A0008E6F43400F6742D1214BD8033B4782D16
:10143A00868318868218E41214AEE5831214ADE589
:10144A00831214AEE5821214ADE5821214AE30D5C1
:10145A000574301214BDD082D0830213E0B475F63D
:10146A00E6FA18E6F9187C107D27121498FF7CE832
:10147A007D03121498C4F5837C647D00121498428B
:10148A0083E975F00A84C445F0F582EF80A97B00F0
:10149A000BC3E99CF9EA9DFA50F61BE92CF9EA3DDF
:1014AA00FAEB22C4540F700320D51FC2D52490D45E
:1014BA003440D4C083C082C0F0F582E8C0E012058F
:1014CA003DD0E0F8D0F0D082D08322D01D22AA836A
:1014DA00AB828BF0900CAEE0A4F8A9F08AF0E0A4FD
:0E14EA0029F98BF0A3E0A429F5838882222241
:100038007800E84400600A790075A000E4F309D864
:10004800FC7823E8440D600C790E900000E4F0A3DE
:0A005800D8FCD9FAC200C201C202AE
:1014F800C01D85811DE51D24FBFAE51D24FBF8862A
:10150800030886040886058B828C838DF01221A639
:10151800FE70030216E1BE250280030216C8C2024D
:10152800C201C200E51D24FBF874012BF6E43C0857
:10153800F608A605E51D24FBF88603088604088638
:10154800058B828C838DF01221A6FFBF680280175D
:10155800BF6C26D200E51D24FBF874012BF6E43C91
:1015680008F608A6058012D202E51D24FBF87401CE
:101578002BF6E43C08F608A605E51D24FBF88603CF
:101588000886040886058B828C838DF01221A6FBC1
:10159800BB63028022BB64028013BB6F02801DBB49
:1015A80073028005BB78188009D201801275080A79
:1015B800800D7508108008750800800375080830CC
:1015C8000147EA24FDF88802860908860A08860B7E
:1015D8001818AB09AC0AAD0B8B828C838DF01221E5
:1015E800A670030216D1AB09AC0AAD0B8B828C83B3
:1015F8008DF01221A6FB0509E4B50902050A8B82C4
:10160800C00212053DD00280C9300016EA24FCF859
:101618008802860C08860D08860E08860F1818188A
:101628008030300215EA14F888028603EBF50C3393
:1016380095E0F50DF50EF50F8018EA24FEF88802FE
:101648008603088604188B0CECF50D3395E0F50E2F
:10165800F50FE508605DAB0CAC0DAD0EAF0F900C4F
:10166800D87410F0A3E4F0A37440F0900CDBE50804
:10167800F08B828C838DF0EFC00212181ED0027599
:101688000910750A00750B40AB09AC0AAD0B8B82CB
:101698008C838DF01221A6FB0509E4B50902050A21
:1016A8008B1CBB00028022851C82C00212053DD023
:1016B8000280D5AB0C8B82C00212053DD002800996
:1016C8008E82C00212053DD002E51D24FBF874018C
:1016D80026F6E40836F6021502D01D22AA82AB834C
:1016E800ACF0FD900CB4EAF0A3EBF0A3ECF0A3EDA2
:1016F800F0900CB3E0FA7B201BEB24B8FCE4340C2C
:10170800FD900CB4E0FEA3E0FFA3E0F8A3E0F98AA3
:1017180022752300752400752500900D0DE522F033
:10172800A3E523F0A3E524F0A3E525F08E828F83BB
:1017380088F0E9C002C003C004C0051221C2AE820D
:10174800AF83A8F0F9D005D004D003D00274302EAE
:10175800FE8C828D83F08C828D83E0FEC374B98EFB
:10176800F063F08095F0500F8C828D83E0FE740753
:101778002EFE8C828D83F0900CB4E0FCA3E0FDA3D8
:10178800E0FEA3E0FF900D16E522F0A3E523F0A309
:10179800E524F0A3E525F08C828D838EF0EFC0025E
:1017A800C00312230BAC82AD83AEF0FFD003D0028E
:1017B800900CB4ECF0A3EDF0A3EEF0A3EFF0900CD6
:1017C800B4E0FCA3E0FDA3E0FEA3E0FFBC000BBD7A
:1017D8000008BE0005BF000280030217008B0290BC
:1017E8000CB0E0FBA3E0FCA3E0FD8A060AEE24B8F7
:1017F800F582E4340CF583E0FE8B828C838DF01245
:1018080013B7A3AB82AC83BA200040DE8B828C83F3
:101818008DF0E40213B7AA82AB83ACF0FD900CDC28
:10182800EAF0A3EBF0A3ECF0A3EDF0900CDCE0FA07
:10183800A3E0FBA3E0FCA3E0FD30E73F900CDBE076
:10184800FEBE0A37900CD8E0FEA3E0FFA3E0F88EB6
:10185800828F8388F0742D1213B7900CD874012EE0
:10186800F0E43FA3F0A3E8F0900CDCC3E49AF0E4C2
:101878009BA3F0E49CA3F0E49DA3F0900CDCE0FAB9
:10188800A3E0FBA3E0FCA3E0FD900CD8E0FEA3E0FE
:10189800FFA3E0F8900CDBE0F9900CB0EEF0A3EFBA
:1018A800F0A3E8F0900CB3E9F08A828B838CF0ED1A
:1018B8000216E4C01D85811DAA8212053DD01D2295
:1018C800AAF0AB83E582900CE1F0A3EBF0A3EAF079
:1018D800900CE1E0FAA3E0FBA3E0FC900CE0E0FD53
:1018E800900CF4E4F0A3F0A3F0900CF7EAF0A3EB6B
:1018F800F0A3ECF0900CFAEDF09018BB021A20C09F
:101908001D85811DE51D24FBFA900CF4E4F0A3F07D
:10191800A3F0E51D24FBF8900CF7E6F008A3E6F029
:1019280008A3E6F0900CFAEAF09018BB121A20AA65
:1019380082AB83D01D22E582900CF0F0900CF0E091
:10194800FA900CE6E0C0E0A3E0C0E0A3E0C0E074D9
:101958006CC0E07419C0E0900CE4E0C0E0A3E0C003
:10196800E08A8222158115811581900CEEE0FAA398
:10197800E0FB900CEE74012AF0E43BA3F022E58230
:10198800900CF1F0900CF1E0FA74302AFA24C65069
:101998000A74072AFA3003034302208A8202193E96
:1019A800E582900CF2F0900CF2E0FAC4540FFBF5CB
:1019B80082C002121986D00253020F8A8202198647
:1019C800E582900CF3F0900CE9E0FAA3E0FBA3E0C9
:1019D800FCA3E0FD900CEDE0FE900CF3E0FF782016
:1019E800EE2EFEED235401F94206EA2AFAEB33FB08
:1019F800EC33FCED33FDC3EE9F4007EEC39FFE437F
:101A08000201D8DC900CE9EAF0A3EBF0A3ECF0A318
:101A1800EDF0900CEDEEF022AA83E582900CFBF03D
:101A2800A3EAF0900CFBE0FAA3E0FB900CE4EAF0E8
:101A3800A3EBF0900CF4E0FAA3E0FBA3E0FC900C1D
:101A4800E6EAF0A3EBF0A3ECF0900CEEE4F0A3F0E0
:101A5800900CF7E0FAA3E0FBA3E0FC8A828B838C6E
:101A6800F01221A6FD900CF774012AF0E43BA3F0D4
:101A7800A3ECF0ED7003022147BD2502800302218B
:101A88003FC204C205C206C207C208C209C20AC2CE
:101A98000B900CFDE4F0900CFEF0900CFF74FFF03E
:101AA800900CF7E0FAA3E0FBA3E0FC8A828B838C1E
:101AB800F01221A6FEA3AA82AB83900CF7EAF0A34A
:101AC800EBF0A3ECF0900D01EEF0BE25088E82122B
:101AD800193E021A588E07BF300040498E07EF247E
:101AE800C64042900CFFE0FFBFFF29C002C003C000
:101AF80004900CFEE0FA75F00AA4FAEE24D0900CDB
:101B0800FE2AF0900CFEE0FAD004D003D002709BBD
:101B1800D2058097EF75F00AA4FFEE24D0900CFF51
:101B28002FF0021AB3900D01E0FEBE2E08900CFFB4
:101B3800E4F0021AB38E82C002C003C004C00612C9
:101B48002417E58224FF9203D006D004D003D002E4
:101B5800300307900D0174DF5EF0900D01E0FEBECA
:101B680020028055BE2B02804BBE2D028041BE4212
:101B780002804BBE43028050BE4403021DB4BE46E1
:101B880003021DD6BE4903021DB4BE4C028034BEFA
:101B98004F03021DBEBE5003021D16BE53028042F3
:101BA800BE5503021DC6BE5803021DCE021DDAD261
:101BB80004021AB3D206021AB3D207021AB3D20920
:101BC800021AB3D20A021AB3900CFAE0FA24FEF809
:101BD800900CFAF08602088603188A8212193E02CF
:101BE8001DE6900CFAE0FA24FDF8900CFAF0860253
:101BF8000886030886041818900CE9EAF0A3EBF0AD
:101C0800A3ECF0900CE9E0FAA3E0FBA3E0FC8A82E5
:101C18008B838CF0122153AA82AB83900CFFE0FBDC
:101C2800BBFF05900CFFEAF0200438900CFEE0FBA7
:101C3800C3EA9B502E900CFEEBC39AF0900CFEE08A
:101C4800FB8B041B900CFEEBF0BC0002801075822D
:101C580020C002C00312193ED003D00280E3900CCA
:101C6800FEEBF0900CFFE0FDC002900CE9E0FCA355
:101C7800E0FFA3E0FA8C828F838AF01221A6D002BB
:101C880060538D041DC374808CF063F08095F05010
:101C980044C002900CE9E0F526A3E0F527A3E0F59F
:101CA8002874012526FBE43527FAAC28900CE9EBCB
:101CB800F0A3EAF0A3ECF08526828527838528F037
:101CC8001221A6FAF582C002C00512193ED005D02D
:101CD80002D0028093200403021DE6900CFEE0FB74
:101CE800C3EA9B4003021DE6900CFEEBC39AF090FA
:101CF8000CFEE0FA8A031A900CFEEAF0BB0003021D
:101D08001DE1758220C00212193ED00280E6900CB7
:101D1800FAE0FB24FDF8900CFAF086030886040824
:101D280086071818900CE9EBF0A3ECF0A3EFF090FD
:101D38000CEBE0FB247F5008900D017443F08020E9
:101D4800EB249F5008900D017450F08013EB24BFD2
:101D58005008900D017449F08006900D017458F0F8
:101D6800900D01E0FBF582C00312193ED003758285
:101D78003AC00312193ED003758230C00312193ECF
:101D8800D003758278C00312193ED003BB49028084
:101D98000FBB5002800A900CEAE0FBF5821219A8EA
:101DA800900CE9E0FBF5821219A88032D208900C59
:101DB800FD740AF08028900CFD7408F08020900CC7
:101DC800FD740AF08018900CFD7410F08010D20B8E
:101DD800800C8E8212193E8005900CFEEAF0300BC2
:101DE8006B900CFAE0FA24FCF8900CFAF0860208E2
:101DF8008603088604088606181818900CE9EAF085
:101E0800A3EBF0A3ECF0A3EEF0900CE974D1F0A3EF
:101E1800742AF0A37480F0900CE9E0FBA3E0FCA323
:101E2800E0FD74012BFEE43CFF8D02900CE9EEF01E
:101E3800A3EFF0A3EAF08B828C838DF01221A6FA2F
:101E48007003021A588A8212193E80CB900CFDE06A
:101E5800FABA0003021A58900D087407F0A3740D1B
:101E6800F030094C900CFAE0FA14F8900CFAF0866D
:101E780002EA3395E0FBFCFE900CE9EAF0A3EBF0F4
:101E8800A3ECF0A3EEF0300803021F2E900CE9E05B
:101E9800FAA3E0FBA3E0FCA3E0FE7B007C007E004D
:101EA800900CE9EAF0A3EBF0A3ECF0A3EEF0807657
:101EB800300A2A900CFAE0FA24FCF8900CFAF08622
:101EC80002088603088604088606181818900CE984
:101ED800EAF0A3EBF0A3ECF0A3EEF08049900CFA43
:101EE800E0FA24FEF8900CFAF0860208860318EB54
:101EF8003395E0FCFE900CE9EAF0A3EBF0A3ECF0DC
:101F0800A3EEF0200820900CE9E0FAA3E0FBA3E0A0
:101F1800FCA3E0FE7C007E00900CE9EAF0A3EBF065
:101F2800A3ECF0A3EEF030083E900CE9E0FAA3E051
:101F3800FBA3E0FCA3E0FE30E72B900CE9E0FAA35A
:101F4800E0FBA3E0FCA3E0FEC3E49AFAE49BFBE415
:101F58009CFCE49EFE900CE9EAF0A3EBF0A3ECF005
:101F6800A3EEF08002C208D20C900CFDE0FC7529AB
:101F780007752A0D7D00900CEDE4F08C82C004C03A
:101F8800051219C8D005D004200C32C004900CEDFD
:101F9800E0FFC4FF852982852A83E0FA4207852964
:101FA80082852A83EFF0152974FFB52902152A9036
:101FB8000D08E529F0A3E52AF0D004800C900CED7B
:101FC800E0FF852982852A83F00D900D00EDF0B29F
:101FD8000C900CE9E0FFA3E0FAA3E0FEA3E0FBEF1E
:101FE8004A4E4B7091900D08E529F0A3E52AF09030
:101FF8000D00EDF0900CFEE0FA7006900CFE7401F6
:10200800F020052720042474012DFA900CFEE0FB33
:10201800C3EA9B5011758220C002C00312193ED03A
:1020280003D0021B80EA900CFEEBF0300812758298
:102038002D12193E900CFEE0FA14900CFEF0802F41
:10204800900D00E0FA602830061275822B12193EB6
:10205800900CFEE0FA14900CFEF080133007107517
:10206800822012193E900CFEE0FA14900CFEF0202B
:10207800042F900D00E0FA900CFEE0FB8B041B90FF
:102088000CFEEBF0C3EA9C50363005047C3080022D
:102098007C208C82C002C00312193ED003D002807B
:1020A800DB900CFEE0FA900D00E0FCC39A5009901A
:1020B8000CFEEAC39CF0800C900CFEE4F0800590C6
:1020C8000CFEEBF0900D08E0FAA3E0FB900D00E0A9
:1020D800FC8C061CEE6040B20C200C150ABA0001FC
:1020E8000B8A828B83E0FEC4540FFE900CEDF080C7
:1020F8000E8A828B83E0FE53060F900CEDEEF09073
:102108000CEDE0FEF582C002C003C004121986D0AF
:1021180004D003D00280BA200403021A58900CFE9F
:10212800E0FA8A031AEB7003021A58758220C0027B
:1021380012193ED00280EB8D8212193E021A589075
:0B2148000CEEE0FAA3E08A82F583228F
:0B2AD1003C4E4F20464C4F41543E004D
:10215300AAF0AB83E582900D0AF0A3EBF0A3EAF0BB
:102163007A007B00900D0AE0FCA3E0FDA3E0FE8C67
:10217300828D838EF01221A6FFA3AC82AD83900DD6
:102183000AECF0A3EDF0A3EEF0EF60070ABA00DF6C
:102193000B80DC900D0AECF0A3EDF0A3EEF08A8245
:0321A3008B832209
:0D00030075812E12006AE58260030200651F
:1021A60020F71430F6148883A88220F507E6A88362
:1021B60075830022E280F7E49322E022AA82AB83B1
:1021C600ACF0FD900D11EAF0A3EBF0A3ECF0A3ED5B
:1021D600F0900D15E4F0900D11E0FAA3E0FBA3E0FA
:1021E600FCA3E0FD7E00900D0DE0F52BA3E0F52CA1
:1021F600A3E0F52DA3E0F52EE52E235401FF70781C
:10220600C006E52B25E0FFE52C33F8E52D33F9E58F
:102216002E33FE900D0DEFF0A3E8F0A3E9F0A3EE48
:10222600F0900D0DE0F52BA3E0F52CA3E0F52DA322
:10223600E0F52EC3EA952BEB952CEC952DED952E1E
:10224600E433D0066029E52EC313F52EE52D13F5EC
:102256002DE52C13F52CE52B13F52B900D0DE52B09
:10226600F0A3E52CF0A3E52DF0A3E52EF080090EF2
:10227600900D15EEF00221EC900D15E0FA900D117F
:10228600E0FBA3E0FCA3E0FDA3E0FE900D0DE0F56E
:102296002BA3E0F52CA3E0F52DA3E0F52EC3EB95DB
:1022A6002BEC952CED952DEE952E4017900D11EB00
:1022B600C3952BF0EC952CA3F0ED952DA3F0EE95A0
:1022C6002EA3F0900D0DE0FBA3E0FCA3E0FDA3E040
:1022D600FEC313FEED13FDEC13FCEB13FB900D0D8B
:1022E600F0A3ECF0A3EDF0A3EEF08A031AEB708DE9
:1022F600900D11E0FAA3E0FBA3E0FCA3E0FD8A82C7
:102306008B838CF022AA82AB83ACF0FD900D1AEA87
:10231600F0A3EBF0A3ECF0A3EDF0900D1EE4F0A318
:10232600F0A3F0A3F0900D16E0FAA3E0FBA3E0FC07
:10233600A3E0FD752B20900D1AE0FFA3E0F8A3E0C3
:10234600F9A3E0FE33920DEF2FFFE833F8E933F9F6
:10235600EE33FE900D1AEFF0A3E8F0A3E9F0A3EE3A
:10236600F0900D1EE0FEA3E0FFA3E0F8A3E0F9EE77
:102376002EFEEF33FFE833F8E933F9900D1EEEF049
:10238600A3EFF0A3E8F0A3E9F0300D1E900D1EE0D8
:10239600FFA3E0F8A3E0F9A3E0FE900D1E74014F41
:1023A600F0A3E8F0A3E9F0A3EEF0900D1EE0FEA383
:1023B600E0FFA3E0F8A3E0F9C3EE9AEF9BE89CE9FF
:1023C6009D4031900D1EEEC39AF0EF9BA3F0E89C62
:1023D600A3F0E99DA3F0900D1AE0FEA3E0FFA3E0B1
:1023E600F8A3E0F9900D1A74014EF0A3EFF0A3E8FC
:1023F600F0A3E9F0D52B02800302233C900D1AE0EE
:10240600FAA3E0FBA3E0FCA3E0FD8A828B838CF0B9
:1024160022E582900D22F0900D22E0FABA6100408A
:0E24260009EA24854004758201227582002295
:00000001FF
