:03000000020003F8
:1000620002006512007E80FE438E0C758920758D1C
:10007200FA759850D28ED299900000229009F874A5
:1000820002F0E4A3F09009FC7402F0E4A3F0900CF7
:100092008F74C4F0A37409F090000212136D74A758
:1000A200C0E07425C0E0121543158115811210AD10
:1000B200AA82AB83ACF0C002C003C00474E8C0E003
:1000C2007425C0E012154315811581D004D003D0E8
:1000D200028A828B838CF0C002C003C004121130EA
:1000E200D004D003D002C002C003C004740AC0E02E
:1000F2007426C0E012154315811581D004D003D0B7
:1001020002900C77E4F0A3F07D007E00ED2AFFEE72
:100112003BF88C018F82888389F0122319FF602CAF
:10012200C3EF648094B0401274B98FF063F080958D
:10013200F040070DBD00D50E80D2740DC0E07426CC
:10014200C0E0121543158115810200A0900D11E443
:10015200F0A3F07D007E00ED2AFFEE3BF88C018FCC
:1001620082888389F0122319FF605EC002C003C037
:1001720004900D11E0F8A3E0F9900C9C740AF0E4ED
:10018200A3F088828983C002C003C004C005C006F0
:10019200C00712164BA882A983D007D006D005D07B
:1001A20004D003D002EF3395E0FAEF24D0FFEA3413
:1001B200FFFA900D11EF28F0EA39A3F00DBD00010E
:1001C2000ED004D003D002808E900D11E0C0E0A3C7
:1001D200E0C0E07425C0E07426C0E0121543E5815A
:1001E20024FCF581900D11E0FAA3E0FB74075AFCA0
:1001F2007D00BC0005BD000280030200A0C3EA949A
:1002020020EB940050030200A0C374609A74099B0F
:1002120050030200A08A828B831213EEAA82AB8360
:10022200EA4B702EC002C003744BC0E07426C0E0DB
:1002320012154315811581D003D0028A048B057EE5
:10024200008C828D838EF0C002C00312131AD00379
:10025200D002900D11E0FCA3E0FD8C828D83C002E0
:10026200C0031213EE85820A85830BD003D002E508
:100272000A450B7045C002C0037480C0E07426C0FA
:10028200E012154315811581D003D002AE0AAF0BDF
:1002920078008E828F8388F0C002C00312131AD0B6
:1002A20003D0028A068B0778008E828F8388F0C083
:1002B20002C00312131AD003D002EA4B70030200E9
:1002C200A0E50A450B70030200A0C002C00374B58A
:1002D200C0E07426C0E012154315811581D003D009
:1002E200028A068B0778009009FEEEF0A3EFF0A3D6
:1002F200E8F0AE0AAF0B7800900A01EEF0A3EFF03F
:10030200A3E8F0900D11E0FEA3E0FF900B75EEF074
:10031200A3EFF0900B77EEF0A3EFF0900C71E4F006
:10032200A3F0E4F50EF50FC002C00374E2C0E0745E
:1003320026C0E012154315811581D003D002C002F8
:10034200C003121126A882D003D002C002C003C08B
:100352000074F8C0E07426C0E012154315811581BF
:10036200D000D003D0028882C002C003C0001211A4
:1003720014D000D003D002C002C003C000740AC06F
:10038200E07426C0E012154315811581D000D00318
:10039200D002C3E8648094E1400B74FA88F063F001
:1003A2008095F0501AC3E8648094B050030204921E
:1003B200C374B988F063F08095F05003020492C0D0
:1003C20002C003C0007418C0E07427C0E0121543D5
:1003D20015811581D000D003D002900B75E0F9A3EE
:1003E200E0FC19B9FF011C900C71E0FDA3E0FEC313
:1003F200E99DEC9E505CC002C003C0007434C0E0B2
:100402007427C0E012154315811581D000D003D0A6
:1004120002C002C003C0007482C0E07427C0E012B0
:10042200154315811581D000D003D0028882C00205
:10043200C003121114D003D002C002C003740AC058
:10044200E07426C0E012154315811581D003D00255
:100452008028ED2AF582EE3BF583E8F0900C71746A
:10046200012DF0E43EA3F0900C77E0F9A3E0FC90BC
:100472000C77740129F0E43CA3F0900C79E0FCA322
:10048200E0FD900C7974012CF0E43DA3F002032905
:10049200C002C003C00074A1C0E07427C0E01215FE
:1004A2004315811581D000D003D002050EE4B50EAC
:1004B20002050F900C79E0FCA3E0FD900C79740129
:1004C2002CF0E43DA3F0B82B02801BB82D030208E8
:1004D2002EB83D03020EABB83F03020A63B84003D5
:1004E200020FCA021093C002C00374BDC0E0742799
:1004F200C0E012154315811581D003D002C002C09D
:10050200031210ADAC82AD83A8F0D003D002C002BA
:10051200C003C004C005C00074F1C0E07427C0E08D
:1005220012154315811581D000D005D004D003D017
:10053200028C828D8388F0C002C003C004C005C053
:1005420000121130D000D005D004D003D002C00276
:10055200C003C004C005C000740AC0E07426C0E035
:1005620012154315811581D000D005D004D003D0D7
:1005720002900C75E4F0A3F0E4F508F509E5082C07
:10058200F9E5093DFE880789828E838FF0122319CF
:10059200FEE4BE0001047037C3EE648094B04015DF
:1005A20074B98EF063F08095F0400A0508E4B5084E
:1005B200CC050980C8C002C003740DC0E07426C017
:1005C200E012154315811581D003D0020204E8E43C
:1005D200F508F509E5082CF9E5093DFE8807898249
:1005E2008E838FF0122319FFE4BF000104705A902A
:1005F2000C75E0F9A3E0FE900C9C740AF0E4A3F001
:1006020089828E83C002C003C004C005C007C00037
:1006120012164B85820C85830DD000D007D005D0F1
:1006220004D003D002EFF93395E0FEE924D0F9EECD
:1006320034FFFE900C75E9250CF0EE350DA3F005A4
:1006420008E4B5088F0509808B900C75E0FCA3E0E7
:10065200FDC002C003C004C005C004C0057425C0AB
:10066200E07426C0E0121543E58124FCF581D00533
:10067200D004D003D002C3EC9414ED9400500302D2
:1006820004E8C374909C74019D50030204E890092D
:10069200F8E0F8A3E0F9900C9C7403F0E4A3F0886E
:1006A200828983C002C003C004C00512164BA8820F
:1006B200A983D005D004D003D002E824FEF8E9349F
:1006C20009F98C828D83C002C003C000C0011211DF
:1006D20084AC82AD83AEF0D001D000D003D00288CA
:1006E200828983ECF0A3EDF0A3EEF09009F8E0FF2D
:1006F200A3E0F8900C9C7403F0E4A3F08F8288834B
:10070200C002C003C007C00012164BAC82AD83D03A
:1007120000D007D003D002EC24FEF582ED3409F5B7
:1007220083E0FCA3E0FDA3E0FEEC4D4E7064C0024A
:10073200C003C007C0007412C0E07428C0E01215E4
:1007420043E58124FCF581D003D0029009F8E0FC56
:10075200A3E0FD900C9C7403F0E4A3F08C828D83E3
:10076200C002C00312164BAC82AD83D003D002ECA0
:1007720024FEF582ED3409F583E0FCA3E0FDA3E05D
:10078200F88C828D8388F0C002C00312131AD00342
:10079200D0029009F8E0FCA3E0FD900C9C7403F0F9
:1007A200E4A3F08C828D83C002C003C004C0051292
:1007B200164BA882A983D005D004D003D002E82426
:1007C200FEF582E93409F583E0F8A3E0F9A3E0FE3F
:1007D200E8494E70030204E8C002C003C004C00529
:1007E2007448C0E07428C0E0121543E58124FCF58A
:1007F20081D003D0029009F8E0FCA3E0FD8C06CE84
:1008020025E0CE33FFEE2475FEEF340BFF900C751E
:10081200E0F8A3E0F98E828F83E8F0A3E9F0900973
:10082200F874012CF0E43DA3F0020329C002C003D6
:100832007465C0E07428C0E012154315811581D09B
:1008420003D002C002C0031210ADAC82AD83AEF081
:10085200D003D002C002C003C004C005C006748326
:10086200C0E07428C0E012154315811581D006D06E
:1008720005D004D003D0028C828D838EF0C002C0DA
:1008820003C004C005C006121130D006D005D00442
:10089200D003D002C002C003C004C005C00674A6C3
:1008A200C0E07428C0E012154315811581D006D02E
:1008B20005D004D003D0029009FAE4F0A3F07F003F
:1008C2007800C002C003EF2CF9E83DFA8E0389825A
:1008D2008A838BF0122319F50CE50C7004740180E5
:1008E20001E4D003D002705EC004C005C0069009C6
:1008F200FAE0F9A3E0FC900C9C740AF0E4A3F089FE
:10090200828C83C002C003C006C007C00012164B0F
:10091200AC82AD83D000D007D006D003D002AE0C9B
:10092200E50C3395E0F9EE24D0FEE934FFF99009A5
:10093200FAEE2CF0E93DA3F00FBF000108D006D07B
:1009420005D0040208C49009FCE0FCA3E0FD1CBC35
:10095200FF011D9009FAE0FEA3E0FFC3EC9EED9FAC
:10096200501AC002C0037465C0E07428C0E01215BA
:100972004315811581D003D002020329EE4F701A6C
:10098200C002C00374A9C0E07428C0E01215431568
:10099200811581D003D002020329C002C003C00620
:1009A200C00774D4C0E07428C0E0121543E5812466
:1009B200FCF581D003D0029009FAE0FCA3E0FD909F
:1009C2000C9C7403F0E4A3F08C828D83C002C003FC
:1009D20012164BAC82AD83D003D002EC24FEF5821A
:1009E200ED3409F583E0FCA3E0FDA3E0FE8C828DEB
:1009F200838EF0C002C00312131AD003D0029009F2
:100A0200FAE0FCA3E0FD900C9C7403F0E4A3F08CEC
:100A1200828D83C002C003C004C00512164BAE8291
:100A2200AF83D005D004D003D002EE24FEF582EFCE
:100A32003409F583E4F0A3F0A3F08C828D83C00225
:100A4200C0031211D9D003D0029009F8E0FCA3E050
:100A5200FD1CBCFF011D9009F8ECF0A3EDF00203B0
:100A620029C002C003900C77E0C0E0A3E0C0E074AC
:100A7200E7C0E07428C0E0121543E58124FCF5814B
:100A8200D003D002C002C003C00EC00F740DC0E07C
:100A92007429C0E0121543E58124FCF581D003D00E
:100AA20002C002C0039009FCE0C0E0A3E0C0E07411
:100AB20033C0E07429C0E0121543E58124FCF581BE
:100AC200D003D002C002C0037456C0E07429C0E053
:100AD20012154315811581D003D002900C6FE4F0FA
:100AE200A3F0900C6FE0FCA3E0FD9009FCE0FEA3F4
:100AF200E0FFC3EC9EED9F503A74012CFEE43DFFF3
:100B0200C002C003C006C007C004C005C006C007BB
:100B1200747BC0E07429C0E0121543E58124FAF524
:100B220081D007D006D003D002900C6FEEF0A3EF75
:100B3200F080AFC002C003748BC0E07429C0E01221
:100B4200154315811581D003D002E4F510F51190FB
:100B520009FCE0FEA3E0FFC3E5109EE5119F400300
:100B6200020E7EC002C003C002C003C010C01174D6
:100B7200AFC0E07429C0E0121543E58124FCF58181
:100B8200D003D002E51025E0FCE51133FDEC24751D
:100B9200F582ED340BF583E0F8A3E0F9C002C0035F
:100BA200C004C005C000C001C010C01174C2C0E0C2
:100BB2007429C0E0121543E58124FAF581D005D0ED
:100BC20004D003D002900C9C7403F0E4A3F08510CF
:100BD20082851183C002C003C004C00512164BA84F
:100BE20082A983D005D004D003D002E824FEF58286
:100BF200E93409F583E0FAA3E0FBA3E0FEC002C0FA
:100C020003C004C005C000C001C002C003C010C0C0
:100C12001174DBC0E07429C0E0121543E58124FAA7
:100C2200F581D001D000D005D004D003D002E82451
:100C3200FEF582E93409F583E0FAA3E0FBA3E0FEC6
:100C4200EC2475F582ED340BF583E0FEA3E0FFEEB4
:100C52002AFAEF3BFBC002C003C000C001C002C0C1
:100C620003C010C0117400C0E0742AC0E012154322
:100C7200E58124FAF581D001D000D003D002D0035F
:100C8200D002AE10AF11E824FEFCE93409FDE4F510
:100C92000CF50DC006C0078C828D83E0FEA3E0FF39
:100CA200A3E0F8E50C2EFEE50D3FFF8E828F8388D0
:100CB200F0122319FEE4BE000104D007D006700A28
:100CC200050CE4B50CCD050D80C98E00EFC825E0FA
:100CD200C833F9E82475F582E9340BF583E0F8A30B
:100CE200E0F9E8C3950CF8E9950DF9C002C003C01C
:100CF20006C007C000C001C006C0077423C0E0746C
:100D02002AC0E0121543E58124FAF581D007D00606
:100D1200D003D002EE4F6003020E56900C73E4F043
:100D2200A3F0900C77E0F8A3E0F9C002C003C00082
:100D3200C001C000C001C006C0077442C0E0742AEE
:100D4200C0E0121543E58124FAF581D001D000D02C
:100D520003D002B80005B900028017C002C00374B4
:100D620074C0E0742AC0E012154315811581D003C6
:100D7200D002900C77E0F8A3E0F9900C73E0FCA3AA
:100D8200E0FDC3EC98ED994003020E0E8C06E4F5EB
:100D920008F509C000C001EE2AF8ED3BF988828906
:100DA20083E0FCF582C002C003C005C006C000C0DB
:100DB20001121114D001D000D006D005D003D00208
:100DC20088828983E4F00EBE00010D0508E4B508AF
:100DD200020509C3E5089420E5099400D001D0007A
:100DE20040B1900C73EEF0A3EDF0C002C003C0005E
:100DF200C001740AC0E07426C0E0121543158115C3
:100E020081D001D000D003D002020D7CB80005B918
:100E120000028019C002C0037492C0E0742AC0E0CC
:100E220012154315811581D003D0028017C002C06C
:100E32000374A7C0E0742AC0E0121543158115811E
:100E4200D003D002900C77E4F0A3F0900C71E4F0A0
:100E5200A3F0801DC002C003C006C00774C2C0E078
:100E6200742AC0E0121543E58124FCF581D003D039
:100E7200020510E4B510020511020B51C002C003B5
:100E8200900C79E0C0E0A3E0C0E074F0C0E0742A06
:100E9200C0E0121543E58124FCF581D003D0029015
:100EA2000C79E4F0A3F0020329C002C003742DC040
:100EB200E0742BC0E07480C0E012166B15811581BE
:100EC2001581D003D002900C77E0FCA3E0FD4C70BA
:100ED20017C002C003744BC0E0742BC0E01215436C
:100EE20015811581D003D002900C77E0FCA3E0FDC0
:100EF2007E007F00C3EE9CEF9D4003020FB0EE54D4
:100F02000F7064C002C003C004C005C006C00774ED
:100F12000AC0E07426C0E07480C0E012166B15812E
:100F220015811581D007D006D005D004D003D00298
:100F3200EE2AF8EF3BF9C002C003C004C005C006A8
:100F4200C007C000C0017478C0E0742BC0E0748098
:100F5200C0E0121A7AE58124FBF581D007D006D0D1
:100F620005D004D003D002EE2AF582EF3BF583E0F0
:100F7200F83395E0F9C002C003C004C005C006C042
:100F820007C000C001747EC0E0742BC0E07480C052
:100F9200E0121A7AE58124FBF581D007D006D0054C
:100FA200D004D003D0020EBE00010F020EF6C00222
:100FB200C003740AC0E07426C0E0121543158115FF
:100FC20081D003D0020203297C007D009009FCE05D
:100FD200FEA3E0FFC3EC9EED9F5077C002C00390DA
:100FE2000C9C7403F0E4A3F08C828D83C002C003D6
:100FF200C004C00512164BAE82AF83D005D004D018
:1010020003D002EE24FEF582EF3409F583E0F8A363
:10101200E0F9A3E0FA888289838AF0C002C003C0A3
:1010220004C005C006C00712131AD007D006D005A7
:10103200D004D003D002EE24FEF582EF3409F5830A
:10104200E4F0A3F0A3F00CBC00010DD003D0020227
:101052000FCE8A048B057E008C828D838EF0121354
:101062001AAC0AAD0B7E008C828D838EF012131A9D
:101072007484C0E0742BC0E012154315811581748D
:10108200A6C0E07428C0E012154315811581020044
:10109200A0C002C00374BAC0E0742BC0E0121543B2
:1010A20015811581D003D002020329121126E5828F
:1010B200900C7BF07A007B00900C7BE0FCBC0D0274
:1010C2008029BC00028024EA24C6F582EB3409F5AB
:1010D20083ECF00ABA00010BC002C003121126E52C
:1010E20082D003D002900C7BF080CDEA24C6F58238
:1010F200EB3409F583E4F0EA24C6FAEB3409FB7C0D
:10110200008A828B838CF0E412152A9009C675F04E
:101112000022E582900C7CF03099FD900C7CE0F589
:1011220099C2992210980280FBAA998A8222AAF077
:10113200AB83E582900C7DF0A3EBF0A3EAF0900C78
:101142007DE0FAA3E0FBA3E0FC7D007E00ED2AFF38
:10115200EE3BF88C018F82888389F0122319FF609D
:10116200208F82C002C003C004C005C00612111441
:10117200D006D005D004D003D0020DBD00CF0E8022
:10118200CC22AA83E582900C80F0A3EAF0900C8036
:10119200E0FAA3E0FB8A828B831213EEAA82AB836E
:1011A2007C00C002C003C00474DBC0E0742BC0E04A
:1011B20012154315811581D004D003D0029009FC89
:1011C200E0FDA3E0FE9009FC74012DF0E43EA3F0E3
:1011D2008A828B838CF022AA83E582900C82F0A310
:1011E200EAF0900C82E0FAA3E0FB9009FCE0FCA399
:1011F200E0FD1CBCFF011DC3EA9CEB9D40030212F3
:1012020080900C9C7403F0E4A3F08A828B83C0026A
:10121200C00312164BAC82AD83D003D002EC24FE85
:10122200FCED3409FD8A060EEE75F003A424FEF5EA
:1012320082740935F0F583E0FFA3E0F8A3E0F98CAE
:10124200828D83EFF0A3E8F0A3E9F08A04EBCC25CA
:10125200E0CC33FDEC2475FCED340BFDEE2EFE24C8
:1012620075F582E4340BF583E0FEA3E0FF8C828DFA
:1012720083EEF0A3EFF00ABA00010B0211EC74EC5A
:10128200C0E0742BC0E0121543158115819009FC52
:10129200E0FAA3E0FB1ABAFF011B9009FCEAF0A3F3
:0312A200EBF0224C
:1025A700456E74657220746865206275666665722B
:1025B7002073697A65206265747765656E203332AA
:1025C70020616E6420323430302062797465732064
:1025D700646976697369626C6520627920380D0ACF
:1025E70000546865206275666665722073697A654E
:1025F70020796F7520656E74657265642069732034
:102607003A20000D0A00506C6561736520656E7491
:1026170065722061206E756D6265720D0A005468DF
:1026270065206275666665722073697A6520696ED2
:1026370074656765722076616C75652069732025FE
:10264700640D0A006D616C6C6F6320627566666568
:102657007230206661696C65642C20506C6561730B
:102667006520656E746572206120736D616C6C65A1
:10267700722073697A650A0D006D616C6C6F632057
:1026870062756666657231206661696C65642C20C7
:10269700506C6561736520656E7465722061207387
:1026A7006D616C6C65722073697A650A0D006D61E6
:1026B7006C6C6F632070617373656420666F722042
:1026C700626F7468206275666665723020616E6439
:1026D70020627566666572310A0D000A0D456E74D3
:1026E70065722061206368617261637465720A0DA7
:1026F700005468652063686172616374657220794C
:102707006F7520656E7465726564206973203A2061
:1027170000497420697320612073746F7261676563
:10272700206368617261637465720A0D00427566A1
:10273700666572302069732066756C6C2C2054684E
:10274700652063686172616374657220796F7520B3
:10275700656E74657265642077696C6C206E6F7442
:102767002062652073746F72656420696E207468D7
:1027770065206275666665720D0A00546865206398
:10278700686172616374657220796F7520656E7414
:10279700657265642069733A200069742069732043
:1027A7006120636F6D6D616E642063686172616340
:1027B7007465720A0D00506C6561736520656E74EF
:1027C70065722061206E6577206275666665722086
:1027D70073697A65206265747765656E203230208B
:1027E700616E64203430300A0D00546865206275CC
:1027F700666665722073697A6520796F7520656EE4
:1028070074657265642069733A20006D616C6C6F42
:1028170063206275666665722564206661696C650A
:10282700642C20506C6561736520656E7465722039
:102837006120736D616C6C65722073697A650A0D2E
:10284700006D616C6C6F63207061737365642066E3
:102857006F722062756666657225640A0D00456EA3
:1028670074657220612076616C69642062756666A2
:102877006572206E756D6265720A0D005468652079
:10288700627566666572206E756D62657220796F16
:102897007520656E74657265642069733A20000A55
:1028A7000D00456E74657220612076616C69642045
:1028B700627566666572206E756D626572206F74EB
:1028C700686572207468616E20300A0D0042756673
:1028D70066657225642064656C657465640A0D001D
:1028E7004E756D626572206F662073746F726167D3
:1028F70065206368617261637465727320617265D4
:102907002025640D0A004E756D626572206F662082
:10291700636F6D6D616E6420636861726163746576
:102927007273206172652025640D0A005468657210
:10293700652061726520256420627566666572731D
:1029470020696E2074686520686561700D0A0054FF
:102957006865206275666665727320637572726555
:102967006E746C7920696E2068656170206172658C
:102977003A0D0A005B25645D2062756666657225FF
:10298700640D0A005265706F7274206F662065616E
:1029970063682062756666657220696E2074686573
:1029A70020686561700D0A00427566666572256468
:1029B700207265706F72743A0D0A0053697A652048
:1029C7006F662042756666657225642069732025E7
:1029D700640D0A005374617274696E6720616464E0
:1029E70072657373206F662042756666657225642B
:1029F7002069732025640D0A00456E64696E67209F
:102A070061646472657373206F66204275666665DC
:102A17007225642069732025640D0A004672656576
:102A270020737061636520696E2042756666657202
:102A370025642069732025640D0A004E756D626553
:102A470072206F662073746F7261676520636861B7
:102A57007261637465727320696E2062756666655C
:102A6700722564206172652025640D0A005468652B
:102A77002073746F72616765206368617261637444
:102A8700657273206172653A0D0A00427566666564
:102A9700723020697320656D70746965640D0A0072
:102AA7004275666665723020697320616C72656174
:102AB700647920656D7074790D0A005468657265D4
:102AC70020617265206E6F2073746F726167652075
:102AD7006368617261637465727320696E206275E1
:102AE7006666657225640D0A004E756D6265722013
:102AF7006F662063686172616374657273207265C3
:102B07006365697665642073696E6365206C6173BC
:102B17007420273F2720636F6D6D616E6420697392
:102B27002025640D0A004865782076616C75657309
:102B370020696E2042756666657220302061726575
:102B47003A0D0A00546865726520617265206E6FE0
:102B57002073746F72616765206368617261637463
:102B670065727320696E20427566666572300D0A5C
:102B770000253034583A002530325809005468652A
:102B870020737061636520616C6C6F636174656449
:102B970020746F206275666665727320696E207493
:102BA7006865206865617020697320667265656471
:102BB7000A0D004E6F206D61746368696E6720634C
:102BC7006F6D6D616E6420636861726163746572B5
:102BD700730A0D00427566666572206372656174DB
:102BE70065640A0D004275666665722073686966DA
:062BF7007465640A0D0084
:022C08000000CA
:1012A500AA83E582900C86F0A3EAF0900C86E0FA1A
:1012B500A3E0FB4A700490000022EA24FCFAEB3418
:1012C500FFFB900C8DE0FCA3E0FD900C88ECF0A3F7
:1012D500EDF0900C84E4F0A3F0900C88E0FCA3E022
:1012E500FD4C6025EAB50406EBB50502801B900CA4
:1012F50084ECF0A3EDF08C828D83E0FCA3E0FD90FF
:101305000C88ECF0A3EDF080D0900C88E0FAA3E017
:101315008A82F58322AAF0AB83E582900C8AF0A33A
:10132500EBF0A3EAF0900C8AE0FAA3E0FBA3E0FC63
:101335008A828B831212A5AA82AB83EA4B6028901E
:101345000C84E0FCA3E0FD4C700B8A828B83A3A385
:10135500E4F0A3F0228A828B83E0FAA3E0FB8C827F
:081365008D83EAF0A3EBF022F6
:06003200E478FFF6D8FDA2
:100010007902E94400601B7A01902C08781175A0E0
:100020000DE493F2A308B8000205A0D9F4DAF27542
:02003000A0FF2F
:10136D00AA83E582900C91F0A3EAF0900C91E0FA3B
:10137D00A3E0FB900C93EAF0A3EBF0EA4B70209006
:10138D000C9374012AF0E43BA3F0900C8FE0FAA3C8
:10139D00E0FB1ABAFF011B900C8FEAF0A3EBF09063
:1013AD000C93E0FAA3E0FB900C8DEAF0A3EBF09028
:1013BD000C8FE0FCA3E0FDEC2AFCED3BFDEC24FEE4
:1013CD00FCED34FFFD8A828B83ECF0A3EDF08C8273
:1013DD008D83E4F0A3F08A828B83A3A3E4F0A3F0C2
:1013ED0022AA83E582900C95F0A3EAF0900C95E08B
:1013FD00FAA3E0FBC374FB9A74FF9B5004900000AA
:10140D0022900C9574042AF0E43BA3F0900C8DE02F
:10141D00FAA3E0FB900C97EAF0A3EBF0900C95E0AB
:10142D00F51CA3E0F51D900C97E0FCA3E0FD8C826C
:10143D008D83E0FEA3E0FF8E008F018C028D03E80B
:10144D00C39AF8E99BF98C828D83A3A3E0FAA3E0FC
:10145D00FBE8C39AF8E99BF9C3E8951CE9951D4093
:10146D000D900C9974042CF0E43DA3F08023900CA6
:10147D0097EEF0A3EFF0900C97E0FAA3E0FB8A82D1
:10148D008B83E0FAA3E0FB4A709C900C99E4F0A3E7
:10149D00F0900C99E0FAA3E0FB4A700302151E9040
:1014AD000C97E0FAA3E0FB74022AFCE43BFD8C826E
:1014BD008D83E0FEA3E0FF4E7013900C95E0F8A332
:1014CD00E0F98C828D83E8F0A3E9F08044EE2AFEEA
:1014DD00EF3BFF8A828B83E0FCA3E0FD8E828F833E
:1014ED00ECF0A3EDF08A828B83EEF0A3EFF07402A3
:1014FD002EFAE43FFB900C95E0FCA3E0FD8A828B75
:10150D0083ECF0A3EDF0900C9974042EF0E43FA35E
:10151D00F0900C99E0FAA3E08A82F5832220F7106F
:10152D0030F6118883A88220F507F6A8837583000D
:10153D0022F280F7F022C016858116E51624FDF8FB
:10154D00868318868218E493A324DB600C2425601F
:10155D000512163080F0021648D2D5E493A3C0834D
:10156D00C082B4731486F0188683188682181223ED
:10157D00196053A312163080F5B46307E6181216DE
:10158D00308043B46417E630E74618E6F42401F6DC
:10159D0008E6F43400F6742D1216308033B4782D2D
:1015AD00868318868218E4121621E583121620E52B
:1015BD0083121621E582121620E58212162130D5EE
:1015CD00057430121630D082D083021553B475F6DF
:1015DD00E6FA18E6F9187C107D2712160BFF7CE849
:1015ED007D0312160BC4F5837C647D0012160B422D
:1015FD0083E975F00A84C445F0F582EF80A97B007C
:10160D000BC3E99CF9EA9DFA50F61BE92CF9EA3D6A
:10161D00FAEB22C4540F700320D51FC2D52490D4E9
:10162D003440D4C083C082C0F0F582E8C0E012110E
:10163D0014D0E0F8D0F0D082D08322D01622AA8325
:10164D00AB828BF0900C9CE0A4F8A9F08AF0E0A49A
:0E165D0029F98BF0A3E0A429F58388822222CC
:100038007800E84400600A790075A000E4F309D864
:10004800FC7811E8440D600C790E900000E4F0A3F0
:0A005800D8FCD9FAC200C201C202AE
:10166B00C016858116E51624FBFAE51624FBF886D1
:10167B00030886040886058B828C838DF012231950
:10168B00FE7003021854BE2502800302183BC202EF
:10169B00C201C200E51624FBF874012BF6E43C08EA
:1016AB00F608A605E51624FBF886030886040886CB
:1016BB00058B828C838DF0122319FFBF6802801774
:1016CB00BF6C26D200E51624FBF874012BF6E43C24
:1016DB0008F608A6058012D202E51624FBF8740161
:1016EB002BF6E43C08F608A605E51624FBF8860362
:1016FB000886040886058B828C838DF0122319FBD8
:10170B00BB63028022BB64028013BB6F02801DBBD4
:10171B0073028005BB78188009D201801275220AEA
:10172B00800D752210800875220080037522083009
:10173B000147EA24FDF888028623088624088625BB
:10174B001818AB23AC24AD258B828C838DF0122320
:10175B00197003021844AB23AC24AD258B828C8308
:10176B008DF0122319FB0523E4B5230205248B828C
:10177B00C002121114D00280C9300016EA24FCF802
:10178B0088028626088627088628088629181818AE
:10179B008030300215EA14F888028603EBF5263305
:1017AB0095E0F527F528F5298018EA24FEF888023C
:1017BB008603088604188B26ECF5273395E0F5286D
:1017CB00F529E522605DAB26AC27AD28AF29900C3F
:1017DB00C6742AF0A3E4F0A37440F0900CC9E52280
:1017EB00F08B828C838DF0EFC002121991D00275B1
:1017FB00232A752400752540AB23AC24AD258B82A1
:10180B008C838DF0122319FB0523E4B523020524E9
:10181B008B36BB00028022853682C002121114D097
:10182B000280D5AB268B82C002121114D002800924
:10183B008E82C002121114D002E51624FBF874013B
:10184B0026F6E40836F6021675D01622AA82AB836A
:10185B00ACF0FD900CA2EAF0A3EBF0A3ECF0A3ED3F
:10186B00F0900CA1E0FA7B201BEB24A6FCE4340CDB
:10187B00FD900CA2E0FEA3E0FFA3E0F8A3E0F98A41
:10188B0012751300751400751500900CFBE512F022
:10189B00A3E513F0A3E514F0A3E515F08E828F8377
:1018AB0088F0E9C002C003C004C005122335AE8224
:1018BB00AF83A8F0F9D005D004D003D00274302E3A
:1018CB00FE8C828D83F08C828D83E0FEC374B98E87
:1018DB00F063F08095F0500F8C828D83E0FE7407DF
:1018EB002EFE8C828D83F0900CA2E0FCA3E0FDA376
:1018FB00E0FEA3E0FF900D04E512F0A3E513F0A3C7
:10190B00E514F0A3E515F08C828D838EF0EFC00209
:10191B00C00312247EAC82AD83AEF0FFD003D002A5
:10192B00900CA2ECF0A3EDF0A3EEF0A3EFF0900C73
:10193B00A2E0FCA3E0FDA3E0FEA3E0FFBC000BBD17
:10194B000008BE0005BF000280030218738B0290D3
:10195B000C9EE0FBA3E0FCA3E0FD8A060AEE24A6A6
:10196B00F582E4340CF583E0FE8B828C838DF012D0
:10197B00152AA3AB82AC83BA200040DE8B828C830A
:10198B008DF0E402152AAA82AB83ACF0FD900CCA51
:10199B00EAF0A3EBF0A3ECF0A3EDF0900CCAE0FAA5
:1019AB00A3E0FBA3E0FCA3E0FD30E73F900CC9E014
:1019BB00FEBE0A37900CC6E0FEA3E0FFA3E0F88E54
:1019CB00828F8388F0742D12152A900CC674012E09
:1019DB00F0E43FA3F0A3E8F0900CCAC3E49AF0E460
:1019EB009BA3F0E49CA3F0E49DA3F0900CCAE0FA57
:1019FB00A3E0FBA3E0FCA3E0FD900CC6E0FEA3E09C
:101A0B00FFA3E0F8900CC9E0F9900C9EEEF0A3EF69
:101A1B00F0A3E8F0900CA1E9F08A828B838CF0EDB7
:101A2B00021857C016858116AA82121114D01622DD
:101A3B00AAF0AB83E582900CCFF0A3EBF0A3EAF016
:101A4B00900CCFE0FAA3E0FBA3E0FC900CCEE0FD02
:101A5B00900CE2E4F0A3F0A3F0900CE5EAF0A3EB1A
:101A6B00F0A3ECF0900CE8EDF0901A2E021B93C053
:101A7B0016858116E51624FBFA900CE2E4F0A3F030
:101A8B00A3F0E51624FBF8900CE5E6F008A3E6F0CE
:101A9B0008A3E6F0900CE8EAF0901A2E121B93AA1A
:101AAB0082AB83D01622E582900CDEF0900CDEE048
:101ABB00FA900CD4E0C0E0A3E0C0E0A3E0C0E07477
:101ACB00DFC0E0741AC0E0900CD2E0C0E0A3E0C02D
:101ADB00E08A8222158115811581900CDCE0FAA336
:101AEB00E0FB900CDC74012AF0E43BA3F022E582CE
:101AFB00900CDFF0900CDFE0FA74302AFA24C65019
:101B0B000A74072AFA3003034302208A82021AB1AD
:101B1B00E582900CE0F0900CE0E0FAC4540FFBF57A
:101B2B0082C002121AF9D00253020F8A82021AF9EA
:101B3B00E582900CE1F0900CD7E0FAA3E0FBA3E078
:101B4B00FCA3E0FD900CDBE0FE900CE1E0FF7820C5
:101B5B00EE2EFEED235401F94206EA2AFAEB33FB93
:101B6B00EC33FCED33FDC3EE9F4007EEC39FFE430A
:101B7B000201D8DC900CD7EAF0A3EBF0A3ECF0A3B6
:101B8B00EDF0900CDBEEF022AA83E582900CE9F0ED
:101B9B00A3EAF0900CE9E0FAA3E0FB900CD2EAF098
:101BAB00A3EBF0900CE2E0FAA3E0FBA3E0FC900CBB
:101BBB00D4EAF0A3EBF0A3ECF0900CDCE4F0A3F090
:101BCB00900CE5E0FAA3E0FBA3E0FC8A828B838C0C
:101BDB00F0122319FD900CE574012AF0E43BA3F0FD
:101BEB00A3ECF0ED70030222BABD250280030222A2
:101BFB00B2C204C205C206C207C208C209C20AC2E7
:101C0B000B900CEBE4F0900CECF0900CED74FFF0FF
:101C1B00900CE5E0FAA3E0FBA3E0FC8A828B838CBB
:101C2B00F0122319FEA3AA82AB83900CE5EAF0A372
:101C3B00EBF0A3ECF0900CEFEEF0BE25088E8212C9
:101C4B001AB1021BCB8E07BF300040498E07EF2421
:101C5B00C64042900CEDE0FFBFFF29C002C003C09D
:101C6B0004900CECE0FA75F00AA4FAEE24D0900C78
:101C7B00EC2AF0900CECE0FAD004D003D002709B6D
:101C8B00D2058097EF75F00AA4FFEE24D0900CEDEF
:101C9B002FF0021C26900CEFE0FEBE2E08900CEDF0
:101CAB00E4F0021C268E82C002C003C004C00612E0
:101CBB00258AE58224FF9203D006D004D003D002FC
:101CCB00300307900CEF74DF5EF0900CEFE0FEBE7C
:101CDB0020028055BE2B02804BBE2D028041BE429E
:101CEB0002804BBE43028050BE4403021F27BE46F8
:101CFB0003021F49BE4903021F27BE4C028034BE9C
:101D0B004F03021F31BE5003021E89BE5302804295
:101D1B00BE5503021F39BE5803021F41021F4DD28D
:101D2B0004021C26D206021C26D207021C26D2094C
:101D3B00021C26D20A021C26900CE8E0FA24FEF8BC
:101D4B00900CE8F08602088603188A82121AB102F8
:101D5B001F59900CE8E0FA24FDF8900CE8F086028D
:101D6B000886030886041818900CD7EAF0A3EBF04A
:101D7B00A3ECF0900CD7E0FAA3E0FBA3E0FC8A8283
:101D8B008B838CF01222C6AA82AB83900CEDE0FB06
:101D9B00BBFF05900CEDEAF0200438900CECE0FB57
:101DAB00C3EA9B502E900CECEBC39AF0900CECE03A
:101DBB00FB8B041B900CECEBF0BC000280107582CB
:101DCB0020C002C003121AB1D003D00280E3900CE2
:101DDB00ECEBF0900CEDE0FDC002900CD7E0FCA317
:101DEB00E0FFA3E0FA8C828F838AF0122319D002D2
:101DFB0060538D041DC374808CF063F08095F0509C
:101E0B0044C002900CD7E0F517A3E0F518A3E0F55A
:101E1B001974012517FBE43518FAAC19900CD7EBA4
:101E2B00F0A3EAF0A3ECF08517828518838519F0EF
:101E3B00122319FAF582C002C005121AB1D005D0CF
:101E4B0002D0028093200403021F59900CECE0FB9C
:101E5B00C3EA9B4003021F59900CECEBC39AF09022
:101E6B000CECE0FA8A031A900CECEAF0BB000302CC
:101E7B001F54758220C002121AB1D00280E6900C5A
:101E8B00E8E0FB24FDF8900CE8F0860308860408D4
:101E9B0086071818900CD7EBF0A3ECF0A3EFF0909B
:101EAB000CD9E0FB247F5008900CEF7443F080209A
:101EBB00EB249F5008900CEF7450F08013EB24BF71
:101ECB005008900CEF7449F08006900CEF7458F0AA
:101EDB00900CEFE0FBF582C003121AB1D0037582B0
:101EEB003AC003121AB1D003758230C003121AB173
:101EFB00D003758278C003121AB1D003BB4902809C
:101F0B000FBB5002800A900CD8E0FBF582121B1B12
:101F1B00900CD7E0FBF582121B1B8032D208900C81
:101F2B00EB740AF08028900CEB7408F08020900C76
:101F3B00EB740AF08018900CEB7410F08010D20B3D
:101F4B00800C8E82121AB18005900CECEAF0300BEB
:101F5B006B900CE8E0FA24FCF8900CE8F086020891
:101F6B008603088604088606181818900CD7EAF022
:101F7B00A3EBF0A3ECF0A3EEF0900CD774FDF0A361
:101F8B00742BF0A37480F0900CD7E0FBA3E0FCA3C0
:101F9B00E0FD74012BFEE43CFF8D02900CD7EEF0BC
:101FAB00A3EFF0A3EAF08B828C838DF0122319FA46
:101FBB007003021BCB8A82121AB180CB900CEBE020
:101FCB00FABA0003021BCB900CF674F5F0A3740C59
:101FDB00F030094C900CE8E0FA14F8900CE8F0861D
:101FEB0002EA3395E0FBFCFE900CD7EAF0A3EBF092
:101FFB00A3ECF0A3EEF03008030220A1900CD7E085
:10200B00FAA3E0FBA3E0FCA3E0FE7B007C007E00D8
:10201B00900CD7EAF0A3EBF0A3ECF0A3EEF08076F4
:10202B00300A2A900CE8E0FA24FCF8900CE8F086D1
:10203B0002088603088604088606181818900CD721
:10204B00EAF0A3EBF0A3ECF0A3EEF08049900CE8E0
:10205B00E0FA24FEF8900CE8F0860208860318EBF1
:10206B003395E0FCFE900CD7EAF0A3EBF0A3ECF079
:10207B00A3EEF0200820900CD7E0FAA3E0FBA3E03E
:10208B00FCA3E0FE7C007E00900CD7EAF0A3EBF003
:10209B00A3ECF0A3EEF030083E900CD7E0FAA3E0EF
:1020AB00FBA3E0FCA3E0FE30E72B900CD7E0FAA3F8
:1020BB00E0FBA3E0FCA3E0FEC3E49AFAE49BFBE4A1
:1020CB009CFCE49EFE900CD7EAF0A3EBF0A3ECF0A3
:1020DB00A3EEF08002C208D20C900CEBE0FC751A58
:1020EB00F5751B0C7D00900CDBE4F08C82C004C0FA
:1020FB0005121B3BD005D004200C32C004900CDB26
:10210B00E0FFC4FF851A82851B83E0FA4207851A1C
:10211B0082851B83EFF0151A74FFB51A02151B90FD
:10212B000CF6E51AF0A3E51BF0D004800C900CDB49
:10213B00E0FF851A82851B83F00D900CEEEDF0B25B
:10214B000C900CD7E0FFA3E0FAA3E0FEA3E0FBEFBB
:10215B004A4E4B7091900CF6E51AF0A3E51BF090EC
:10216B000CEEEDF0900CECE0FA7006900CEC7401B8
:10217B00F020052720042474012DFA900CECE0FBD1
:10218B00C3EA9B5011758220C002C003121AB1D052
:10219B0003D0021B80EA900CECEBF0300812758236
:1021AB002D121AB1900CECE0FA14900CECF0802F7D
:1021BB00900CEEE0FA602830061275822B121AB1E1
:1021CB00900CECE0FA14900CECF0801330071075C7
:1021DB008220121AB1900CECE0FA14900CECF02067
:1021EB00042F900CEEE0FA900CECE0FB8B041B90B0
:1021FB000CECEBF0C3EA9C50363005047C308002CB
:10220B007C208C82C002C003121AB1D003D0028092
:10221B00DB900CECE0FA900CEEE0FCC39A500990CA
:10222B000CECEAC39CF0800C900CECE4F080059075
:10223B000CECEBF0900CF6E0FAA3E0FB900CEEE06C
:10224B00FC8C061CEE6040B20C200C150ABA000187
:10225B000B8A828B83E0FEC4540FFE900CDBF08064
:10226B000E8A828B83E0FE53060F900CDBEEF09010
:10227B000CDBE0FEF582C002C003C004121AF9D0D9
:10228B0004D003D00280BA200403021BCB900CECC9
:10229B00E0FA8A031AEB7003021BCB758220C00293
:1022AB00121AB1D00280EB8D82121AB1021BCB90A5
:0B22BB000CDCE0FAA3E08A82F583222D
:0B2BFD003C4E4F20464C4F41543E0020
:1022C600AAF0AB83E582900CF8F0A3EBF0A3EAF05A
:1022D6007A007B00900CF8E0FCA3E0FDA3E0FE8C06
:1022E600828D838EF0122319FFA3AC82AD83900CEE
:1022F600F8ECF0A3EDF0A3EEF0EF60070ABA00DF0A
:102306000B80DC900CF8ECF0A3EDF0A3EEF08A82E3
:032316008B832294
:0D00030075813612006AE582600302006517
:1023190020F71430F6148883A88220F507E6A883ED
:1023290075830022E280F7E49322E022AA82AB833C
:10233900ACF0FD900CFFEAF0A3EBF0A3ECF0A3EDF9
:10234900F0900D03E4F0900CFFE0FAA3E0FBA3E0AA
:10235900FCA3E0FD7E00900CFBE0F51CA3E0F51D5D
:10236900A3E0F51EA3E0F51FE51F235401FF7078D4
:10237900C006E51C25E0FFE51D33F8E51E33F9E548
:102389001F33FE900CFBEFF0A3E8F0A3E9F0A3EEF6
:10239900F0900CFBE0F51CA3E0F51DA3E0F51EA3EE
:1023A900E0F51FC3EA951CEB951DEC951EED951FF5
:1023B900E433D0066029E51FC313F51FE51E13F5A5
:1023C9001EE51D13F51DE51C13F51C900CFBE51C02
:1023D900F0A3E51DF0A3E51EF0A3E51FF080090EAB
:1023E900900D03EEF002235F900D03E0FA900CFFCD
:1023F900E0FBA3E0FCA3E0FDA3E0FE900CFBE0F50D
:102409001CA3E0F51DA3E0F51EA3E0F51FC3EB95A2
:102419001CEC951DED951EEE951F4017900CFFEBDA
:10242900C3951CF0EC951DA3F0ED951EA3F0EE9558
:102439001FA3F0900CFBE0FBA3E0FCA3E0FDA3E0ED
:10244900FEC313FEED13FDEC13FCEB13FB900CFB29
:10245900F0A3ECF0A3EDF0A3EEF08A031AEB708D74
:10246900900CFFE0FAA3E0FBA3E0FCA3E0FD8A8265
:102479008B838CF022AA82AB83ACF0FD900D08EA25
:10248900F0A3EBF0A3ECF0A3EDF0900D0CE4F0A3B6
:10249900F0A3F0A3F0900D04E0FAA3E0FBA3E0FCA5
:1024A900A3E0FD751C20900D08E0FFA3E0F8A3E070
:1024B900F9A3E0FE33920DEF2FFFE833F8E933F982
:1024C900EE33FE900D08EFF0A3E8F0A3E9F0A3EED8
:1024D900F0900D0CE0FEA3E0FFA3E0F8A3E0F9EE15
:1024E9002EFEEF33FFE833F8E933F9900D0CEEF0E7
:1024F900A3EFF0A3E8F0A3E9F0300D1E900D0CE076
:10250900FFA3E0F8A3E0F9A3E0FE900D0C74014FDE
:10251900F0A3E8F0A3E9F0A3EEF0900D0CE0FEA320
:10252900E0FFA3E0F8A3E0F9C3EE9AEF9BE89CE98A
:102539009D4031900D0CEEC39AF0EF9BA3F0E89CFF
:10254900A3F0E99DA3F0900D08E0FEA3E0FFA3E04E
:10255900F8A3E0F9900D0874014EF0A3EFF0A3E899
:10256900F0A3E9F0D51C0280030224AF900D08E026
:10257900FAA3E0FBA3E0FCA3E0FD8A828B838CF045
:1025890022E582900D10F0900D10E0FABA6100403A
:0E25990009EA24854004758201227582002221
:00000001FF
