:03000000020003F8
:1000620002006512007180FE438E0C900000221285
:1000720004649009F87402F0E4A3F09009FC74029D
:10008200F0E4A3F0900CA674C4F0A37409F09000FD
:10009200021211EC7426C0E07424C0E01213C215DF
:1000A200811581120528AA82AB83ACF0900C83EAF9
:1000B200F0A3EBF0A3ECF07467C0E07424C0E0128C
:1000C20013C215811581900C83E0FAA3E0FBA3E033
:1000D200FC8A828B838CF01205AB7489C0E0742495
:1000E200C0E01213C215811581900D2AE4F0A3F02D
:1000F200900D2CE4F0A3F0900C71E4F0A3F0900CBE
:1001020071E0FAA3E0FB900C83E0FCA3E0FDA3E026
:10011200FEEA2CFFEB3DF88E018F82888389F01274
:100122002198FF6032C3EF648094B0401874B98F95
:10013200F063F08095F0400D900C7174012AF0E4A8
:100142003BA3F080B9748CC0E07424C0E01213C2E7
:1001520015811581020096900D28E4F0A3F08C829F
:100162008D838EF0120472AA82AB83900D28EAF07E
:10017200A3EBF0C002C00374A4C0E07424C0E01278
:1001820013C2E58124FCF581900D28E0FAA3E0FB7F
:1001920074075AFC7D00BC0005BD0002800302000A
:1001A20096C3EA9420EB94005003020096C3746055
:1001B2009A74099B50030200968A828B8312126DF5
:1001C200AA82AB83900C7FEAF0A3EBF0EA4B702299
:1001D20074CAC0E07424C0E01213C2158115819064
:1001E2000C7FE0FAA3E0FB7C008A828B838CF01206
:1001F2001199900D28E0FAA3E0FB8A828B831212F8
:100202006DAA82AB83900C81EAF0A3EBF0EA4B700B
:100212003574FFC0E07424C0E01213C21581158149
:10022200900C81E0FAA3E0FB7C008A828B838CF045
:10023200121199900C7FE0FAA3E0FB7C008A828B7A
:10024200838CF0121199900C7FE0FAA3E0FB4A70C4
:1002520003020096900C81E0FAA3E0FB4A700302CD
:1002620000967434C0E07425C0E01213C2158115E3
:1002720081900C7FE0FAA3E0FB7C00900A00EAF098
:10028200A3EBF0A3ECF0900C81E0FAA3E0FB7C007E
:10029200900A03EAF0A3EBF0A3ECF0900D28E0FA49
:1002A200A3E0FB900B77EAF0A3EBF0900B79EAF076
:1002B200A3EBF0900C75E4F0A3F07461C0E0742538
:1002C200C0E01213C2158115811205A1E582900CBE
:1002D2008CF07477C0E07425C0E01213C21581154A
:1002E20081900C8CE0FAF58212058F7489C0E0745B
:1002F20024C0E01213C215811581900C8CE0FAC360
:10030200648094E1400B74FA8AF063F08095F050B7
:100312001E900C8CE0FAC3648094B050030203E197
:10032200C374B98AF063F08095F050030203E1745C
:1003320097C0E07425C0E01213C215811581900B9D
:1003420077E0FAA3E0FB1ABAFF011B900C75E0FC00
:10035200A3E0FDC3EA9CEB9D503974B3C0E0742561
:10036200C0E01213C2158115817401C0E07426C069
:10037200E01213C215811581900C8CE0FAF58212FD
:10038200058F7489C0E07424C0E01213C215811570
:10039200818036900C7FE0FAA3E0FBEC2AFAED3B79
:1003A200FB900C8CE0FE8A828B83F0900C757401BA
:1003B2002CF0E43DA3F0900D2AE0FAA3E0FB900DAF
:1003C2002A74012AF0E43BA3F0900C8DE0FAA3E03A
:1003D200FB900C8D74012AF0E43BA3F00202BC7482
:1003E20020C0E07426C0E01213C215811581900D61
:1003F2002CE0FAA3E0FB900D2C74012AF0E43BA35D
:10040200F0900C8DE0FAA3E0FB900C8D74012AF0C1
:10041200E43BA3F0900C8CE0FABA2B028014BA2DC4
:10042200028015BA3D02801CBA3F028011BA4020F8
:1004320080181207200202BC1209890202BC120BA8
:100442003F0202BC120F580202BC12105002009668
:10045200743CC0E07426C0E01213C21581158102FB
:1004620002BC758920758DFA759850D28ED2992268
:10047200AAF0AB83E582900C8FF0A3EBF0A3EAF035
:10048200900C71E4F0A3F09009FEE4F0A3F0900C5C
:100492008FE0FAA3E0FBA3E0FC900C71E0FDA3E087
:1004A200FEED2AFFEE3BF88C018F82888389F012E1
:1004B2002198FF6065C002C003C0049009FEE0F805
:1004C200A3E0F9900CB3740AF0E4A3F08882898364
:1004D200C002C003C004C005C006C0071214CAA8E7
:1004E20082A983D007D006D005D004D003D002EF72
:1004F2003395E0FAEF24D0FFEA34FFFA9009FEEFD9
:1005020028F0EA39A3F0900C7174012DF0E43EA3B7
:10051200F0D004D003D00202049B9009FEE0FAA3BB
:10052200E08A82F583221205A1E582900C92F07A8C
:10053200007B00900C92E0FCBC0D028029BC000202
:100542008024EA24C6F582EB3409F583ECF00ABA7A
:1005520000010BC002C0031205A1E582D003D00244
:10056200900C92F080CDEA24C6F582EB3409F58333
:10057200E4F0EA24C6FAEB3409FB7C008A828B831E
:100582008CF0E41213A99009C675F00022E582905E
:100592000C93F03099FD900C93E0F599C2992210DA
:1005A200980280FBAA998A8222AAF0AB83E5829004
:1005B2000C94F0A3EBF0A3EAF0900C94E0FAA3E021
:1005C200FBA3E0FC7D007E00ED2AFFEE3BF88C01F0
:1005D2008F82888389F0122198FF60208F82C00267
:1005E200C003C004C005C00612058FD006D005D0D6
:1005F20004D003D0020DBD00CF0E80CC22AA83E529
:1006020082900C97F0A3EAF0900C97E0FAA3E0FB3B
:100612008A828B8312126DAA82AB837C00C002C0D5
:1006220003C004745DC0E07426C0E01213C21581D9
:100632001581D004D003D0029009FCE0FDA3E0FEB6
:100642009009FC74012DF0E43EA3F08A828B838C26
:10065200F022AA83E582900C99F0A3EAF0900C991B
:10066200E0FAA3E0FB9009FCE0FCA3E0FD1CBCFF68
:10067200011DC3EA9CEB9D40030206FB900CB37480
:1006820003F0E4A3F08A828B83C002C0031214CA6F
:10069200AC82AD83D003D002EC2400FCED340AFD21
:1006A2008A060EEE75F003A42400F582740A35F072
:1006B200F583E0FFA3E0F8A3E0F98C828D83EFF0ED
:1006C200A3E8F0A3E9F08A04EBCC25E0CC33FDECFF
:1006D2002477FCED340BFDEE2EFE2477F582E43414
:1006E2000BF583E0FEA3E0FF8C828D83EEF0A3EF97
:1006F200F00ABA00010B020667746EC0E07426C0ED
:10070200E01213C2158115819009FCE0FAA3E0FB07
:100712001ABAFF011B9009FCEAF0A3EBF022747FE6
:10072200C0E07426C0E01213C2158115811205289B
:10073200AA82AB83ACF0900C86EAF0A3EBF0A3ECB8
:10074200F074B3C0E07426C0E01213C215811581A3
:10075200900C86E0FAA3E0FBA3E0FC8A828B838CF8
:10076200F01205AB7489C0E07424C0E01213C21504
:10077200811581900C71E4F0A3F0900C79E4F0A360
:10078200F0900C71E0FAA3E0FB900C86E0FCA3E091
:10079200FDA3E0FEEA2CFFEB3DF88E018F828883F9
:1007A20089F0122198FF6032C3EF648094B0401840
:1007B20074B98FF063F08095F0400D900C71740164
:1007C2002AF0E43BA3F080B9748CC0E07424C0E04A
:1007D2001213C215811581020720900C71E4F0A357
:1007E200F08C828D838EF0120472AA82AB83900CFD
:1007F20079EAF0A3EBF0C002C00374A4C0E0742451
:10080200C0E01213C2E58124FCF581900C79E0FA74
:10081200A3E0FBC3EA9414EB94005003020720C345
:1008220074909A74019B50030207209009F8E0FC2F
:10083200A3E0FD900CB37403F0E4A3F08C828D83EB
:10084200C002C0031214CAAC82AD83D003D002EC42
:100852002400FCED340AFD8A828B83C004C0051299
:1008620005FFAA82AB83AEF0D005D0048C828D83C3
:10087200EAF0A3EBF0A3EEF09009F8E0FAA3E0FBB4
:10088200900CB37403F0E4A3F08A828B83C002C09D
:10089200031214CAAC82AD83D003D002EC2400F55B
:1008A20082ED340AF583E0FCA3E0FDA3E0FEEC4D0B
:1008B2004E704CC002C00374D4C0E07426C0E01273
:1008C20013C2E58124FCF5819009F8E0FAA3E0FB6C
:1008D200900CB37403F0E4A3F08A828B831214CADF
:1008E200AA82AB83EA2400F582EB340AF583E0FAAC
:1008F200A3E0FBA3E0FC8A828B838CF01211999017
:1009020009F8E0FAA3E0FB900CB37403F0E4A3F05F
:100912008A828B83C002C0031214CAAC82AD83D018
:1009220003D002EC2400F582ED340AF583E0FCA347
:10093200E0FDA3E0FEEC4D4E7003020720C002C0B2
:1009420003740AC0E07427C0E01213C2E58124FCDC
:10095200F5819009F8E0FAA3E0FB8A04CC25E0CC0B
:1009620033FDEC2477FCED340BFD900C79E0FEA313
:10097200E0FF8C828D83EEF0A3EFF09009F8740112
:100982002AF0E43BA3F0227427C0E07427C0E012EF
:1009920013C215811581120528AA82AB83ACF0908F
:1009A2000C89EAF0A3EBF0A3ECF07445C0E07427E5
:1009B200C0E01213C215811581900C89E0FAA3E000
:1009C200FBA3E0FC8A828B838CF01205AB7468C0B7
:1009D200E07427C0E01213C2158115819009FAE470
:1009E200F0A3F0900C71E4F0A3F0900C71E0FAA384
:1009F200E0FB900C89E0FCA3E0FDA3E0FEEA2CFC06
:100A0200EB3DFD8C828D838EF0122198FC604D901F
:100A120009FAE0FDA3E0FE900CB3740AF0E4A3F03F
:100A22008D828E83C002C003C0041214CAAD82AE8E
:100A320083D004D003D002EC3395E0FFEC24D0FC49
:100A4200EF34FFFF9009FAEC2DF0EF3EA3F0900C8B
:100A52007174012AF0E43BA3F00209EC9009FCE076
:100A6200FAA3E0FB1ABAFF011B9009FAE0FCA3E02B
:100A7200FDC3EA9CEB9D50127427C0E07427C0E0CE
:100A82001213C215811581020998EC4D7012746B14
:100A9200C0E07427C0E01213C215811581020998C3
:100AA200C004C0057496C0E07427C0E01213C2E50A
:100AB2008124FCF5819009FAE0FAA3E0FB900CB3E3
:100AC2007403F0E4A3F08A828B831214CAAA82AB65
:100AD20083EA2400F582EB340AF583E0FAA3E0FB13
:100AE200A3E0FC8A828B838CF01211999009FAE0C0
:100AF200FAA3E0FB900CB37403F0E4A3F08A828BB8
:100B020083C002C0031214CAAC82AD83D003D002E8
:100B1200EC2400F582ED340AF583E4F0A3F0A3F0AF
:100B22008A828B831206549009F8E0FAA3E0FB1A3A
:100B3200BAFF011B9009F8EAF0A3EBF022900D2A0C
:100B4200E0C0E0A3E0C0E074A9C0E07427C0E012F6
:100B520013C2E58124FCF581900D2CE0C0E0A3E0F6
:100B6200C0E074CFC0E07427C0E01213C2E5812454
:100B7200FCF5819009FCE0C0E0A3E0C0E074F5C0A0
:100B8200E07427C0E01213C2E58124FCF5817418D9
:100B9200C0E07428C0E01213C215811581900C7157
:100BA200E4F0A3F0900C71E0FAA3E0FB9009FCE002
:100BB200FCA3E0FDC3EA9CEB9D503574012AFCE4E2
:100BC2003BFDC002C003C004C005743DC0E07428F0
:100BD200C0E01213C2E58124FAF581900C71E0FAAB
:100BE200A3E0FB900C7174012AF0E43BA3F080B403
:100BF200744DC0E07428C0E01213C21581158174CF
:100C020089C0E07424C0E01213C215811581900CD2
:100C120071E4F0A3F0900C71E0FAA3E0FB9009FC00
:100C2200E0FCA3E0FDC3EA9CEB9D4003020F35907C
:100C32000C7BE4F0A3F0C002C0037472C0E074281D
:100C4200C0E01213C2E58124FCF581900C71E0FA38
:100C5200A3E0FB8A04CC25E0CC33FDEC2477F582BB
:100C6200ED340BF583E0FCA3E0FDC004C005C00237
:100C7200C0037485C0E07428C0E01213C2E5812469
:100C8200FAF581900C71E0FAA3E0FB900CB37403C7
:100C9200F0E4A3F08A828B83C002C0031214CAACB0
:100CA20082AD83D003D002EC2400F582ED340AF544
:100CB20083E0FCA3E0FDA3E0FEC004C005C002C0C7
:100CC20003749EC0E07428C0E01213C2E58124FAC6
:100CD200F581900C71E0FAA3E0FB900CB37403F081
:100CE200E4A3F08A828B83C002C0031214CAAC82CE
:100CF200AD83D003D002EC2400F582ED340AF583F3
:100D0200E0FCA3E0FDA3E08A06EBCE25E0CE33FFB4
:100D1200EE2477F582EF340BF583E0FEA3E0FFEEDD
:100D22002CFCEF3DFDC004C005C002C00374C3C06B
:100D3200E07428C0E01213C2E58124FAF581900C18
:100D420071E0FAA3E0FB900CB37403F0E4A3F08A21
:100D5200828B83C002C0031214CAAC82AD83D0035B
:100D6200D002EC2400F582ED340AF583E0FCA3E026
:100D7200FDA3E0FE900C7BE0FFA3E0F8EF2CFCE883
:100D82003DFD8C828D838EF0122198FC600D900CBB
:100D92007B74012FF0E438A3F080A38A04EBCC2506
:100DA200E0CC33FDEC2477F582ED340BF583E0FCE7
:100DB200A3E0FDECC39FFFED98F8C007C000C0029E
:100DC200C00374E6C0E07428C0E01213C2E58124B7
:100DD200FAF581900C71E0FAA3E0FB4A6003020E7F
:100DE200FB900C77E4F0A3F0900D2AE0C0E0A3E0C2
:100DF200C0E0C002C0037405C0E07429C0E0121351
:100E0200C2E58124FAF581900D2AE0FCA3E0FDBC45
:100E12000005BD0002800F7437C0E07429C0E012E3
:100E220013C215811581900C77E0FCA3E0FD900DB3
:100E32002AE0FEA3E0FFC3EC9EED9F4003020EC337
:100E4200900C7DE4F0A3F0900C77E0FCA3E0FD9021
:100E52000C7FE0F8A3E0F9EC28F582ED39F583E0A8
:100E6200FCF58212058F900C77E0FCA3E0FD900C5C
:100E72007FE0F8A3E0F9EC28F582ED39F583E4F0A0
:100E8200900C7774012CF0E43DA3F0900C7DE0FC13
:100E9200A3E0FD900C7D74012CF0E43DA3F0900CD6
:100EA2007DE0FCA3E0FDC3EC9420ED940040987437
:100EB20089C0E07424C0E01213C215811581020EAC
:100EC20028BE0005BF000280117455C0E07429C01D
:100ED200E01213C215811581800F746AC0E0742973
:100EE200C0E01213C215811581900D2AE4F0A3F01F
:100EF200900C75E4F0A3F08015C002C0037485C0A5
:100F0200E07429C0E01213C2E58124FCF58174B3B8
:100F1200C0E07429C0E01213C215811581900C71D2
:100F2200E0FAA3E0FB900C7174012AF0E43BA3F019
:100F3200020C17900C8DE0C0E0A3E0C0E074F9C091
:100F4200E07429C0E01213C2E58124FCF581900C03
:100F52008DE4F0A3F0227436C0E0742AC0E07480FD
:100F6200C0E01214EA158115811581900C71E4F02C
:100F7200A3F0900D2AE0FAA3E0FB4A700F7454C06C
:100F8200E0742AC0E01213C215811581900C71E041
:100F9200FAA3E0FB900D2AE0FCA3E0FDC3EA9CEB80
:100FA2009D4003021040EA540F600280447489C0DD
:100FB200E07424C0E07480C0E01214EA1581158147
:100FC2001581900C71E0FAA3E0FB900C7FE0FCA38A
:100FD200E0FDEA2CFAEB3DFBC002C0037481C0E0E5
:100FE200742AC0E07480C0E01218F9E58124FBF590
:100FF20081900C71E0FAA3E0FB900C7FE0FCA3E08F
:10100200FDEA2CF582EB3DF583E0FA3395E0FBC077
:1010120002C0037487C0E0742AC0E07480C0E0128A
:1010220018F9E58124FBF581900C71E0FAA3E0FB4D
:10103200900C7174012AF0E43BA3F0020F8E7489C4
:10104200C0E07424C0E01213C21581158122900CF5
:1010520071E4F0A3F0900C71E0FAA3E0FB9009FCBC
:10106200E0FCA3E0FDC3EA9CEB9D5071900CB374CD
:1010720003F0E4A3F08A828B831214CAAA82AB83A0
:10108200EA2400F582EB340AF583E0FAA3E0FBA33D
:10109200E0FC8A828B838CF0121199900C71E0FA39
:1010A200A3E0FB900CB37403F0E4A3F08A828B8379
:1010B200C002C0031214CAAC82AD83D003D002ECCA
:1010C2002400F582ED340AF583E4F0A3F0A3F09056
:1010D2000C7174012AF0E43BA3F0021057900C7FCC
:1010E200E0FAA3E0FB7C008A828B838CF0121199D8
:1010F200900C81E0FAA3E0FB7C008A828B838CF067
:10110200121199748DC0E0742AC0E01213C21581C5
:1011120015817468C0E07427C0E01213C2158115EE
:02112200812228
:10242600456E7465722074686520627566666572AD
:102436002073697A65206265747765656E2033322C
:1024460020616E64203234303020627974657320E6
:10245600646976697369626C6520627920380D0A51
:1024660000546865206275666665722073697A65D0
:1024760020796F7520656E746572656420697320B6
:102486003A20000D0A00506C6561736520656E7414
:1024960065722061206E756D6265720D0A00546862
:1024A60065206275666665722073697A6520696E55
:1024B60074656765722076616C7565206973202581
:1024C600640D0A006D616C6C6F63206275666665EB
:1024D6007230206661696C65642C20506C6561738E
:1024E6006520656E746572206120736D616C6C6524
:1024F600722073697A650A0D006D616C6C6F6320DA
:1025060062756666657231206661696C65642C2049
:10251600506C6561736520656E7465722061207309
:102526006D616C6C65722073697A650A0D006D6168
:102536006C6C6F632070617373656420666F7220C4
:10254600626F7468206275666665723020616E64BB
:1025560020627566666572310A0D000A0D456E7455
:1025660065722061206368617261637465720A0D29
:1025760000546865206368617261637465722079CE
:102586006F7520656E7465726564206973203A20E4
:1025960000497420697320612073746F72616765E6
:1025A600206368617261637465720A0D0042756624
:1025B600666572302069732066756C6C2C205468D1
:1025C600652063686172616374657220796F752036
:1025D600656E74657265642077696C6C206E6F74C5
:1025E6002062652073746F72656420696E2074685A
:1025F60065206275666665720D0A0054686520631B
:10260600686172616374657220796F7520656E7496
:10261600657265642069733A2000697420697320C5
:102626006120636F6D6D616E6420636861726163C2
:102636007465720A0D004E6F206D61746368696E71
:102646006720636F6D6D616E64206368617261639C
:10265600746572730A0D0042756666657220637250
:1026660065617465640A0D0042756666657220735D
:102676006869667465640A0D00506C65617365204F
:10268600656E7465722061206E6577206275666678
:1026960065722073697A65206265747765656E2058
:1026A600323020616E64203430300A0D0054686583
:1026B600206275666665722073697A6520796F7522
:1026C60020656E74657265642069733A20006D61D9
:1026D6006C6C6F6320627566666572256420666140
:1026E600696C65642C20506C6561736520656E7439
:1026F6006572206120736D616C6C65722073697AF6
:10270600650A0D006D616C6C6F6320706173736593
:102716006420666F722062756666657225640A0DAE
:1027260000456E74657220612076616C6964206272
:102736007566666572206E756D6265720A0D005467
:10274600686520627566666572206E756D62657273
:1027560020796F7520656E74657265642069733AB9
:1027660020000A0D00456E74657220612076616C4A
:10277600696420627566666572206E756D62657243
:10278600206F74686572207468616E20300A0D00CF
:1027960042756666657225642064656C6574656459
:1027A6000A0D004E756D626572206F662073746F38
:1027B6007261676520636861726163746572732014
:1027C6006172652025640D0A004E756D6265722082
:1027D6006F6620636F6D6D616E6420636861726100
:1027E6006374657273206172652025640D0A005456
:1027F600686572652061726520256420627566666B
:1028060065727320696E2074686520686561700D55
:102816000A00546865206275666665727320637582
:102826007272656E746C7920696E206865617020BD
:102836006172653A0D0A005B25645D206275666605
:10284600657225640D0A005265706F7274206F669A
:1028560020656163682062756666657220696E2010
:1028660074686520686561703A0D0A00427566668F
:1028760065722564207265706F72743A0D0A005392
:10288600697A65206F6620427566666572256420E2
:1028960069732025640D0A005374617274696E674A
:1028A6002061646472657373206F66204275666684
:1028B600657225642069732025640D0A00456E64DF
:1028C600696E672061646472657373206F66204267
:1028D600756666657225642069732025640D0A0095
:1028E6004672656520737061636520696E20427566
:1028F6006666657225642069732025640D0A004E9C
:10290600756D626572206F662073746F726167659C
:10291600206368617261637465727320696E2062F8
:1029260075666665722564206172652025640D0AE8
:10293600005468652073746F72616765206368610F
:1029460072616374657273206172653A0D0A0042A2
:1029560075666665723020697320656D7074696589
:10296600640D0A00427566666572302069732061DF
:102976006C726561647920656D7074790D0A005416
:102986006865726520617265206E6F2073746F7260
:10299600616765206368617261637465727320693B
:1029A6006E2062756666657225640D0A002A2A2AFB
:1029B6002A2A2A2A2A2A2A2A2A2A2A2A2A2A2A2A71
:1029C6002A2A2A2A2A2A2A2A2A2A2A2A2A2A2A2A61
:1029D6002A2A2A2A2A2A2A2A2A2A2A2A2A2A2A2A51
:1029E6002A2A2A2A2A2A2A2A2A2A2A2A2A2A2A2A41
:1029F6000A0D004E756D626572206F662063686110
:102A06007261637465727320726563656976656465
:102A16002073696E6365206C61737420273F2720DD
:102A2600636F6D6D616E642069732025640D0A0005
:102A36004865782076616C75657320696E204275ED
:102A4600666665722030206172653A0D0A00546828
:102A560065726520617265206E6F2073746F726196
:102A66006765206368617261637465727320696E5D
:102A760020427566666572300D0A00253034583A74
:102A8600002530325809005468652073706163650B
:102A960020616C6C6F636174656420746F2062756D
:102AA600666665727320696E207468652068656164
:0D2AB600702069732066726565640A0D006A
:062ACE0000000000000002
:10112400AA83E582900C9DF0A3EAF0900C9DE0FA6E
:10113400A3E0FB4A700490000022EA24FCFAEB349A
:10114400FFFB900CA4E0FCA3E0FD900C9FECF0A34B
:10115400EDF0900C9BE4F0A3F0900C9FE0FCA3E076
:10116400FD4C6025EAB50406EBB50502801B900C26
:101174009BECF0A3EDF08C828D83E0FCA3E0FD906A
:101184000C9FECF0A3EDF080D0900C9FE0FAA3E06C
:101194008A82F58322AAF0AB83E582900CA1F0A3A6
:1011A400EBF0A3EAF0900CA1E0FAA3E0FBA3E0FCCF
:1011B4008A828B83121124AA82AB83EA4B60289023
:1011C4000C9BE0FCA3E0FD4C700B8A828B83A3A3F1
:1011D400E4F0A3F0228A828B83E0FAA3E0FB8C8202
:0811E4008D83EAF0A3EBF02279
:06003200E478FFF6D8FDA2
:100010007906E94400601B7A01902ACE782875A001
:100020000DE493F2A308B8000205A0D9F4DAF27542
:02003000A0FF2F
:1011EC00AA83E582900CA8F0A3EAF0900CA8E0FA90
:1011FC00A3E0FB900CAAEAF0A3EBF0EA4B70209072
:10120C000CAA74012AF0E43BA3F0900CA6E0FAA31C
:10121C00E0FB1ABAFF011B900CA6EAF0A3EBF090CE
:10122C000CAAE0FAA3E0FB900CA4EAF0A3EBF0907C
:10123C000CA6E0FCA3E0FDEC2AFCED3BFDEC24FE4F
:10124C00FCED34FFFD8A828B83ECF0A3EDF08C82F5
:10125C008D83E4F0A3F08A828B83A3A3E4F0A3F044
:10126C0022AA83E582900CACF0A3EAF0900CACE0DF
:10127C00FAA3E0FBC374FB9A74FF9B50049000002C
:10128C0022900CAC74042AF0E43BA3F0900CA4E084
:10129C00FAA3E0FB900CAEEAF0A3EBF0900CACE000
:1012AC00F51EA3E0F51F900CAEE0FCA3E0FD8C82D4
:1012BC008D83E0FEA3E0FF8E008F018C028D03E88E
:1012CC00C39AF8E99BF98C828D83A3A3E0FAA3E07F
:1012DC00FBE8C39AF8E99BF9C3E8951EE9951F4012
:1012EC000D900CB074042CF0E43DA3F08023900C12
:1012FC00AEEEF0A3EFF0900CAEE0FAA3E0FB8A8226
:10130C008B83E0FAA3E0FB4A709C900CB0E4F0A352
:10131C00F0900CB0E0FAA3E0FB4A700302139D902E
:10132C000CAEE0FAA3E0FB74022AFCE43BFD8C82D9
:10133C008D83E0FEA3E0FF4E7013900CACE0F8A39D
:10134C00E0F98C828D83E8F0A3E9F08044EE2AFE6C
:10135C00EF3BFF8A828B83E0FCA3E0FD8E828F83C0
:10136C00ECF0A3EDF08A828B83EEF0A3EFF0740225
:10137C002EFAE43FFB900CACE0FCA3E0FD8A828BE0
:10138C0083ECF0A3EDF0900CB074042EF0E43FA3CA
:10139C00F0900CB0E0FAA3E08A82F5832220F710DB
:1013AC0030F6118883A88220F507F6A88375830090
:1013BC0022F280F7F022C01D85811DE51D24FDF869
:1013CC00868318868218E493A324DB600C242560A2
:1013DC00051214AF80F00214C7D2D5E493A3C083D6
:1013EC00C082B4731486F018868318868218122172
:1013FC00986053A31214AF80F5B46307E618121467
:10140C00AF8043B46417E630E74618E6F42401F6DF
:10141C0008E6F43400F6742D1214AF8033B4782D32
:10142C00868318868218E41214A0E58312149FE5B3
:10143C00831214A0E58212149FE5821214A030D5F9
:10144C000574301214AFD082D0830213D2B475F667
:10145C00E6FA18E6F9187C107D2712148AFF7CE84E
:10146C007D0312148AC4F5837C647D0012148A42B5
:10147C0083E975F00A84C445F0F582EF80A97B00FE
:10148C000BC3E99CF9EA9DFA50F61BE92CF9EA3DED
:10149C00FAEB22C4540F700320D51FC2D52490D46C
:1014AC003440D4C083C082C0F0F582E8C0E012059D
:1014BC008FD0E0F8D0F0D082D08322D01D22AA8326
:1014CC00AB828BF0900CB3E0A4F8A9F08AF0E0A406
:0E14DC0029F98BF0A3E0A429F583888222224F
:100038007800E84400600A790075A000E4F309D864
:10004800FC7828E8440D600C790E900000E4F0A3D9
:0A005800D8FCD9FAC200C201C202AE
:1014EA00C01D85811DE51D24FBFAE51D24FBF88638
:1014FA00030886040886058B828C838DF012219856
:10150A00FE70030216D3BE250280030216BAC20277
:10151A00C201C200E51D24FBF874012BF6E43C0865
:10152A00F608A605E51D24FBF88603088604088646
:10153A00058B828C838DF0122198FFBF6802801779
:10154A00BF6C26D200E51D24FBF874012BF6E43C9F
:10155A0008F608A6058012D202E51D24FBF87401DC
:10156A002BF6E43C08F608A605E51D24FBF88603DD
:10157A000886040886058B828C838DF0122198FBDD
:10158A00BB63028022BB64028013BB6F02801DBB57
:10159A0073028005BB78188009D201801275080A87
:1015AA00800D7508108008750800800375080830DA
:1015BA000147EA24FDF88802860908860A08860B8C
:1015CA001818AB09AC0AAD0B8B828C838DF01221F3
:1015DA009870030216C3AB09AC0AAD0B8B828C83DD
:1015EA008DF0122198FB0509E4B50902050A8B82E0
:1015FA00C00212058FD00280C9300016EA24FCF816
:10160A008802860C08860D08860E08860F18181898
:10161A008030300215EA14F888028603EBF50C33A1
:10162A0095E0F50DF50EF50F8018EA24FEF888020C
:10163A008603088604188B0CECF50D3395E0F50E3D
:10164A00F50FE508605DAB0CAC0DAD0EAF0F900C5D
:10165A00DD7410F0A3E4F0A37440F0900CE0E50808
:10166A00F08B828C838DF0EFC002121810D00275B5
:10167A000910750A00750B40AB09AC0AAD0B8B82D9
:10168A008C838DF0122198FB0509E4B50902050A3D
:10169A008B1CBB00028022851C82C00212058FD0DF
:1016AA000280D5AB0C8B82C00212058FD002800952
:1016BA008E82C00212058FD002E51D24FBF8740148
:1016CA0026F6E40836F60214F4D01D22AA82AB8369
:1016DA00ACF0FD900CB9EAF0A3EBF0A3ECF0A3EDAB
:1016EA00F0900CB8E0FA7B201BEB24BDFCE4340C30
:1016FA00FD900CB9E0FEA3E0FFA3E0F8A3E0F98AAD
:10170A0022752300752400752500900D12E522F03C
:10171A00A3E523F0A3E524F0A3E525F08E828F83C9
:10172A0088F0E9C002C003C004C0051221B4AE8229
:10173A00AF83A8F0F9D005D004D003D00274302EBC
:10174A00FE8C828D83F08C828D83E0FEC374B98E09
:10175A00F063F08095F0500F8C828D83E0FE740761
:10176A002EFE8C828D83F0900CB9E0FCA3E0FDA3E1
:10177A00E0FEA3E0FF900D1BE522F0A3E523F0A312
:10178A00E524F0A3E525F08C828D838EF0EFC0026C
:10179A00C0031222FDAC82AD83AEF0FFD003D002AB
:1017AA00900CB9ECF0A3EDF0A3EEF0A3EFF0900CDF
:1017BA00B9E0FCA3E0FDA3E0FEA3E0FFBC000BBD83
:1017CA000008BE0005BF000280030216F28B0290D9
:1017DA000CB5E0FBA3E0FCA3E0FD8A060AEE24BDFB
:1017EA00F582E4340CF583E0FE8B828C838DF01253
:1017FA0013A9A3AB82AC83BA200040DE8B828C8310
:10180A008DF0E40213A9AA82AB83ACF0FD900CE13F
:10181A00EAF0A3EBF0A3ECF0A3EDF0900CE1E0FA10
:10182A00A3E0FBA3E0FCA3E0FD30E73F900CE0E07F
:10183A00FEBE0A37900CDDE0FEA3E0FFA3E0F88EBF
:10184A00828F8388F0742D1213A9900CDD74012EF7
:10185A00F0E43FA3F0A3E8F0900CE1C3E49AF0E4CB
:10186A009BA3F0E49CA3F0E49DA3F0900CE1E0FAC2
:10187A00A3E0FBA3E0FCA3E0FD900CDDE0FEA3E007
:10188A00FFA3E0F8900CE0E0F9900CB5EEF0A3EFBE
:10189A00F0A3E8F0900CB8E9F08A828B838CF0ED23
:1018AA000216D6C01D85811DAA8212058FD01D225F
:1018BA00AAF0AB83E582900CE6F0A3EBF0A3EAF082
:1018CA00900CE6E0FAA3E0FBA3E0FC900CE5E0FD57
:1018DA00900CF9E4F0A3F0A3F0900CFCEAF0A3EB6F
:1018EA00F0A3ECF0900CFFEDF09018AD021A12C0C4
:1018FA001D85811DE51D24FBFA900CF9E4F0A3F087
:10190A00A3F0E51D24FBF8900CFCE6F008A3E6F032
:10191A0008A3E6F0900CFFEAF09018AD121A12AA8A
:10192A0082AB83D01D22E582900CF5F0900CF5E095
:10193A00FA900CEBE0C0E0A3E0C0E0A3E0C0E074E2
:10194A005EC0E07419C0E0900CE9E0C0E0A3E0C01A
:10195A00E08A8222158115811581900CF3E0FAA3A1
:10196A00E0FB900CF374012AF0E43BA3F022E58239
:10197A00900CF6F0900CF6E0FA74302AFA24C6506D
:10198A000A74072AFA3003034302208A82021930B2
:10199A00E582900CF7F0900CF7E0FAC4540FFBF5CF
:1019AA0082C002121978D00253020F8A8202197871
:1019BA00E582900CF8F0900CEEE0FAA3E0FBA3E0CD
:1019CA00FCA3E0FD900CF2E0FE900CF8E0FF78201A
:1019DA00EE2EFEED235401F94206EA2AFAEB33FB16
:1019EA00EC33FCED33FDC3EE9F4007EEC39FFE438D
:1019FA000201D8DC900CEEEAF0A3EBF0A3ECF0A322
:101A0A00EDF0900CF2EEF022AA83E582900D00F040
:101A1A00A3EAF0900D00E0FAA3E0FB900CE9EAF0EB
:101A2A00A3EBF0900CF9E0FAA3E0FBA3E0FC900C26
:101A3A00EBEAF0A3EBF0A3ECF0900CF3E4F0A3F0E4
:101A4A00900CFCE0FAA3E0FBA3E0FC8A828B838C77
:101A5A00F0122198FD900CFC74012AF0E43BA3F0EB
:101A6A00A3ECF0ED7003022139BD250280030221A7
:101A7A0031C204C205C206C207C208C209C20AC2EA
:101A8A000B900D02E4F0900D03F0900D0474FFF03A
:101A9A00900CFCE0FAA3E0FBA3E0FC8A828B838C27
:101AAA00F0122198FEA3AA82AB83900CFCEAF0A361
:101ABA00EBF0A3ECF0900D06EEF0BE25088E821234
:101ACA001930021A4A8E07BF300040498E07EF24A8
:101ADA00C64042900D04E0FFBFFF29C002C003C008
:101AEA0004900D03E0FA75F00AA4FAEE24D0900DE2
:101AFA00032AF0900D03E0FAD004D003D002709BC1
:101B0A00D2058097EF75F00AA4FFEE24D0900D0459
:101B1A002FF0021AA5900D06E0FEBE2E08900D04C5
:101B2A00E4F0021AA58E82C002C003C004C00612E5
:101B3A002409E58224FF9203D006D004D003D00200
:101B4A00300307900D0674DF5EF0900D06E0FEBECE
:101B5A0020028055BE2B02804BBE2D028041BE4220
:101B6A0002804BBE43028050BE4403021DA6BE46FD
:101B7A0003021DC8BE4903021DA6BE4C028034BE24
:101B8A004F03021DB0BE5003021D08BE530280421D
:101B9A00BE5503021DB8BE5803021DC0021DCCD299
:101BAA0004021AA5D206021AA5D207021AA5D20958
:101BBA00021AA5D20A021AA5900CFFE0FA24FEF82E
:101BCA00900CFFF08602088603188A8212193002E6
:101BDA001DD8900CFFE0FA24FDF8900CFFF0860265
:101BEA000886030886041818900CEEEAF0A3EBF0B6
:101BFA00A3ECF0900CEEE0FAA3E0FBA3E0FC8A82EF
:101C0A008B838CF0122145AA82AB83900D04E0FBF2
:101C1A00BBFF05900D04EAF0200438900D03E0FBA9
:101C2A00C3EA9B502E900D03EBC39AF0900D03E08C
:101C3A00FB8B041B900D03EBF0BC00028010758235
:101C4A0020C002C003121930D003D00280E3900DE5
:101C5A0003EBF0900D04E0FDC002900CEEE0FCA353
:101C6A00E0FFA3E0FA8C828F838AF0122198D002D7
:101C7A0060538D041DC374808CF063F08095F0501E
:101C8A0044C002900CEEE0F526A3E0F527A3E0F5A8
:101C9A002874012526FBE43527FAAC28900CEEEBD4
:101CAA00F0A3EAF0A3ECF08526828527838528F045
:101CBA00122198FAF582C002C005121930D005D057
:101CCA0002D0028093200403021DD8900D03E0FB8A
:101CDA00C3EA9B4003021DD8900D03EBC39AF09010
:101CEA000D03E0FA8A031A900D03EAF0BB0003021F
:101CFA001DD3758220C002121930D00280E6900CE2
:101D0A00FFE0FB24FDF8900CFFF086030886040828
:101D1A0086071818900CEEEBF0A3ECF0A3EFF09006
:101D2A000CF0E0FB247F5008900D067443F08020ED
:101D3A00EB249F5008900D067450F08013EB24BFDB
:101D4A005008900D067449F08006900D067458F0FC
:101D5A00900D06E0FBF582C003121930D00375829C
:101D6A003AC003121930D003758230C003121930F9
:101D7A00D003758278C003121930D003BB490280A0
:101D8A000FBB5002800A900CEFE0FBF58212199A01
:101D9A00900CEEE0FBF58212199A8032D208900D6F
:101DAA0002740AF08028900D027408F08020900DC9
:101DBA0002740AF08018900D027410F08010D20B91
:101DCA00800C8E821219308005900D03EAF0300BD8
:101DDA006B900CFFE0FA24FCF8900CFFF0860208E6
:101DEA008603088604088606181818900CEEEAF08E
:101DFA00A3EBF0A3ECF0A3EEF0900CEE74C3F0A307
:101E0A00742AF0A37480F0900CEEE0FBA3E0FCA32C
:101E1A00E0FD74012BFEE43CFF8D02900CEEEEF027
:101E2A00A3EFF0A3EAF08B828C838DF0122198FA4B
:101E3A007003021A4A8A8212193080CB900D02E08E
:101E4A00FABA0003021A4A900D0D740CF0A3740D2D
:101E5A00F030094C900CFFE0FA14F8900CFFF08671
:101E6A0002EA3395E0FBFCFE900CEEEAF0A3EBF0FD
:101E7A00A3ECF0A3EEF0300803021F20900CEEE072
:101E8A00FAA3E0FBA3E0FCA3E0FE7B007C007E005B
:101E9A00900CEEEAF0A3EBF0A3ECF0A3EEF0807660
:101EAA00300A2A900CFFE0FA24FCF8900CFFF08626
:101EBA0002088603088604088606181818900CEE8D
:101ECA00EAF0A3EBF0A3ECF0A3EEF08049900CFF4C
:101EDA00E0FA24FEF8900CFFF0860208860318EB5D
:101EEA003395E0FCFE900CEEEAF0A3EBF0A3ECF0E5
:101EFA00A3EEF0200820900CEEE0FAA3E0FBA3E0AA
:101F0A00FCA3E0FE7C007E00900CEEEAF0A3EBF06E
:101F1A00A3ECF0A3EEF030083E900CEEE0FAA3E05A
:101F2A00FBA3E0FCA3E0FE30E72B900CEEE0FAA363
:101F3A00E0FBA3E0FCA3E0FEC3E49AFAE49BFBE423
:101F4A009CFCE49EFE900CEEEAF0A3EBF0A3ECF00E
:101F5A00A3EEF08002C208D20C900D02E0FC7529B3
:101F6A000C752A0D7D00900CF2E4F08C82C004C03E
:101F7A00051219BAD005D004200C32C004900CF214
:101F8A00E0FFC4FF852982852A83E0FA4207852972
:101F9A0082852A83EFF0152974FFB52902152A9044
:101FAA000D0DE529F0A3E52AF0D004800C900CF27F
:101FBA00E0FF852982852A83F00D900D05EDF0B2A8
:101FCA000C900CEEE0FFA3E0FAA3E0FEA3E0FBEF27
:101FDA004A4E4B7091900D0DE529F0A3E52AF09039
:101FEA000D05EDF0900D03E0FA7006900D037401F3
:101FFA00F020052720042474012DFA900D03E0FB3C
:10200A00C3EA9B5011758220C002C003121930D056
:10201A0003D0021B80EA900D03EBF03008127582A0
:10202A002D121930900D03E0FA14900D03F0802F51
:10203A00900D05E0FA602830061275822B121930CD
:10204A00900D03E0FA14900D03F080133007107519
:10205A008220121930900D03E0FA14900D03F0203B
:10206A00042F900D05E0FA900D03E0FB8B041B9002
:10207A000D03EBF0C3EA9C50363005047C30800235
:10208A007C208C82C002C003121930D003D0028097
:10209A00DB900D03E0FA900D05E0FCC39A5009901D
:1020AA000D03EAC39CF0800C900D03E4F0800590C8
:1020BA000D03EBF0900D0DE0FAA3E0FB900D05E0A7
:1020CA00FC8C061CEE6040B20C200C150ABA00010A
:1020DA000B8A828B83E0FEC4540FFE900CF2F080D0
:1020EA000E8A828B83E0FE53060F900CF2EEF0907C
:1020FA000CF2E0FEF582C002C003C004121978D0C7
:10210A0004D003D00280BA200403021A4A900D03B5
:10211A00E0FA8A031AEB7003021A4A758220C00297
:10212A00121930D00280EB8D82121930021A4A90AD
:0B213A000CF3E0FAA3E08A82F5832298
:0B2AC3003C4E4F20464C4F41543E005B
:10214500AAF0AB83E582900D0FF0A3EBF0A3EAF0C4
:102155007A007B00900D0FE0FCA3E0FDA3E0FE8C70
:10216500828D838EF0122198FFA3AC82AD83900DF2
:102175000FECF0A3EDF0A3EEF0EF60070ABA00DF75
:102185000B80DC900D0FECF0A3EDF0A3EEF08A824E
:032195008B832217
:0D00030075812E12006AE58260030200651F
:1021980020F71430F6148883A88220F507E6A88370
:1021A80075830022E280F7E49322E022AA82AB83BF
:1021B800ACF0FD900D16EAF0A3EBF0A3ECF0A3ED64
:1021C800F0900D1AE4F0900D16E0FAA3E0FBA3E0FE
:1021D800FCA3E0FD7E00900D12E0F52BA3E0F52CAA
:1021E800A3E0F52DA3E0F52EE52E235401FF70782A
:1021F800C006E52B25E0FFE52C33F8E52D33F9E59E
:102208002E33FE900D12EFF0A3E8F0A3E9F0A3EE51
:10221800F0900D12E0F52BA3E0F52CA3E0F52DA32B
:10222800E0F52EC3EA952BEB952CEC952DED952E2C
:10223800E433D0066029E52EC313F52EE52D13F5FA
:102248002DE52C13F52CE52B13F52B900D12E52B12
:10225800F0A3E52CF0A3E52DF0A3E52EF080090E00
:10226800900D1AEEF00221DE900D1AE0FA900D168C
:10227800E0FBA3E0FCA3E0FDA3E0FE900D12E0F577
:102288002BA3E0F52CA3E0F52DA3E0F52EC3EB95E9
:102298002BEC952CED952DEE952E4017900D16EB09
:1022A800C3952BF0EC952CA3F0ED952DA3F0EE95AE
:1022B8002EA3F0900D12E0FBA3E0FCA3E0FDA3E049
:1022C800FEC313FEED13FDEC13FCEB13FB900D1294
:1022D800F0A3ECF0A3EDF0A3EEF08A031AEB708DF7
:1022E800900D16E0FAA3E0FBA3E0FCA3E0FD8A82D0
:1022F8008B838CF022AA82AB83ACF0FD900D1FEA91
:10230800F0A3EBF0A3ECF0A3EDF0900D23E4F0A321
:10231800F0A3F0A3F0900D1BE0FAA3E0FBA3E0FC10
:10232800A3E0FD752B20900D1FE0FFA3E0F8A3E0CC
:10233800F9A3E0FE33920DEF2FFFE833F8E933F904
:10234800EE33FE900D1FEFF0A3E8F0A3E9F0A3EE43
:10235800F0900D23E0FEA3E0FFA3E0F8A3E0F9EE80
:102368002EFEEF33FFE833F8E933F9900D23EEF052
:10237800A3EFF0A3E8F0A3E9F0300D1E900D23E0E1
:10238800FFA3E0F8A3E0F9A3E0FE900D2374014F4A
:10239800F0A3E8F0A3E9F0A3EEF0900D23E0FEA38C
:1023A800E0FFA3E0F8A3E0F9C3EE9AEF9BE89CE90D
:1023B8009D4031900D23EEC39AF0EF9BA3F0E89C6B
:1023C800A3F0E99DA3F0900D1FE0FEA3E0FFA3E0BA
:1023D800F8A3E0F9900D1F74014EF0A3EFF0A3E805
:1023E800F0A3E9F0D52B02800302232E900D1FE005
:1023F800FAA3E0FBA3E0FCA3E0FD8A828B838CF0C8
:1024080022E582900D27F0900D27E0FABA6100408E
:0E24180009EA248540047582012275820022A3
:00000001FF
