:03000000020003F8
:1000620002006512007180FE438E0C900000221285
:1000720004D99009F87402F0E4A3F09009FC740228
:10008200F0E4A3F0900CAA74C4F0A37409F09000F9
:100092000012129974D3C0E07424C0E012146F15D8
:1000A2008115811205D5AA82AB83ACF0900C85EA4A
:1000B200F0A3EBF0A3ECF07414C0E07425C0E012DE
:1000C200146F15811581900C85E0FAA3E0FBA3E083
:1000D200FC8A828B838CF01206587436C0E0742539
:1000E200C0E012146F15811581900D2EE4F0A3F07B
:1000F200900D30E4F0A3F0900C71E4F0A3F0900CBA
:1001020071E0FAA3E0FB900C85E0FCA3E0FDA3E024
:10011200FEEA2CFFEB3DF88E018F82888389F01274
:100122002245FF6032C3EF648094B0401874B98FE7
:10013200F063F08095F0400D900C7174012AF0E4A8
:100142003BA3F080B97439C0E07425C0E012146F8B
:1001520015811581020096900D2CE4F0A3F08C829B
:100162008D838EF012051FAA82AB83900D2CEAF0CC
:10017200A3EBF0C002C0037451C0E07425C0E012CA
:10018200146FE58124FCF581900D2CE0FAA3E0FBCD
:1001920074075AFC7D00BC0005BD0002800302000A
:1001A20096C3EA9420EB94005003020096C3746055
:1001B2009A74099B50030200968A828B8312131A47
:1001C200AA82AB83900C7FEAF0A3EBF0EA4B702299
:1001D2007477C0E07425C0E012146F158115819008
:1001E2000C7FE0FAA3E0FB7C008A828B838CF01206
:1001F2001246900D2CE0FAA3E0FB8A828B83121345
:100202001AAA82AB83900C81EAF0A3EBF0EA4B705E
:100212003574ACC0E07425C0E012146F15811581ED
:10022200900C81E0FAA3E0FB7C008A828B838CF045
:10023200121246900C7FE0FAA3E0FB7C008A828BCC
:10024200838CF0121246900C7FE0FAA3E0FB4A7016
:1002520003020096900C81E0FAA3E0FB4A700302CD
:10026200009674E1C0E07425C0E012146F15811588
:1002720081900C7FE0FAA3E0FB7C00900A00EAF098
:10028200A3EBF0A3ECF0900C81E0FAA3E0FB7C007E
:10029200900A03EAF0A3EBF0A3ECF0900D2CE0FA45
:1002A200A3E0FB900B77EAF0A3EBF0900B79EAF076
:1002B200A3EBF0900C75E4F0A3F0740EC0E074268A
:1002C200C0E07480C0E01219A615811581158174F1
:1002D20047C0E07426C0E012146F15811581747A4C
:1002E200C0E07426C0E012146F1581158174A9C094
:1002F200E07426C0E012146F1581158174DBC0E032
:100302007426C0E012146F15811581740BC0E0745D
:1003120027C0E012146F158115817447C0E074275D
:10032200C0E012146F15811581748EC0E07427C06D
:10033200E012146F1581158112064EE582900C8E23
:10034200F074A4C0E07427C0E012146F1581158107
:10035200900C8EE0FAF58212063C7436C0E07425E9
:10036200C0E012146F15811581900C8EE0FAC364FF
:100372008094E1400B74FA8AF063F08095F0501E8D
:10038200900C8EE0FAC3648094B05003020450C310
:1003920074B98AF063F08095F0500302045074C47B
:1003A200C0E07427C0E012146F15811581900B779D
:1003B200E0FAA3E0FB1ABAFF011B900C75E0FCA364
:1003C200E0FDC3EA9CEB9D503974E0C0E07427C0A5
:1003D200E012146F15811581742EC0E07428C0E0FC
:1003E20012146F15811581900C8EE0FAF5821206B7
:1003F2003C7436C0E07425C0E012146F158115817B
:100402008036900C7FE0FAA3E0FBEC2AFAED3BFB8E
:10041200900C8EE0FE8A828B83F0900C7574012C16
:10042200F0E43DA3F0900D2EE0FAA3E0FB900D2E38
:1004320074012AF0E43BA3F0900C8FE0FAA3E0FBF6
:10044200900C8F74012AF0E43BA3F00202BC744DBD
:10045200C0E07428C0E012146F15811581900D3030
:10046200E0FAA3E0FB900D3074012AF0E43BA3F024
:10047200900C8FE0FAA3E0FB900C8F74012AF0E459
:100482003BA3F0900C8EE0FABA2B028014BA2D0234
:10049200801BBA3D028022BA3F028017BA402680F2
:1004A2001E9000061204E71207CD0202BC120A36A1
:1004B2000202BC120BEC0202BC1210050202BC12B8
:1004C20010FD0200967469C0E07428C0E012146F37
:1004D200158115810202BC758920758DFA759850B7
:1004E200D28ED29922AA83E582900C91F0A3EAF0EF
:1004F2009009C474FFF0A3F07AFF7BFF900C91E0A7
:10050200FCA3E0FD8A828B83ECF0A3EDF0748AC039
:10051200E07428C0E012146F1581158122AAF0AB95
:1005220083E582900C93F0A3EBF0A3EAF0900C71B8
:10053200E4F0A3F09009FEE4F0A3F0900C93E0FA4B
:10054200A3E0FBA3E0FC900C71E0FDA3E0FEED2A2A
:10055200FFEE3BF88C018F82888389F0122245FFDF
:100562006065C002C003C0049009FEE0F8A3E0F990
:10057200900CB7740AF0E4A3F088828983C002C0A9
:1005820003C004C005C006C007121577A882A9835C
:10059200D007D006D005D004D003D002EF3395E0C7
:1005A200FAEF24D0FFEA34FFFA9009FEEF28F0EACE
:1005B20039A3F0900C7174012DF0E43EA3F0D00445
:1005C200D003D0020205489009FEE0FAA3E08A8235
:1005D200F5832212064EE582900C96F07A007B009B
:1005E200900C96E0FCBC0D028029BC00028024EA3B
:1005F20024C6F582EB3409F583ECF00ABA00010B4C
:10060200C002C00312064EE582D003D002900C96BF
:10061200F080CDEA24C6F582EB3409F583E4F0EAF2
:1006220024C6FAEB3409FB7C008A828B838CF0E4CB
:100632001214569009C675F00022E582900C97F0CC
:100642003099FD900C97E0F599C29922109802809A
:10065200FBAA998A8222AAF0AB83E582900C98F0D9
:10066200A3EBF0A3EAF0900C98E0FAA3E0FBA3E07E
:10067200FC7D007E00ED2AFFEE3BF88C018F828824
:100682008389F0122245FF60208F82C002C003C01E
:1006920004C005C00612063CD006D005D004D00323
:1006A200D0020DBD00CF0E80CC22AA83E582900C31
:1006B2009BF0A3EAF0900C9BE0FAA3E0FB8A828B0A
:1006C2008312131AAA82AB837C00C002C003C00447
:1006D200749FC0E07428C0E012146F15811581D098
:1006E20004D003D0029009FCE0FDA3E0FE9009FCD7
:1006F20074012DF0E43EA3F08A828B838CF022AA4F
:1007020083E582900C9DF0A3EAF0900C9DE0FAA3A1
:10071200E0FB9009FCE0FCA3E0FD1CBCFF011DC353
:10072200EA9CEB9D40030207A8900CB77403F0E427
:10073200A3F08A828B83C002C003121577AC82AD0C
:1007420083D003D002EC2400FCED340AFD8A060EAD
:10075200EE75F003A42400F582740A35F0F583E007
:10076200FFA3E0F8A3E0F98C828D83EFF0A3E8F019
:10077200A3E9F08A04EBCC25E0CC33FDEC2477FC32
:10078200ED340BFDEE2EFE2477F582E4340BF58377
:10079200E0FEA3E0FF8C828D83EEF0A3EFF00ABAB5
:1007A20000010B02071474B0C0E07428C0E01214F8
:1007B2006F158115819009FCE0FAA3E0FB1ABAFFDC
:1007C200011B9009FCEAF0A3EBF02274C1C0E074B3
:1007D20028C0E012146F158115811205D5AA82ABCB
:1007E20083ACF0900C88EAF0A3EBF0A3ECF074F584
:1007F200C0E07428C0E012146F15811581900C8836
:10080200E0FAA3E0FBA3E0FC8A828B838CF0120661
:10081200587436C0E07425C0E012146F158115813A
:10082200900C71E4F0A3F0900C79E4F0A3F0900C3A
:1008320071E0FAA3E0FB900C88E0FCA3E0FDA3E0EA
:10084200FEEA2CFFEB3DF88E018F82888389F0123D
:100852002245FF6032C3EF648094B0401874B98FB0
:10086200F063F08095F0400D900C7174012AF0E471
:100872003BA3F080B97439C0E07425C0E012146F54
:10088200158115810207CD900C71E4F0A3F08C82E2
:100892008D838EF012051FAA82AB83900C79EAF049
:1008A200A3EBF0C002C0037451C0E07425C0E01293
:1008B200146FE58124FCF581900C79E0FAA3E0FB4A
:1008C200C3EA9414EB940050030207CDC374909AC8
:1008D20074019B50030207CD9009F8E0FCA3E0FDF0
:1008E200900CB77403F0E4A3F08C828D83C002C035
:1008F20003121577AC82AD83D003D002EC2400FC46
:10090200ED340AFD8A828B83C004C0051206ACAAAC
:1009120082AB83AEF0D005D0048C828D83EAF0A343
:10092200EBF0A3EEF09009F8E0FAA3E0FB900CB72D
:100932007403F0E4A3F08A828B83C002C003121511
:1009420077AC82AD83D003D002EC2400F582ED3483
:100952000AF583E0FCA3E0FDA3E0FEEC4D4E704CF3
:10096200C002C0037416C0E07429C0E012146FE51F
:100972008124FCF5819009F8E0FAA3E0FB900CB722
:100982007403F0E4A3F08A828B83121577AA82ABF8
:1009920083EA2400F582EB340AF583E0FAA3E0FB54
:1009A200A3E0FC8A828B838CF01212469009F8E055
:1009B200FAA3E0FB900CB77403F0E4A3F08A828BF5
:1009C20083C002C003121577AC82AD83D003D0027C
:1009D200EC2400F582ED340AF583E0FCA3E0FDA3EC
:1009E200E0FEEC4D4E70030207CDC002C003744C12
:1009F200C0E07429C0E012146FE58124FCF58190F7
:100A020009F8E0FAA3E0FB8A04CC25E0CC33FDEC44
:100A12002477FCED340BFD900C79E0FEA3E0FF8C13
:100A2200828D83EEF0A3EFF09009F874012AF0E4CE
:100A32003BA3F0227469C0E07429C0E012146F1560
:100A42008115811205D5AA82AB83ACF0900C8BEA9A
:100A5200F0A3EBF0A3ECF07487C0E07429C0E012BD
:100A6200146F15811581900C8BE0FAA3E0FBA3E0D3
:100A7200FC8A828B838CF012065874AAC0E0742917
:100A8200C0E012146F158115819009FAE4F0A3F009
:100A9200900C71E4F0A3F0900C71E0FAA3E0FB90EB
:100AA2000C8BE0FCA3E0FDA3E0FEEA2CFCEB3DFD99
:100AB2008C828D838EF0122245FC604D9009FAE003
:100AC200FDA3E0FE900CB7740AF0E4A3F08D828ED1
:100AD20083C002C003C004121577AD82AE83D00476
:100AE200D003D002EC3395E0FFEC24D0FCEF34FFCE
:100AF200FF9009FAEC2DF0EF3EA3F0900C71740117
:100B02002AF0E43BA3F0020A999009FCE0FAA3E080
:100B1200FB1ABAFF011B9009FAE0FCA3E0FDC3EA4D
:100B22009CEB9D50127469C0E07429C0E012146FEE
:100B320015811581020A45EC4D701274ADC0E07446
:100B420029C0E012146F15811581020A45C004C044
:100B52000574D8C0E07429C0E012146FE58124FC4A
:100B6200F5819009FAE0FAA3E0FB900CB77403F068
:100B7200E4A3F08A828B83121577AA82AB83EA24DC
:100B820000F582EB340AF583E0FAA3E0FBA3E0FC74
:100B92008A828B838CF01212469009FAE0FAA3E063
:100BA200FB900CB77403F0E4A3F08A828B83C0023B
:100BB200C003121577AC82AD83D003D002EC2400BF
:100BC200F582ED340AF583E4F0A3F0A3F08A828B78
:100BD200831207019009F8E0FAA3E0FB1ABAFF01B9
:100BE2001B9009F8EAF0A3EBF022900D2EE0C0E092
:100BF200A3E0C0E074EBC0E07429C0E012146FE51A
:100C02008124FCF581900D30E0C0E0A3E0C0E074E7
:100C120011C0E0742AC0E012146FE58124FCF58152
:100C22009009FCE0C0E0A3E0C0E07437C0E0742AA1
:100C3200C0E012146FE58124FCF581745AC0E0749F
:100C42002AC0E012146F15811581900C71E4F0A393
:100C5200F0900C71E0FAA3E0FB9009FCE0FCA3E049
:100C6200FDC3EA9CEB9D503574012AFCE43BFDC0B8
:100C720002C003C004C005747FC0E0742AC0E01241
:100C8200146FE58124FAF581900C71E0FAA3E0FB80
:100C9200900C7174012AF0E43BA3F080B4748FC00D
:100CA200E0742AC0E012146F158115817436C0E019
:100CB2007425C0E012146F15811581900C71E4F057
:100CC200A3F0900C71E0FAA3E0FB9009FCE0FCA316
:100CD200E0FDC3EA9CEB9D4003020FE2900C7BE433
:100CE200F0A3F0C002C00374B4C0E0742AC0E012E2
:100CF200146FE58124FCF581900C71E0FAA3E0FB0E
:100D02008A04CC25E0CC33FDEC2477F582ED340B5C
:100D1200F583E0FCA3E0FDC004C005C002C003747B
:100D2200C7C0E0742AC0E012146FE58124FAF5818D
:100D3200900C71E0FAA3E0FB900CB77403F0E4A30B
:100D4200F08A828B83C002C003121577AC82AD8316
:100D5200D003D002EC2400F582ED340AF583E0FCE6
:100D6200A3E0FDA3E0FEC004C005C002C00374E01E
:100D7200C0E0742AC0E012146FE58124FAF5819074
:100D82000C71E0FAA3E0FB900CB77403F0E4A3F05B
:100D92008A828B83C002C003121577AC82AD83D0E6
:100DA20003D002EC2400F582ED340AF583E0FCA3C3
:100DB200E0FDA3E08A06EBCE25E0CE33FFEE2477FA
:100DC200F582EF340BF583E0FEA3E0FFEE2CFCEF9F
:100DD2003DFDC004C005C002C0037405C0E0742B11
:100DE200C0E012146FE58124FAF581900C71E0FAEB
:100DF200A3E0FB900CB77403F0E4A3F08A828B8328
:100E0200C002C003121577AC82AD83D003D002ECCE
:100E12002400F582ED340AF583E0FCA3E0FDA3E0B3
:100E2200FE900C7BE0FFA3E0F8EF2CFCE83DFD8C8C
:100E3200828D838EF0122245FC600D900C7B740132
:100E42002FF0E438A3F080A38A04EBCC25E0CC3366
:100E5200FDEC2477F582ED340BF583E0FCA3E0FD95
:100E6200ECC39FFFED98F8C007C000C002C0037436
:100E720028C0E0742BC0E012146FE58124FAF581DA
:100E8200900C71E0FAA3E0FB4A6003020FA8900CF9
:100E920077E4F0A3F0900D2EE0C0E0A3E0C0E0C044
:100EA20002C0037447C0E0742BC0E012146FE581E6
:100EB20024FAF581900D2EE0FCA3E0FDBC0005BDF7
:100EC2000002800F7479C0E0742BC0E012146F1519
:100ED200811581900C77E0FCA3E0FD900D2EE0FEE1
:100EE200A3E0FFC3EC9EED9F4003020F70900C7DC8
:100EF200E4F0A3F0900C77E0FCA3E0FD900C7FE01F
:100F0200F8A3E0F9EC28F582ED39F583E0FCF582EF
:100F120012063C900C77E0FCA3E0FD900C7FE0F819
:100F2200A3E0F9EC28F582ED39F583E4F0900C7733
:100F320074012CF0E43DA3F0900C7DE0FCA3E0FDF5
:100F4200900C7D74012CF0E43DA3F0900C7DE0FC4C
:100F5200A3E0FDC3EC9420ED940040987436C0E009
:100F62007425C0E012146F15811581020ED5BE00E2
:100F720005BF000280117497C0E0742BC0E0121408
:100F82006F15811581800F74ACC0E0742BC0E01224
:100F9200146F15811581900D2EE4F0A3F0900C755D
:100FA200E4F0A3F08015C002C00374C7C0E0742B44
:100FB200C0E012146FE58124FCF58174F5C0E07481
:100FC2002BC0E012146F15811581900C71E0FAA309
:100FD200E0FB900C7174012AF0E43BA3F0020CC414
:100FE200900C8FE0C0E0A3E0C0E0743BC0E0742C42
:100FF200C0E012146FE58124FCF581900C8FE4F0BF
:10100200A3F0227478C0E0742CC0E07480C0E012B7
:101012001597158115811581900C71E4F0A3F0905C
:101022000D2EE0FAA3E0FB4A700F7496C0E0742C18
:10103200C0E012146F15811581900C71E0FAA3E0E3
:10104200FB900D2EE0FCA3E0FDC3EA9CEB9D400368
:101052000210EDEA540F600280447436C0E0742539
:10106200C0E07480C0E0121597158115811581903A
:101072000C71E0FAA3E0FB900C7FE0FCA3E0FDEA38
:101082002CFAEB3DFBC002C00374C3C0E0742CC059
:10109200E07480C0E01219A6E58124FBF581900C72
:1010A20071E0FAA3E0FB900C7FE0FCA3E0FDEA2CE8
:1010B200F582EB3DF583E0FA3395E0FBC002C00315
:1010C20074C9C0E0742CC0E07480C0E01219A6E5B7
:1010D2008124FBF581900C71E0FAA3E0FB900C7186
:1010E20074012AF0E43BA3F002103B7436C0E074B2
:1010F20025C0E012146F1581158122900C71E4F065
:10110200A3F0900C71E0FAA3E0FB9009FCE0FCA3D1
:10111200E0FDC3EA9CEB9D5071900CB77403F0E4C0
:10112200A3F08A828B83121577AA82AB83EA24000A
:10113200F582EB340AF583E0FAA3E0FBA3E0FC8A34
:10114200828B838CF0121246900C71E0FAA3E0FBC2
:10115200900CB77403F0E4A3F08A828B83C002C0C0
:1011620003121577AC82AD83D003D002EC2400F5D4
:1011720082ED340AF583E4F0A3F0A3F0900C7174CD
:10118200012AF0E43BA3F0021104900C7FE0FAA3E1
:10119200E0FB7C008A828B838CF0121246900C81D9
:1011A200E0FAA3E0FB7C008A828B838CF012124669
:1011B20074CFC0E0742CC0E012146F1581158174D5
:0F11C200AAC0E07429C0E012146F1581158122B4
:1024D300456E746572207468652062756666657200
:1024E3002073697A65206265747765656E2033327F
:1024F30020616E6420323430302062797465732039
:10250300646976697369626C6520627920380D0AA3
:1025130000546865206275666665722073697A6522
:1025230020796F7520656E74657265642069732008
:102533003A20000D0A00506C6561736520656E7466
:1025430065722061206E756D6265720D0A005468B4
:1025530065206275666665722073697A6520696EA7
:1025630074656765722076616C75652069732025D3
:10257300640D0A006D616C6C6F632062756666653D
:102583007230206661696C65642C20506C656173E0
:102593006520656E746572206120736D616C6C6576
:1025A300722073697A650A0D006D616C6C6F63202C
:1025B30062756666657231206661696C65642C209C
:1025C300506C6561736520656E746572206120735C
:1025D3006D616C6C65722073697A650A0D006D61BB
:1025E3006C6C6F632070617373656420666F722017
:1025F300626F7468206275666665723020616E640E
:1026030020627566666572310A0D000D0A2F2A2A4B
:102613002A2A2A2A2A2A2A2A2A2A2A2A2A2A2A2A17
:102623002A2A2A2A4D454E552A2A2A2A2A2A2A2A7A
:102633002A2A2A2A2A2A2A2A2A2A2A2A2A2A2A2AF7
:102643002F0D0A005468652076616C696420636FFE
:102653006D6D616E6420636861726163746572732A
:1026630020776974682066756E6374696F6E732072
:102673006172653A0D0A0020272B2720636F6D6D69
:10268300616E6420636861726163746572202D2DCD
:102693002D2D2D2D2D2D2D2D204275666665722035
:1026A3004164640D0A0020272D2720636F6D6D613F
:1026B3006E6420636861726163746572202D2D2DD1
:1026C3002D2D2D2D2D2D2D204275666665722044EE
:1026D300656C6574650D0A0020273F2720636F6DC5
:1026E3006D616E6420636861726163746572202D2D
:1026F3002D2D2D2D2D2D2D2D2D2048656170205232
:1027030065706F72740D0A0020273D2720636F6D7B
:102713006D616E6420636861726163746572202DFC
:102723002D2D2D2D2D2D2D2D2D2042756666657297
:102733003020436F6E74656E747320696E20486534
:10274300780D0A002027402720636F6D6D616E644A
:1027530020636861726163746572202D2D2D2D2DA8
:102763002D2D2D2D2D2046726565696E6720616CB8
:102773006C6F636174696F6E73206F6620616C6C3C
:1027830020627566666572730D0A000A0D456E74E4
:1027930065722061206368617261637465720A0DFA
:1027A300005468652063686172616374657220799F
:1027B3006F7520656E7465726564206973203A20B5
:1027C30000497420697320612073746F72616765B7
:1027D300206368617261637465720A0D00427566F5
:1027E300666572302069732066756C6C2C205468A2
:1027F300652063686172616374657220796F752007
:10280300656E74657265642077696C6C206E6F7495
:102813002062652073746F72656420696E2074682A
:1028230065206275666665720D0A005468652063EB
:10283300686172616374657220796F7520656E7467
:10284300657265642069733A200069742069732096
:102853006120636F6D6D616E642063686172616393
:102863007465720A0D004E6F206D61746368696E42
:102873006720636F6D6D616E64206368617261636D
:10288300746572730A0D004465627567706F7274C4
:102893002065786563757465640D0A004275666624
:1028A300657220637265617465640A0D0042756622
:1028B30066657220736869667465640A0D00506CFE
:1028C3006561736520656E7465722061206E65773E
:1028D300206275666665722073697A652062657425
:1028E3007765656E20323020616E64203430300AA3
:1028F3000D00546865206275666665722073697A97
:102903006520796F7520656E7465726564206973DF
:102913003A20006D616C6C6F632062756666657248
:102923002564206661696C65642C20506C65617355
:102933006520656E746572206120736D616C6C65D2
:10294300722073697A650A0D006D616C6C6F632088
:1029530070617373656420666F7220627566666565
:102963007225640A0D00456E7465722061207661DC
:102973006C696420627566666572206E756D62654A
:10298300720A0D0054686520627566666572206E72
:10299300756D62657220796F7520656E74657265F9
:1029A300642069733A20000A0D00456E7465722035
:1029B300612076616C696420627566666572206E5B
:1029C300756D626572206F74686572207468616EDC
:1029D30020300A0D004275666665722564206465C1
:1029E3006C657465640A0D004E756D626572206FC7
:1029F300662073746F7261676520636861726163D7
:102A030074657273206172652025640D0A004E752A
:102A13006D626572206F6620636F6D6D616E6420F9
:102A230063686172616374657273206172652025E6
:102A3300640D0A005468657265206172652025641F
:102A4300206275666665727320696E2074686520FE
:102A5300686561700D0A0054686520627566666575
:102A630072732063757272656E746C7920696E205F
:102A730068656170206172653A0D0A005B25645DCB
:102A83002062756666657225640D0A005265706F73
:102A93007274206F6620656163682062756666657F
:102AA3007220696E2074686520686561703A0D0A4A
:102AB300004275666665722564207265706F727474
:102AC3003A0D0A0053697A65206F6620427566667F
:102AD300657225642069732025640D0A00537461AF
:102AE3007274696E672061646472657373206F66C4
:102AF3002042756666657225642069732025640D1E
:102B03000A00456E64696E6720616464726573735D
:102B1300206F66204275666665722564206973209E
:102B230025640D0A00467265652073706163652034
:102B3300696E204275666665722564206973202577
:102B4300640D0A004E756D626572206F66207374A2
:102B53006F72616765206368617261637465727324
:102B630020696E20627566666572256420617265F0
:102B73002025640D0A005468652073746F726167C1
:102B83006520636861726163746572732061726545
:102B93003A0D0A00427566666572302069732065D6
:102BA3006D70746965640D0A0042756666657230FE
:102BB30020697320616C726561647920656D70743E
:102BC300790D0A00546865726520617265206E6F25
:102BD3002073746F726167652063686172616374E7
:102BE30065727320696E2062756666657225640D71
:102BF3000A002A2A2A2A2A2A2A2A2A2A2A2A2A2A7C
:102C03002A2A2A2A2A2A2A2A2A2A2A2A2A2A2A2A21
:102C13002A2A2A2A2A2A2A2A2A2A2A2A2A2A2A2A11
:102C23002A2A2A2A2A2A2A2A2A2A2A2A2A2A2A2A01
:102C33002A2A2A2A2A0A0D004E756D626572206FB0
:102C43006620636861726163746572732072656381
:102C530065697665642073696E6365206C6173745E
:102C630020273F2720636F6D6D616E642069732099
:102C730025640D0A004865782076616C75657320BC
:102C8300696E204275666665722030206172653A0E
:102C93000D0A00546865726520617265206E6F20AD
:102CA30073746F72616765206368617261637465D1
:102CB300727320696E20427566666572300D0A0074
:102CC300253034583A0025303258090054686520BD
:102CD300737061636520616C6C6F636174656420FC
:102CE300746F206275666665727320696E207468FE
:102CF3006520686561702069732066726565640A82
:022D03000D00C1
:062D1000000000000000BD
:1011D100AA83E582900CA1F0A3EAF0900CA1E0FAB9
:1011E100A3E0FB4A700490000022EA24FCFAEB34ED
:1011F100FFFB900CA8E0FCA3E0FD900CA3ECF0A396
:10120100EDF0900C9FE4F0A3F0900CA3E0FCA3E0C0
:10121100FD4C6025EAB50406EBB50502801B900C78
:101221009FECF0A3EDF08C828D83E0FCA3E0FD90B8
:101231000CA3ECF0A3EDF080D0900CA3E0FAA3E0B6
:101241008A82F58322AAF0AB83E582900CA5F0A3F4
:10125100EBF0A3EAF0900CA5E0FAA3E0FBA3E0FC1D
:101261008A828B831211D1AA82AB83EA4B602890C8
:101271000C9FE0FCA3E0FD4C700B8A828B83A3A33F
:10128100E4F0A3F0228A828B83E0FAA3E0FB8C8254
:081291008D83EAF0A3EBF022CB
:06003200E478FFF6D8FDA2
:100010007906E94400601B7A01902D10782C75A0B8
:100020000DE493F2A308B8000205A0D9F4DAF27542
:02003000A0FF2F
:10129900AA83E582900CACF0A3EAF0900CACE0FADA
:1012A900A3E0FB900CAEEAF0A3EBF0EA4B702090C0
:1012B9000CAE74012AF0E43BA3F0900CAAE0FAA367
:1012C900E0FB1ABAFF011B900CAAEAF0A3EBF0901D
:1012D9000CAEE0FAA3E0FB900CA8EAF0A3EBF090C7
:1012E9000CAAE0FCA3E0FDEC2AFCED3BFDEC24FE9E
:1012F900FCED34FFFD8A828B83ECF0A3EDF08C8248
:101309008D83E4F0A3F08A828B83A3A3E4F0A3F096
:1013190022AA83E582900CB0F0A3EAF0900CB0E029
:10132900FAA3E0FBC374FB9A74FF9B50049000007E
:1013390022900CB074042AF0E43BA3F0900CA8E0CE
:10134900FAA3E0FB900CB2EAF0A3EBF0900CB0E04A
:10135900F51EA3E0F51F900CB2E0FCA3E0FD8C8222
:101369008D83E0FEA3E0FF8E008F018C028D03E8E0
:10137900C39AF8E99BF98C828D83A3A3E0FAA3E0D1
:10138900FBE8C39AF8E99BF9C3E8951EE9951F4064
:101399000D900CB474042CF0E43DA3F08023900C60
:1013A900B2EEF0A3EFF0900CB2E0FAA3E0FB8A8270
:1013B9008B83E0FAA3E0FB4A709C900CB4E4F0A3A1
:1013C900F0900CB4E0FAA3E0FB4A700302144A90CF
:1013D9000CB2E0FAA3E0FB74022AFCE43BFD8C8228
:1013E9008D83E0FEA3E0FF4E7013900CB0E0F8A3EC
:1013F900E0F98C828D83E8F0A3E9F08044EE2AFEBF
:10140900EF3BFF8A828B83E0FCA3E0FD8E828F8312
:10141900ECF0A3EDF08A828B83EEF0A3EFF0740277
:101429002EFAE43FFB900CB0E0FCA3E0FD8A828B2E
:1014390083ECF0A3EDF0900CB474042EF0E43FA318
:10144900F0900CB4E0FAA3E08A82F5832220F71029
:1014590030F6118883A88220F507F6A883758300E2
:1014690022F280F7F022C01D85811DE51D24FDF8BB
:10147900868318868218E493A324DB600C242560F4
:101489000512155C80F0021574D2D5E493A3C083CC
:10149900C082B4731486F0188683188682181222C3
:1014A900456053A312155C80F5B46307E61812155D
:1014B9005C8043B46417E630E74618E6F42401F685
:1014C90008E6F43400F6742D12155C8033B4782DD7
:1014D900868318868218E412154DE58312154CE5AA
:1014E9008312154DE58212154CE58212154D30D542
:1014F90005743012155CD082D08302147FB475F65E
:10150900E6FA18E6F9187C107D27121537FF7CE8F2
:101519007D03121537C4F5837C647D0012153742AB
:1015290083E975F00A84C445F0F582EF80A97B0050
:101539000BC3E99CF9EA9DFA50F61BE92CF9EA3D3F
:10154900FAEB22C4540F700320D51FC2D52490D4BE
:101559003440D4C083C082C0F0F582E8C0E01206EE
:101569003CD0E0F8D0F0D082D08322D01D22AA83CB
:10157900AB828BF0900CB7E0A4F8A9F08AF0E0A454
:0E15890029F98BF0A3E0A429F58388822222A1
:100038007800E84400600A790075A000E4F309D864
:10004800FC782CE8440D600C790E900000E4F0A3D5
:0A005800D8FCD9FAC200C201C202AE
:10159700C01D85811DE51D24FBFAE51D24FBF8868A
:1015A700030886040886058B828C838DF0122245FA
:1015B700FE7003021780BE25028003021767C2026E
:1015C700C201C200E51D24FBF874012BF6E43C08B8
:1015D700F608A605E51D24FBF88603088604088699
:1015E700058B828C838DF0122245FFBF680280171E
:1015F700BF6C26D200E51D24FBF874012BF6E43CF2
:1016070008F608A6058012D202E51D24FBF874012E
:101617002BF6E43C08F608A605E51D24FBF886032F
:101627000886040886058B828C838DF0122245FB81
:10163700BB63028022BB64028013BB6F02801DBBA9
:1016470073028005BB78188009D201801275080AD9
:10165700800D75081080087508008003750808302C
:101667000147EA24FDF88802860908860A08860BDE
:101677001818AB09AC0AAD0B8B828C838DF0122244
:10168700457003021770AB09AC0AAD0B8B828C83D4
:101697008DF0122245FB0509E4B50902050A8B8284
:1016A700C00212063CD00280C9300016EA24FCF8BA
:1016B7008802860C08860D08860E08860F181818EB
:1016C7008030300215EA14F888028603EBF50C33F4
:1016D70095E0F50DF50EF50F8018EA24FEF888025F
:1016E7008603088604188B0CECF50D3395E0F50E90
:1016F700F50FE508605DAB0CAC0DAD0EAF0F900CB0
:10170700E17410F0A3E4F0A37440F0900CE4E50852
:10171700F08B828C838DF0EFC0021218BDD002755A
:101727000910750A00750B40AB09AC0AAD0B8B822B
:101737008C838DF0122245FB0509E4B50902050AE1
:101747008B1CBB00028022851C82C00212063CD083
:101757000280D5AB0C8B82C00212063CD0028009F6
:101767008E82C00212063CD002E51D24FBF87401EC
:1017770026F6E40836F60215A1D01D22AA82AB830D
:10178700ACF0FD900CBDEAF0A3EBF0A3ECF0A3EDF9
:10179700F0900CBCE0FA7B201BEB24C1FCE4340C7A
:1017A700FD900CBDE0FEA3E0FFA3E0F8A3E0F98AFB
:1017B70022752300752400752500900D16E522F08B
:1017C700A3E523F0A3E524F0A3E525F08E828F831C
:1017D70088F0E9C002C003C004C005122261AE82CE
:1017E700AF83A8F0F9D005D004D003D00274302E0F
:1017F700FE8C828D83F08C828D83E0FEC374B98E5C
:10180700F063F08095F0500F8C828D83E0FE7407B3
:101817002EFE8C828D83F0900CBDE0FCA3E0FDA32F
:10182700E0FEA3E0FF900D1FE522F0A3E523F0A360
:10183700E524F0A3E525F08C828D838EF0EFC002BE
:10184700C0031223AAAC82AD83AEF0FFD003D0024F
:10185700900CBDECF0A3EDF0A3EEF0A3EFF0900C2D
:10186700BDE0FCA3E0FDA3E0FEA3E0FFBC000BBDD1
:101877000008BE0005BF0002800302179F8B02907D
:101887000CB9E0FBA3E0FCA3E0FD8A060AEE24C145
:10189700F582E4340CF583E0FE8B828C838DF012A5
:1018A7001456A3AB82AC83BA200040DE8B828C83B4
:1018B7008DF0E4021456AA82AB83ACF0FD900CE5E0
:1018C700EAF0A3EBF0A3ECF0A3EDF0900CE5E0FA5F
:1018D700A3E0FBA3E0FCA3E0FD30E73F900CE4E0CE
:1018E700FEBE0A37900CE1E0FEA3E0FFA3E0F88E0E
:1018F700828F8388F0742D121456900CE174012E98
:10190700F0E43FA3F0A3E8F0900CE5C3E49AF0E419
:101917009BA3F0E49CA3F0E49DA3F0900CE5E0FA10
:10192700A3E0FBA3E0FCA3E0FD900CE1E0FEA3E055
:10193700FFA3E0F8900CE4E0F9900CB9EEF0A3EF08
:10194700F0A3E8F0900CBCE9F08A828B838CF0ED71
:10195700021783C01D85811DAA8212063CD01D2255
:10196700AAF0AB83E582900CEAF0A3EBF0A3EAF0D0
:10197700900CEAE0FAA3E0FBA3E0FC900CE9E0FDA1
:10198700900CFDE4F0A3F0A3F0900D00EAF0A3EBB8
:10199700F0A3ECF0900D03EDF090195A021ABFC0B6
:1019A7001D85811DE51D24FBFA900CFDE4F0A3F0D5
:1019B700A3F0E51D24FBF8900D00E6F008A3E6F080
:1019C70008A3E6F0900D03EAF090195A121ABFAA7D
:1019D70082AB83D01D22E582900CF9F0900CF9E0E0
:1019E700FA900CEFE0C0E0A3E0C0E0A3E0C0E07431
:1019F7000BC0E0741AC0E0900CEDE0C0E0A3E0C0BB
:101A0700E08A8222158115811581900CF7E0FAA3EF
:101A1700E0FB900CF774012AF0E43BA3F022E58287
:101A2700900CFAF0900CFAE0FA74302AFA24C650B7
:101A37000A74072AFA3003034302208A820219DD57
:101A4700E582900CFBF0900CFBE0FAC4540FFBF519
:101A570082C002121A25D00253020F8A82021A2567
:101A6700E582900CFCF0900CF2E0FAA3E0FBA3E017
:101A7700FCA3E0FD900CF6E0FE900CFCE0FF782064
:101A8700EE2EFEED235401F94206EA2AFAEB33FB68
:101A9700EC33FCED33FDC3EE9F4007EEC39FFE43DF
:101AA7000201D8DC900CF2EAF0A3EBF0A3ECF0A370
:101AB700EDF0900CF6EEF022AA83E582900D04F08B
:101AC700A3EAF0900D04E0FAA3E0FB900CEDEAF036
:101AD700A3EBF0900CFDE0FAA3E0FBA3E0FC900C75
:101AE700EFEAF0A3EBF0A3ECF0900CF7E4F0A3F02F
:101AF700900D00E0FAA3E0FBA3E0FC8A828B838CC5
:101B0700F0122245FD900D0074012AF0E43BA3F08A
:101B1700A3ECF0ED70030221E6BD2502800302214C
:101B2700DEC204C205C206C207C208C209C20AC28F
:101B37000B900D06E4F0900D07F0900D0874FFF080
:101B4700900D00E0FAA3E0FBA3E0FC8A828B838C74
:101B5700F0122245FEA3AA82AB83900D00EAF0A300
:101B6700EBF0A3ECF0900D0AEEF0BE25088E821282
:101B770019DD021AF78E07BF300040498E07EF24A0
:101B8700C64042900D08E0FFBFFF29C002C003C056
:101B970004900D07E0FA75F00AA4FAEE24D0900D30
:101BA700072AF0900D07E0FAD004D003D002709B0B
:101BB700D2058097EF75F00AA4FFEE24D0900D08A8
:101BC7002FF0021B52900D0AE0FEBE2E08900D0862
:101BD700E4F0021B528E82C002C003C004C006128A
:101BE70024B6E58224FF9203D006D004D003D002A6
:101BF700300307900D0A74DF5EF0900D0AE0FEBE19
:101C070020028055BE2B02804BBE2D028041BE4272
:101C170002804BBE43028050BE4403021E53BE46A1
:101C270003021E75BE4903021E53BE4C028034BE1A
:101C37004F03021E5DBE5003021DB5BE5302804214
:101C4700BE5503021E65BE5803021E6D021E79D2E1
:101C570004021B52D206021B52D207021B52D209A0
:101C6700021B52D20A021B52900D03E0FA24FEF81F
:101C7700900D03F08602088603188A821219DD0286
:101C87001E85900D03E0FA24FDF8900D03F08602FF
:101C97000886030886041818900CF2EAF0A3EBF004
:101CA700A3ECF0900CF2E0FAA3E0FBA3E0FC8A823D
:101CB7008B838CF01221F2AA82AB83900D08E0FB94
:101CC700BBFF05900D08EAF0200438900D07E0FBF4
:101CD700C3EA9B502E900D07EBC39AF0900D07E0D7
:101CE700FB8B041B900D07EBF0BC00028010758284
:101CF70020C002C0031219DDD003D00280E3900D8B
:101D070007EBF0900D08E0FDC002900CF2E0FCA399
:101D1700E0FFA3E0FA8C828F838AF0122245D0027B
:101D270060538D041DC374808CF063F08095F05070
:101D370044C002900CF2E0F526A3E0F527A3E0F5F6
:101D47002874012526FBE43527FAAC28900CF2EB22
:101D5700F0A3EAF0A3ECF08526828527838528F097
:101D6700122245FAF582C002C0051219DDD005D04E
:101D770002D0028093200403021E85900D07E0FB2A
:101D8700C3EA9B4003021E85900D07EBC39AF090B0
:101D97000D07E0FA8A031A900D07EAF0BB00030269
:101DA7001E80758220C0021219DDD00280E6900DD8
:101DB70003E0FB24FDF8900D03F086030886040872
:101DC70086071818900CF2EBF0A3ECF0A3EFF09055
:101DD7000CF4E0FB247F5008900D0A7443F0802038
:101DE700EB249F5008900D0A7450F08013EB24BF2A
:101DF7005008900D0A7449F08006900D0A7458F047
:101E0700900D0AE0FBF582C0031219DDD00375823D
:101E17003AC0031219DDD003758230C0031219DDF1
:101E2700D003758278C0031219DDD003BB49028045
:101E37000FBB5002800A900CF3E0FBF582121A47A1
:101E4700900CF2E0FBF582121A478032D208900D0F
:101E570006740AF08028900D067408F08020900D13
:101E670006740AF08018900D067410F08010D20BDB
:101E7700800C8E821219DD8005900D07EAF0300B79
:101E87006B900D03E0FA24FCF8900D03F08602082E
:101E97008603088604088606181818900CF2EAF0DC
:101EA700A3EBF0A3ECF0A3EEF0900CF27405F0A313
:101EB700742DF0A37480F0900CF2E0FBA3E0FCA378
:101EC700E0FD74012BFEE43CFF8D02900CF2EEF076
:101ED700A3EFF0A3EAF08B828C838DF0122245FAF0
:101EE7007003021AF78A821219DD80CB900D06E083
:101EF700FABA0003021AF7900D117410F0A3740DCB
:101F0700F030094C900D03E0FA14F8900D03F086B9
:101F170002EA3395E0FBFCFE900CF2EAF0A3EBF04B
:101F2700A3ECF0A3EEF0300803021FCD900CF2E013
:101F3700FAA3E0FBA3E0FCA3E0FE7B007C007E00AD
:101F4700900CF2EAF0A3EBF0A3ECF0A3EEF08076AE
:101F5700300A2A900D03E0FA24FCF8900D03F0866E
:101F670002088603088604088606181818900CF2DB
:101F7700EAF0A3EBF0A3ECF0A3EEF08049900D0399
:101F8700E0FA24FEF8900D03F0860208860318EBAA
:101F97003395E0FCFE900CF2EAF0A3EBF0A3ECF033
:101FA700A3EEF0200820900CF2E0FAA3E0FBA3E0F8
:101FB700FCA3E0FE7C007E00900CF2EAF0A3EBF0BD
:101FC700A3ECF0A3EEF030083E900CF2E0FAA3E0A9
:101FD700FBA3E0FCA3E0FE30E72B900CF2E0FAA3B2
:101FE700E0FBA3E0FCA3E0FEC3E49AFAE49BFBE476
:101FF7009CFCE49EFE900CF2EAF0A3EBF0A3ECF05D
:10200700A3EEF08002C208D20C900D06E0FC752901
:1020170010752A0D7D00900CF6E4F08C82C004C088
:1020270005121A67D005D004200C32C004900CF6B4
:10203700E0FFC4FF852982852A83E0FA42078529C4
:1020470082852A83EFF0152974FFB52902152A9096
:102057000D11E529F0A3E52AF0D004800C900CF6C9
:10206700E0FF852982852A83F00D900D09EDF0B2F6
:102077000C900CF2E0FFA3E0FAA3E0FEA3E0FBEF75
:102087004A4E4B7091900D11E529F0A3E52AF09087
:102097000D09EDF0900D07E0FA7006900D07740139
:1020A700F020052720042474012DFA900D07E0FB8A
:1020B700C3EA9B5011758220C002C0031219DDD0FC
:1020C70003D0021B80EA900D07EBF03008127582EF
:1020D7002D1219DD900D07E0FA14900D07F0802FEF
:1020E700900D09E0FA602830061275822B1219DD6F
:1020F700900D07E0FA14900D07F080133007107564
:1021070082201219DD900D07E0FA14900D07F020D8
:10211700042F900D09E0FA900D07E0FB8B041B904C
:102127000D07EBF0C3EA9C50363005047C30800283
:102137007C208C82C002C0031219DDD003D002803C
:10214700DB900D07E0FA900D09E0FCC39A50099067
:102157000D07EAC39CF0800C900D07E4F080059012
:102167000D07EBF0900D11E0FAA3E0FB900D09E0ED
:10217700FC8C061CEE6040B20C200C150ABA00015C
:102187000B8A828B83E0FEC4540FFE900CF6F0801E
:102197000E8A828B83E0FE53060F900CF6EEF090CA
:1021A7000CF6E0FEF582C002C003C004121A25D067
:1021B70004D003D00280BA200403021AF7900D0757
:1021C700E0FA8A031AEB7003021AF7758220C0023D
:1021D7001219DDD00280EB8D821219DD021AF790F9
:0B21E7000CF7E0FAA3E08A82F58322E7
:0B2D05003C4E4F20464C4F41543E0016
:1021F200AAF0AB83E582900D13F0A3EBF0A3EAF013
:102202007A007B00900D13E0FCA3E0FDA3E0FE8CBE
:10221200828D838EF0122245FFA3AC82AD83900D96
:1022220013ECF0A3EDF0A3EEF0EF60070ABA00DFC3
:102232000B80DC900D13ECF0A3EDF0A3EEF08A829C
:032242008B832269
:0D00030075812E12006AE58260030200651F
:1022450020F71430F6148883A88220F507E6A883C2
:1022550075830022E280F7E49322E022AA82AB8311
:10226500ACF0FD900D1AEAF0A3EBF0A3ECF0A3EDB2
:10227500F0900D1EE4F0900D1AE0FAA3E0FBA3E048
:10228500FCA3E0FD7E00900D16E0F52BA3E0F52CF8
:10229500A3E0F52DA3E0F52EE52E235401FF70787C
:1022A500C006E52B25E0FFE52C33F8E52D33F9E5F0
:1022B5002E33FE900D16EFF0A3E8F0A3E9F0A3EEA0
:1022C500F0900D16E0F52BA3E0F52CA3E0F52DA37A
:1022D500E0F52EC3EA952BEB952CEC952DED952E7F
:1022E500E433D0066029E52EC313F52EE52D13F54D
:1022F5002DE52C13F52CE52B13F52B900D16E52B61
:10230500F0A3E52CF0A3E52DF0A3E52EF080090E52
:10231500900D1EEEF002228B900D1EE0FA900D1A24
:10232500E0FBA3E0FCA3E0FDA3E0FE900D16E0F5C5
:102335002BA3E0F52CA3E0F52DA3E0F52EC3EB953B
:102345002BEC952CED952DEE952E4017900D1AEB57
:10235500C3952BF0EC952CA3F0ED952DA3F0EE9500
:102365002EA3F0900D16E0FBA3E0FCA3E0FDA3E097
:10237500FEC313FEED13FDEC13FCEB13FB900D16E2
:10238500F0A3ECF0A3EDF0A3EEF08A031AEB708D49
:10239500900D1AE0FAA3E0FBA3E0FCA3E0FD8A821E
:1023A5008B838CF022AA82AB83ACF0FD900D23EADF
:1023B500F0A3EBF0A3ECF0A3EDF0900D27E4F0A370
:1023C500F0A3F0A3F0900D1FE0FAA3E0FBA3E0FC5F
:1023D500A3E0FD752B20900D23E0FFA3E0F8A3E01B
:1023E500F9A3E0FE33920DEF2FFFE833F8E933F957
:1023F500EE33FE900D23EFF0A3E8F0A3E9F0A3EE92
:10240500F0900D27E0FEA3E0FFA3E0F8A3E0F9EECE
:102415002EFEEF33FFE833F8E933F9900D27EEF0A0
:10242500A3EFF0A3E8F0A3E9F0300D1E900D27E02F
:10243500FFA3E0F8A3E0F9A3E0FE900D2774014F98
:10244500F0A3E8F0A3E9F0A3EEF0900D27E0FEA3DA
:10245500E0FFA3E0F8A3E0F9C3EE9AEF9BE89CE95F
:102465009D4031900D27EEC39AF0EF9BA3F0E89CB9
:10247500A3F0E99DA3F0900D23E0FEA3E0FFA3E008
:10248500F8A3E0F9900D2374014EF0A3EFF0A3E853
:10249500F0A3E9F0D52B0280030223DB900D23E0A6
:1024A500FAA3E0FBA3E0FCA3E0FD8A828B838CF01A
:1024B50022E582900D2BF0900D2BE0FABA610040D9
:0E24C50009EA248540047582012275820022F6
:00000001FF
